{
	"abi": [
		{
			"inputs": [
				{
					"internalType": "address payable",
					"name": "_proxy",
					"type": "address"
				},
				{
					"internalType": "address",
					"name": "_marketState",
					"type": "address"
				},
				{
					"internalType": "address",
					"name": "_owner",
					"type": "address"
				},
				{
					"internalType": "address",
					"name": "_resolver",
					"type": "address"
				}
			],
			"payable": false,
			"stateMutability": "nonpayable",
			"type": "constructor"
		},
		{
			"anonymous": false,
			"inputs": [
				{
					"indexed": false,
					"internalType": "bytes32",
					"name": "name",
					"type": "bytes32"
				},
				{
					"indexed": false,
					"internalType": "address",
					"name": "destination",
					"type": "address"
				}
			],
			"name": "CacheUpdated",
			"type": "event"
		},
		{
			"anonymous": false,
			"inputs": [
				{
					"indexed": false,
					"internalType": "int256",
					"name": "funding",
					"type": "int256"
				},
				{
					"indexed": false,
					"internalType": "int256",
					"name": "fundingRate",
					"type": "int256"
				},
				{
					"indexed": false,
					"internalType": "uint256",
					"name": "index",
					"type": "uint256"
				},
				{
					"indexed": false,
					"internalType": "uint256",
					"name": "timestamp",
					"type": "uint256"
				}
			],
			"name": "FundingRecomputed",
			"type": "event"
		},
		{
			"anonymous": false,
			"inputs": [
				{
					"indexed": true,
					"internalType": "address",
					"name": "account",
					"type": "address"
				},
				{
					"indexed": false,
					"internalType": "int256",
					"name": "marginDelta",
					"type": "int256"
				}
			],
			"name": "MarginTransferred",
			"type": "event"
		},
		{
			"anonymous": false,
			"inputs": [
				{
					"indexed": false,
					"internalType": "address",
					"name": "oldOwner",
					"type": "address"
				},
				{
					"indexed": false,
					"internalType": "address",
					"name": "newOwner",
					"type": "address"
				}
			],
			"name": "OwnerChanged",
			"type": "event"
		},
		{
			"anonymous": false,
			"inputs": [
				{
					"indexed": false,
					"internalType": "address",
					"name": "newOwner",
					"type": "address"
				}
			],
			"name": "OwnerNominated",
			"type": "event"
		},
		{
			"anonymous": false,
			"inputs": [
				{
					"indexed": true,
					"internalType": "bytes32",
					"name": "trackingCode",
					"type": "bytes32"
				},
				{
					"indexed": false,
					"internalType": "bytes32",
					"name": "baseAsset",
					"type": "bytes32"
				},
				{
					"indexed": false,
					"internalType": "bytes32",
					"name": "marketKey",
					"type": "bytes32"
				},
				{
					"indexed": false,
					"internalType": "int256",
					"name": "sizeDelta",
					"type": "int256"
				},
				{
					"indexed": false,
					"internalType": "uint256",
					"name": "fee",
					"type": "uint256"
				}
			],
			"name": "PerpsTracking",
			"type": "event"
		},
		{
			"anonymous": false,
			"inputs": [
				{
					"indexed": true,
					"internalType": "uint256",
					"name": "id",
					"type": "uint256"
				},
				{
					"indexed": true,
					"internalType": "address",
					"name": "account",
					"type": "address"
				},
				{
					"indexed": false,
					"internalType": "uint256",
					"name": "margin",
					"type": "uint256"
				},
				{
					"indexed": false,
					"internalType": "int256",
					"name": "size",
					"type": "int256"
				},
				{
					"indexed": false,
					"internalType": "int256",
					"name": "tradeSize",
					"type": "int256"
				},
				{
					"indexed": false,
					"internalType": "uint256",
					"name": "lastPrice",
					"type": "uint256"
				},
				{
					"indexed": false,
					"internalType": "uint256",
					"name": "fundingIndex",
					"type": "uint256"
				},
				{
					"indexed": false,
					"internalType": "uint256",
					"name": "fee",
					"type": "uint256"
				},
				{
					"indexed": false,
					"internalType": "int256",
					"name": "skew",
					"type": "int256"
				}
			],
			"name": "PositionModified",
			"type": "event"
		},
		{
			"anonymous": false,
			"inputs": [
				{
					"indexed": false,
					"internalType": "address",
					"name": "proxyAddress",
					"type": "address"
				}
			],
			"name": "ProxyUpdated",
			"type": "event"
		},
		{
			"constant": false,
			"inputs": [],
			"name": "acceptOwnership",
			"outputs": [],
			"payable": false,
			"stateMutability": "nonpayable",
			"type": "function"
		},
		{
			"constant": false,
			"inputs": [
				{
					"internalType": "uint256",
					"name": "desiredFillPrice",
					"type": "uint256"
				}
			],
			"name": "closePosition",
			"outputs": [],
			"payable": false,
			"stateMutability": "nonpayable",
			"type": "function"
		},
		{
			"constant": false,
			"inputs": [
				{
					"internalType": "uint256",
					"name": "desiredFillPrice",
					"type": "uint256"
				},
				{
					"internalType": "bytes32",
					"name": "trackingCode",
					"type": "bytes32"
				}
			],
			"name": "closePositionWithTracking",
			"outputs": [],
			"payable": false,
			"stateMutability": "nonpayable",
			"type": "function"
		},
		{
			"constant": true,
			"inputs": [],
			"name": "isResolverCached",
			"outputs": [
				{
					"internalType": "bool",
					"name": "",
					"type": "bool"
				}
			],
			"payable": false,
			"stateMutability": "view",
			"type": "function"
		},
		{
			"constant": true,
			"inputs": [],
			"name": "marketState",
			"outputs": [
				{
					"internalType": "contract IPerpsV2MarketState",
					"name": "",
					"type": "address"
				}
			],
			"payable": false,
			"stateMutability": "view",
			"type": "function"
		},
		{
			"constant": true,
			"inputs": [],
			"name": "messageSender",
			"outputs": [
				{
					"internalType": "address",
					"name": "",
					"type": "address"
				}
			],
			"payable": false,
			"stateMutability": "view",
			"type": "function"
		},
		{
			"constant": false,
			"inputs": [
				{
					"internalType": "int256",
					"name": "sizeDelta",
					"type": "int256"
				},
				{
					"internalType": "uint256",
					"name": "desiredFillPrice",
					"type": "uint256"
				}
			],
			"name": "modifyPosition",
			"outputs": [],
			"payable": false,
			"stateMutability": "nonpayable",
			"type": "function"
		},
		{
			"constant": false,
			"inputs": [
				{
					"internalType": "int256",
					"name": "sizeDelta",
					"type": "int256"
				},
				{
					"internalType": "uint256",
					"name": "desiredFillPrice",
					"type": "uint256"
				},
				{
					"internalType": "bytes32",
					"name": "trackingCode",
					"type": "bytes32"
				}
			],
			"name": "modifyPositionWithTracking",
			"outputs": [],
			"payable": false,
			"stateMutability": "nonpayable",
			"type": "function"
		},
		{
			"constant": false,
			"inputs": [
				{
					"internalType": "address",
					"name": "_owner",
					"type": "address"
				}
			],
			"name": "nominateNewOwner",
			"outputs": [],
			"payable": false,
			"stateMutability": "nonpayable",
			"type": "function"
		},
		{
			"constant": true,
			"inputs": [],
			"name": "nominatedOwner",
			"outputs": [
				{
					"internalType": "address",
					"name": "",
					"type": "address"
				}
			],
			"payable": false,
			"stateMutability": "view",
			"type": "function"
		},
		{
			"constant": true,
			"inputs": [],
			"name": "owner",
			"outputs": [
				{
					"internalType": "address",
					"name": "",
					"type": "address"
				}
			],
			"payable": false,
			"stateMutability": "view",
			"type": "function"
		},
		{
			"constant": true,
			"inputs": [],
			"name": "proxy",
			"outputs": [
				{
					"internalType": "contract Proxy",
					"name": "",
					"type": "address"
				}
			],
			"payable": false,
			"stateMutability": "view",
			"type": "function"
		},
		{
			"constant": false,
			"inputs": [],
			"name": "rebuildCache",
			"outputs": [],
			"payable": false,
			"stateMutability": "nonpayable",
			"type": "function"
		},
		{
			"constant": false,
			"inputs": [],
			"name": "recomputeFunding",
			"outputs": [
				{
					"internalType": "uint256",
					"name": "lastIndex",
					"type": "uint256"
				}
			],
			"payable": false,
			"stateMutability": "nonpayable",
			"type": "function"
		},
		{
			"constant": true,
			"inputs": [],
			"name": "resolver",
			"outputs": [
				{
					"internalType": "contract AddressResolver",
					"name": "",
					"type": "address"
				}
			],
			"payable": false,
			"stateMutability": "view",
			"type": "function"
		},
		{
			"constant": true,
			"inputs": [],
			"name": "resolverAddressesRequired",
			"outputs": [
				{
					"internalType": "bytes32[]",
					"name": "addresses",
					"type": "bytes32[]"
				}
			],
			"payable": false,
			"stateMutability": "view",
			"type": "function"
		},
		{
			"constant": false,
			"inputs": [
				{
					"internalType": "address",
					"name": "sender",
					"type": "address"
				}
			],
			"name": "setMessageSender",
			"outputs": [],
			"payable": false,
			"stateMutability": "nonpayable",
			"type": "function"
		},
		{
			"constant": false,
			"inputs": [
				{
					"internalType": "address payable",
					"name": "_proxy",
					"type": "address"
				}
			],
			"name": "setProxy",
			"outputs": [],
			"payable": false,
			"stateMutability": "nonpayable",
			"type": "function"
		},
		{
			"constant": false,
			"inputs": [
				{
					"internalType": "int256",
					"name": "marginDelta",
					"type": "int256"
				}
			],
			"name": "transferMargin",
			"outputs": [],
			"payable": false,
			"stateMutability": "nonpayable",
			"type": "function"
		},
		{
			"constant": false,
			"inputs": [],
			"name": "withdrawAllMargin",
			"outputs": [],
			"payable": false,
			"stateMutability": "nonpayable",
			"type": "function"
		}
	],
	"evm": {
		"bytecode": {
			"linkReferences": {},
			"object": "60806040523480156200001157600080fd5b5060405162005b0938038062005b09833981016040819052620000349162000895565b83838383838383838080836001600160a01b038116620000715760405162461bcd60e51b81526004016200006890620009cd565b60405180910390fd5b600080546001600160a01b0319166001600160a01b0383161781556040517fb532073b38c83145e3e5135377a08bf9aab55bc0fd7c1179cd4fb995d2a5159c91620000be91849062000995565b60405180910390a150600280546001600160a01b03199081166001600160a01b0393841617909155600480549091169186169190911790555060408051808201909152600d81526c496e76616c696420707269636560981b6020808301918252600160005260059052905162000156917f1471eb6eb2c5e789fc3de43f8ce62938c7d1836ec861730447e2ada8fd81017b91620007dd565b50604080518082019091526012815271496e76616c6964206f72646572207479706560701b60208083019182526002600052600590529051620001bb917f89832631fb3c3307a103ba2c84ab569c64d6182a18893dcd163f0f1c2090733a91620007dd565b5060408051808201909152601d81527f5072696365206f7574206f662061636365707461626c652072616e6765000000602080830191825260036000526005905290516200022b917fa9bc9a3a348c357ba16b37005d7e6b3236198c0e939f4af8c5f19b8deeb8ebc091620007dd565b5060408051808201909152601a81527f506f736974696f6e2063616e206265206c697175696461746564000000000000602080830191825260046000526005905290516200029b917f3eec716f11ba9e820c81ca75eb978ffb45831ef8b7a53e5e422c26008e1ca6d591620007dd565b5060408051808201909152601d81527f506f736974696f6e2063616e6e6f74206265206c697175696461746564000000602080830191825260056000819052905290516200030b917f458b30c2d72bfd2c6317304a4594ecbafe5f729d3111b65fdc3a33bd48e5432d91620007dd565b5060408051808201909152601881527f4d6178206d61726b65742073697a652065786365656465640000000000000000602080830191825260066000526005905290516200037b917f069400f22b28c6c362558d92f66163cec5671cba50b61abd2eecfcd0eaeac51891620007dd565b5060408051808201909152601581527f4d6178206c65766572616765206578636565646564000000000000000000000060208083019182526007600052600590529051620003eb917feddb6698d7c569ff62ff64f1f1492bf14a54594835ba0faac91f84b4f5d8146091620007dd565b5060408051808201909152601381527f496e73756666696369656e74206d617267696e00000000000000000000000000602080830191825260086000526005905290516200045b917ffb33122aa9f93cc639ebe80a7bc4784c11e6053dde89c6f4f7e268c6a623da1e91620007dd565b5060408051808201909152601d81527f4e6f74207065726d69747465642062792074686973206164647265737300000060208083019182526009600052600590529051620004cb917fc0a4a8be475dfebc377ebef2d7c4ff47656f572a08dd92b81017efcdba0febe191620007dd565b5060408051808201909152601981527f43616e6e6f74207375626d697420656d707479206f72646572000000000000006020808301918252600a6000526005905290516200053b917fa18b128af1c8fc61ff46f02d146e54546f34d340574cf2cef6a753cba6b6701d91620007dd565b5060408051808201909152601081526f2737903837b9b4ba34b7b71037b832b760811b6020808301918252600b6000526005905290516200059e917f40f28f99a40bc9f6beea1013afdbc3cdcc689eb76b82c4de06c0acf1e1932ed591620007dd565b50604080518082019091526012815271507269636520746f6f20766f6c6174696c6560701b6020808301918252600c60005260059052905162000603917ff907e7e6656fa73566b18c1215272fe9fca2c55c552e62c923e21e000ac4b4e691620007dd565b5060408051808201909152601581527f507269636520696d7061637420657863656564656400000000000000000000006020808301918252600d60005260059052905162000673917f03145c75015e7a856ecd94c41432ef3cb669d6360af23433588937fefdfac82591620007dd565b5060408051808201909152601081526f141bdcda5d1a5bdb88199b1859d9d95960821b6020808301918252600e600052600590529051620006d6917f783638979e3582b3ffd6d53fc06c949ac31d1ac75a5e2c3531fbe1f91045eb5391620007dd565b5060408051808201909152601481527f506f736974696f6e206e6f7420666c61676765640000000000000000000000006020808301918252600f60005260059052905162000746917f58f00e8ecc6f5419941dd0bafec65a4cc188d31713fb1fe224257460930df8af91620007dd565b50506000546001600160a01b0316151591506200077990505760405162461bcd60e51b81526004016200006890620009bb565b600680546001600160a01b0319166001600160a01b0383161790556040517ffc80377ca9c49cc11ae6982f390a42db976d5530af7c43889264b13fbbd7c57e90620007c690839062000985565b60405180910390a150505050505050505062000a28565b828054600181600116156101000203166002900490600052602060002090601f016020900481019282601f106200082057805160ff191683800117855562000850565b8280016001018555821562000850579182015b828111156200085057825182559160200191906001019062000833565b506200085e92915062000862565b5090565b6200087f91905b808211156200085e576000815560010162000869565b90565b80516200088f8162000a0e565b92915050565b60008060008060808587031215620008ac57600080fd5b6000620008ba878762000882565b9450506020620008cd8782880162000882565b9350506040620008e08782880162000882565b9250506060620008f38782880162000882565b91505092959194509250565b6200090a81620009fa565b82525050565b6200090a81620009e8565b60006200092a601183620009df565b7013dddb995c881b5d5cdd081899481cd95d607a1b815260200192915050565b600062000959601983620009df565b7f4f776e657220616464726573732063616e6e6f74206265203000000000000000815260200192915050565b602081016200088f8284620008ff565b60408101620009a58285620008ff565b620009b4602083018462000910565b9392505050565b602080825281016200088f816200091b565b602080825281016200088f816200094a565b90815260200190565b60006001600160a01b0382166200088f565b60006200088f8260006200088f82620009e8565b62000a1981620009e8565b811462000a2557600080fd5b50565b6150d18062000a386000396000f3fe608060405234801561001057600080fd5b506004361061012c5760003560e01c806374185360116100ad57806397107d6d1161007157806397107d6d1461022c578063a126d6011461023f578063bc67f83214610252578063d67bdd2514610265578063ec5568891461026d5761012c565b806374185360146101ec57806379ba5097146101f457806388a3c848146101fc578063899ffef41461020f5780638da5cb5b146102245761012c565b80634ad4914b116100f45780634ad4914b146101945780634eb985cc146101a757806353a47bb7146101bc5780635a1cbd2b146101d15780635c8011c3146101d95761012c565b806304f3bcec1461013157806308fb1b771461014f5780631627540c146101575780632af64bd31461016c57806332f0510314610181575b600080fd5b610139610275565b6040516101469190614d79565b60405180910390f35b610139610284565b61016a6101653660046141a0565b610293565b005b6101746102f1565b6040516101469190614c17565b61016a61018f36600461428e565b610409565b61016a6101a2366004614254565b610419565b6101af610429565b6040516101469190614c25565b6101c4610495565b6040516101469190614b5a565b61016a6104a4565b61016a6101e7366004614254565b610569565b61016a610573565b61016a6106c5565b61016a61020a366004614236565b610761565b61021761079a565b6040516101469190614c06565b6101c4610905565b61016a61023a3660046141a0565b610914565b61016a61024d366004614236565b610967565b61016a6102603660046141a0565b610975565b6101c461099f565b6101396109ae565b6002546001600160a01b031681565b6004546001600160a01b031681565b61029b6109bd565b600180546001600160a01b0319166001600160a01b0383161790556040517f906a1c6bd7e3091ea86693dd029a831c19049ce77f1dce2ce0bab1cacbabce22906102e6908390614b5a565b60405180910390a150565b600060606102fd61079a565b905060005b81518110156103ff57600082828151811061031957fe5b602090810291909101810151600081815260039092526040918290205460025492516321f8a72160e01b81529193506001600160a01b039081169216906321f8a7219061036a908590600401614c25565b60206040518083038186803b15801561038257600080fd5b505afa158015610396573d6000803e3d6000fd5b505050506040513d601f19601f820116820180604052506103ba91908101906141be565b6001600160a01b03161415806103e557506000818152600360205260409020546001600160a01b0316155b156103f65760009350505050610406565b50600101610302565b5060019150505b90565b6104148383836109e9565b505050565b610425828260006109e9565b5050565b600061044f610436610b24565b6007546001600160a01b03908116911614156009610b42565b60008061045a610b85565b9150915080156104855760405162461bcd60e51b815260040161047c90614e77565b60405180910390fd5b61048e82610cb6565b9250505090565b6001546001600160a01b031681565b6104ac610f04565b6007546001600160a01b031660006104c381610f2e565b90506104ce81610cb6565b506004805460405163055f575160e41b8152600092610559926001600160a01b0316916355f575109161050391889101614b5a565b60a06040518083038186803b15801561051b57600080fd5b505afa15801561052f573d6000803e3d6000fd5b505050506040513d601f19601f8201168201806040525061055391908101906142fa565b83611127565b60000390506104148183856111f2565b61042582826115c3565b606061057d61079a565b905060005b815181101561042557600082828151811061059957fe5b602002602001015190506000600260009054906101000a90046001600160a01b03166001600160a01b031663dacb2d0183846040516020016105db9190614b23565b6040516020818303038152906040526040518363ffffffff1660e01b8152600401610607929190614c84565b60206040518083038186803b15801561061f57600080fd5b505afa158015610633573d6000803e3d6000fd5b505050506040513d601f19601f8201168201806040525061065791908101906141be565b6000838152600360205260409081902080546001600160a01b0319166001600160a01b038416179055519091507f88a93678a3692f6789d9546fc621bf7234b101ddb7d4fe479455112831b8aa68906106b39084908490614c33565b60405180910390a15050600101610582565b6001546001600160a01b031633146106ef5760405162461bcd60e51b815260040161047c90614db7565b6000546001546040517fb532073b38c83145e3e5135377a08bf9aab55bc0fd7c1179cd4fb995d2a5159c92610732926001600160a01b0391821692911690614b76565b60405180910390a160018054600080546001600160a01b03199081166001600160a01b03841617909155169055565b610769610f04565b60006107756000610f2e565b905061078081610cb6565b5060075461042590839083906001600160a01b03166111f2565b6060806107a561178f565b6040805160078082526101008201909252919250606091906020820160e0803883390190505090506822bc31b430b733b2b960b91b816000815181106107e757fe5b6020026020010181815250506c45786368616e6765526174657360981b8160018151811061081157fe5b6020026020010181815250506b53797374656d53746174757360a01b8160028151811061083a57fe5b60200260200101818152505073233aba3ab932b9a6b0b935b2ba26b0b730b3b2b960611b8160038151811061086b57fe5b60200260200101818152505060008051602061506f8339815191528160048151811061089357fe5b602002602001018181525050725065727073563245786368616e67655261746560681b816005815181106108c357fe5b6020026020010181815250506e466c657869626c6553746f7261676560881b816006815181106108ef57fe5b60200260200101818152505061048e82826117e0565b6000546001600160a01b031681565b61091c6109bd565b600680546001600160a01b0319166001600160a01b0383161790556040517ffc80377ca9c49cc11ae6982f390a42db976d5530af7c43889264b13fbbd7c57e906102e6908390614b68565b6109728160006115c3565b50565b61097d610f04565b600780546001600160a01b0319166001600160a01b0392909216919091179055565b6007546001600160a01b031681565b6006546001600160a01b031681565b6000546001600160a01b031633146109e75760405162461bcd60e51b815260040161047c90614e27565b565b6109f1610f04565b6004805460075460405163645c04d560e11b81526001600160a01b039283169363c8b809aa93610a2393169101614b5a565b6101206040518083038186803b158015610a3c57600080fd5b505afa158015610a50573d6000803e3d6000fd5b505050506040513d601f19601f82011682018060405250610a7491908101906142db565b60200151600f0b15610a985760405162461bcd60e51b815260040161047c90614dc7565b6000610aa46000610f2e565b9050610aaf81610cb6565b506007546040805160e08101825286815260208101849052610b1e926001600160a01b0316918101610ae1888661189c565b8152602001868152602001610afc610af76119ce565b611a56565b8152602001610b11610b0c6119ce565b611a6d565b8152602001859052611a84565b50505050565b6000610b3d60008051602061506f833981519152612197565b905090565b8115610425576005600082600f811115610b5857fe5b60ff1660ff16815260200190815260200160002060405162461bcd60e51b815260040161047c9190614da6565b600080610b906121f4565b6001600160a01b0316630c71cd23610ba661220f565b6040518263ffffffff1660e01b8152600401610bc29190614c25565b604080518083038186803b158015610bd957600080fd5b505afa158015610bed573d6000803e3d6000fd5b505050506040513d601f19601f82011682018060405250610c119190810190614336565b90925090508080610c20575081155b80610cb05750610c2e61225f565b6001600160a01b0316632ed0ab44610c4461220f565b6040518263ffffffff1660e01b8152600401610c609190614c25565b60206040518083038186803b158015610c7857600080fd5b505afa158015610c8c573d6000803e3d6000fd5b505050506040513d601f19601f82011682018060405250610cb091908101906141dc565b90509091565b60048054604080516366f6867560e11b8152905160009384936001600160a01b03169263cded0cea9281830192602092829003018186803b158015610cfa57600080fd5b505afa158015610d0e573d6000803e3d6000fd5b505050506040513d601f19601f82011682018060405250610d3291908101906141fa565b90506000610d3e612279565b90506000610d4b856122df565b60048054604051637e35d8f960e11b81529293506001600160a01b03169163fc6bb1f291610d7b91859101614d87565b600060405180830381600087803b158015610d9557600080fd5b505af1158015610da9573d6000803e3d6000fd5b505060048054604051634af3b2b160e11b81526001600160a01b0390911693506395e765629250610ddc91429101614f0d565b600060405180830381600087803b158015610df657600080fd5b505af1158015610e0a573d6000803e3d6000fd5b5050600480546040516315e88f9160e11b81526001600160a01b039091169350632bd11f229250610e3d91869101614d87565b600060405180830381600087803b158015610e5757600080fd5b505af1158015610e6b573d6000803e3d6000fd5b505060048054604080516313dcd11b60e11b81529051610efb9550869450879389936001600160a01b0316926327b9a2369281830192602092829003018186803b158015610eb857600080fd5b505afa158015610ecc573d6000803e3d6000fd5b505050506040513d601f19601f82011682018060405250610ef091908101906143a9565b63ffffffff1661233a565b50909392505050565b6006546001600160a01b031633146109e75760405162461bcd60e51b815260040161047c90614e67565b6000610f3861225f565b6001600160a01b031663856aae6c610f4e6119ce565b6040518263ffffffff1660e01b8152600401610f6a9190614c25565b60006040518083038186803b158015610f8257600080fd5b505afa158015610f96573d6000803e3d6000fd5b50505050610fa261225f565b6001600160a01b03166325ceaf66610fb861220f565b6040518263ffffffff1660e01b8152600401610fd49190614c25565b60006040518083038186803b158015610fec57600080fd5b505afa158015611000573d6000803e3d6000fd5b50505050811561107d5761101261225f565b6001600160a01b031663856aae6c61103061102b6119ce565b6123ea565b6040518263ffffffff1660e01b815260040161104c9190614c25565b60006040518083038186803b15801561106457600080fd5b505afa158015611078573d6000803e3d6000fd5b505050505b600080600061108a6121f4565b6001600160a01b031663045056f86110a061220f565b6040518263ffffffff1660e01b81526004016110bc9190614c25565b606060405180830381600087803b1580156110d657600080fd5b505af11580156110ea573d6000803e3d6000fd5b505050506040513d601f19601f8201168201806040525061110e9190810190614366565b925092509250610efb82806111205750815b6001610b42565b600066038d7ea4c6800081611152826111466111416119ce565b6124bb565b9063ffffffff6124d516565b9050600061117f61117a8361116e8960800151600f0b896124fd565b9063ffffffff61251616565b612540565b905080156111b357600061119161254b565b90508082101561119f578091505b6111af828563ffffffff6125c816565b9150505b60006111bf87876125ed565b90508181116111d55760009450505050506111ec565b6111e5818363ffffffff6124d516565b9450505050505b92915050565b6004805460405163fef48a9960e01b815283926001600160a01b039092169163fef48a999161122391859101614b5a565b60206040518083038186803b15801561123b57600080fd5b505afa15801561124f573d6000803e3d6000fd5b505050506040513d601f19601f8201168201806040525061127391908101906141dc565b156112835760056000600e610b58565b6004805460075460405163645c04d560e11b81526001600160a01b039283169363c8b809aa936112b593169101614b5a565b6101206040518083038186803b1580156112ce57600080fd5b505afa1580156112e2573d6000803e3d6000fd5b505050506040513d601f19601f8201168201806040525061130691908101906142db565b60200151600f0b1561132a5760405162461bcd60e51b815260040161047c90614dc7565b600061133585612540565b905060008513156113dc57600061134a61260f565b6001600160a01b031663d5b8935b85846040518363ffffffff1660e01b8152600401611377929190614b91565b602060405180830381600087803b15801561139157600080fd5b505af11580156113a5573d6000803e3d6000fd5b505050506040513d601f19601f820116820180604052506113c991908101906141fa565b90508181146113d6578095505b50611457565b6000851215611451576113ed61260f565b6001600160a01b0316630689db7a84836040518363ffffffff1660e01b815260040161141a929190614b91565b600060405180830381600087803b15801561143457600080fd5b505af1158015611448573d6000803e3d6000fd5b50505050611457565b50610b1e565b61145f613fb5565b6004805460405163055f575160e41b81526001600160a01b03909116916355f575109161148e91889101614b5a565b60a06040518083038186803b1580156114a657600080fd5b505afa1580156114ba573d6000803e3d6000fd5b505050506040513d601f19601f820116820180604052506114de91908101906142fa565b90506114ee84826000888a612631565b6114f884876128d9565b6115bb81600001516001600160401b03168583604001516001600160801b03168460800151600f0b60008a61152b61297f565b6000600460009054906101000a90046001600160a01b03166001600160a01b0316632b58ecef6040518163ffffffff1660e01b815260040160206040518083038186803b15801561157b57600080fd5b505afa15801561158f573d6000803e3d6000fd5b505050506040513d601f19601f820116820180604052506115b39190810190614218565b600f0b612a0c565b505050505050565b6115cb610f04565b6004805460075460405163645c04d560e11b81526001600160a01b039283169363c8b809aa936115fd93169101614b5a565b6101206040518083038186803b15801561161657600080fd5b505afa15801561162a573d6000803e3d6000fd5b505050506040513d601f19601f8201168201806040525061164e91908101906142db565b60200151600f0b156116725760405162461bcd60e51b815260040161047c90614dc7565b6004805460075460405163055f575160e41b81526000936001600160a01b03938416936355f57510936116a89391169101614b5a565b60a06040518083038186803b1580156116c057600080fd5b505afa1580156116d4573d6000803e3d6000fd5b505050506040513d601f19601f820116820180604052506116f891908101906142fa565b60800151600f0b905061170d8115600b610b42565b60006117196000610f2e565b905061172481610cb6565b506007546040805160e081018252600085900380825260208201859052610b1e936001600160a01b03169282019061175c908661189c565b8152602001878152602001611772610af76119ce565b8152602001611782610b0c6119ce565b8152602001869052611a84565b604080516001808252818301909252606091602080830190803883390190505090506e466c657869626c6553746f7261676560881b816000815181106117d157fe5b60200260200101818152505090565b60608151835101604051908082528060200260200182016040528015611810578160200160208202803883390190505b50905060005b83518110156118525783818151811061182b57fe5b602002602001015182828151811061183f57fe5b6020908102919091010152600101611816565b5060005b82518110156118955782818151811061186b57fe5b602002602001015182828651018151811061188257fe5b6020908102919091010152600101611856565b5092915050565b6004805460408051632b58ecef60e01b8152905160009384936001600160a01b031692632b58ecef9281830192602092829003018186803b1580156118e057600080fd5b505afa1580156118f4573d6000803e3d6000fd5b505050506040513d601f19601f820116820180604052506119189190810190614218565b600f0b9050600061192f61192a6119ce565b612a91565b90506000611943838363ffffffff61251616565b9050600061195b8361116e868a63ffffffff612aa916565b9050600061197f611972888563ffffffff612aef16565b889063ffffffff612aa916565b905060006119a3611996898563ffffffff612aef16565b899063ffffffff612aa916565b90506119c1671bc16d674ec8000061116e848463ffffffff612aa916565b9998505050505050505050565b6000600460009054906101000a90046001600160a01b03166001600160a01b031663d7103a466040518163ffffffff1660e01b815260040160206040518083038186803b158015611a1e57600080fd5b505afa158015611a32573d6000803e3d6000fd5b505050506040513d601f19601f82011682018060405250610b3d91908101906141fa565b60006111ec826774616b657246656560c01b612b19565b60006111ec82676d616b657246656560c01b612b19565b6004805460405163fef48a9960e01b815284926001600160a01b039092169163fef48a9991611ab591859101614b5a565b60206040518083038186803b158015611acd57600080fd5b505afa158015611ae1573d6000803e3d6000fd5b505050506040513d601f19601f82011682018060405250611b0591908101906141dc565b15611b155760056000600e610b58565b611b1d613fb5565b6004805460405163055f575160e41b81526001600160a01b03909116916355f5751091611b4c91889101614b5a565b60a06040518083038186803b158015611b6457600080fd5b505afa158015611b78573d6000803e3d6000fd5b505050506040513d601f19601f82011682018060405250611b9c91908101906142fa565b9050611ba6613fb5565b6040518060a0016040528083600001516001600160401b0316815260200183602001516001600160401b0316815260200183604001516001600160801b0316815260200183606001516001600160801b031681526020018360800151600f0b8152509050611c12613fb5565b600080611c1f8488612bd6565b925092509250611c2e81612ebe565b611c45876040015188606001518960000151612edc565b50600480546080808701519086015160408051632b58ecef60e01b815290516001600160a01b039094169463b545f71294611cfe94600f90810b94611cf294910b928892632b58ecef928083019260209291829003018186803b158015611cab57600080fd5b505afa158015611cbf573d6000803e3d6000fd5b505050506040513d601f19601f82011682018060405250611ce39190810190614218565b600f0b9063ffffffff612aa916565b9063ffffffff612f0416565b6040518263ffffffff1660e01b8152600401611d1a9190614d87565b600060405180830381600087803b158015611d3457600080fd5b505af1158015611d48573d6000803e3d6000fd5b505060045460808701516001600160a01b03909116925063460af7a69150611e1890611d7690600f0b612540565b611146611d898860800151600f0b612540565b600480546040805163eb56105d60e01b815290516001600160a01b039092169263eb56105d928282019260209290829003018186803b158015611dcb57600080fd5b505afa158015611ddf573d6000803e3d6000fd5b505050506040513d601f19601f82011682018060405250611e039190810190614318565b6001600160801b03169063ffffffff6125c816565b6040518263ffffffff1660e01b8152600401611e349190614e97565b600060405180830381600087803b158015611e4e57600080fd5b505af1158015611e62573d6000803e3d6000fd5b505050508160001015611ed557611e7761260f565b6001600160a01b031663d289ade2836040518263ffffffff1660e01b8152600401611ea29190614c25565b600060405180830381600087803b158015611ebc57600080fd5b505af1158015611ed0573d6000803e3d6000fd5b505050505b60c087015115611eff57611eff8760c00151611eef61220f565b611ef76119ce565b8a5186612f4a565b6040808401516001600160801b031690860152611f1c8385612ffb565b83516000611f2861297f565b90508460800151600f0b60001415611f575760008088526080880181905260608801819052602088015261207c565b6080860151600f0b61204357600480546040805163899346c760e01b815290516001600160a01b039092169263899346c7928282019260209290829003018186803b158015611fa557600080fd5b505afa158015611fb9573d6000803e3d6000fd5b505050506040513d601f19601f82011682018060405250611fdd91908101906143c7565b60048054604051631dbad55160e31b81529294506001600160a01b03169163edd6aa889161201091600187019101614f29565b600060405180830381600087803b15801561202a57600080fd5b505af115801561203e573d6000803e3d6000fd5b505050505b6001600160401b038083168852608080870151600f90810b900b9089015260408a01516001600160801b03166060890152811660208801525b600460009054906101000a90046001600160a01b03166001600160a01b0316635af0d81f8b89600001518a602001518b604001518c606001518d608001516040518763ffffffff1660e01b81526004016120db96959493929190614bac565b600060405180830381600087803b1580156120f557600080fd5b505af1158015612109573d6000803e3d6000fd5b5050505061218b826001600160401b03168b87604001516001600160801b03168860800151600f0b8d600001518e60400151878b600460009054906101000a90046001600160a01b03166001600160a01b0316632b58ecef6040518163ffffffff1660e01b815260040160206040518083038186803b15801561157b57600080fd5b50505050505050505050565b60008181526003602090815260408083205490516001600160a01b0390911691821515916121c791869101614b03565b604051602081830303815290604052906118955760405162461bcd60e51b815260040161047c9190614d95565b6000610b3d6c45786368616e6765526174657360981b612197565b6000600460009054906101000a90046001600160a01b03166001600160a01b031663cdf456e16040518163ffffffff1660e01b815260040160206040518083038186803b158015611a1e57600080fd5b6000610b3d6b53797374656d53746174757360a01b612197565b6000610b3d61229d612289613089565b612291613130565b9063ffffffff612aef16565b6004805460408051637226426160e11b815290516001600160a01b039092169263e44c84c2928282019260209290829003018186803b158015611cab57600080fd5b60006111ec6122ed83613157565b6004546001600160a01b03166341108cf261230661297f565b6040518263ffffffff1660e01b81526004016123229190614c25565b60206040518083038186803b158015611cab57600080fd5b6006546040516001600160a01b039091169063907dff9790612366908790879087908790602001614c4f565b604051602081830303815290604052600160405161238390614b4f565b6040519081900381206001600160e01b031960e086901b1682526123b293929160009081908190600401614ca4565b600060405180830381600087803b1580156123cc57600080fd5b505af11580156123e0573d6000803e3d6000fd5b5050505050505050565b60006123f46131e4565b6001600160a01b031663f7833c5d60008051602061506f83398151915284706f6666636861696e4d61726b65744b657960781b604051602001612438929190614add565b604051602081830303815290604052805190602001206040518363ffffffff1660e01b815260040161246b929190614c41565b60206040518083038186803b15801561248357600080fd5b505afa158015612497573d6000803e3d6000fd5b505050506040513d601f19601f820116820180604052506111ec91908101906141fa565b60006111ec826a6d61784c6576657261676560a81b612b19565b6000828211156124f75760405162461bcd60e51b815260040161047c90614df7565b50900390565b600061250f838363ffffffff612aef16565b9392505050565b600061250f8261253485670de0b6b3a764000063ffffffff61320116565b9063ffffffff61326c16565b60006111ec826132d0565b60006125556131e4565b6001600160a01b03166323257c2b60008051602061506f8339815191527f706572707356324d696e496e697469616c4d617267696e0000000000000000006040518363ffffffff1660e01b81526004016125b0929190614c41565b60206040518083038186803b158015611a1e57600080fd5b60008282018381101561250f5760405162461bcd60e51b815260040161047c90614dd7565b6000806125fa84846132e6565b905061260760008261332c565b949350505050565b6000610b3d73233aba3ab932b9a6b0b935b2ba26b0b730b3b2b960611b612197565b612639613fb5565b5083600080612649838686613341565b9150915061265681612ebe565b600061266061297f565b905061271c6040518060a0016040528060006001600160401b03168152602001836001600160401b03168152602001856001600160801b03168152602001886001600160801b031681526020018a60800151600f0b8152506040518060a0016040528060006001600160401b031681526020018b602001516001600160401b031681526020018b604001516001600160801b031681526020018b606001516001600160801b031681526020018b60800151600f0b815250612ffb565b6001600160801b03831660408901526080880151600f0b1561283d576001600160801b03861660608901526001600160401b0381166020890152600085121561283d5760006127728960800151600f0b886133bc565b905060006127978261278b8c60800151600f0b8b613422565b9063ffffffff6125c816565b90506127a7818611156008610b42565b60808a01516000906127c290600f0b8b63ffffffff612aa916565b905060006127d78c60800151600f0b8361346c565b80156127f957506127ee8c60800151600f0b612540565b6127f783612540565b105b9050806128385761282461281161117a8e8d8b61348b565b61281c6111416119ce565b106007610b42565b61283861282f61254b565b88106008610b42565b505050505b600460009054906101000a90046001600160a01b03166001600160a01b0316635af0d81f8a8a600001518b602001518c604001518d606001518e608001516040518763ffffffff1660e01b815260040161289c96959493929190614bac565b600060405180830381600087803b1580156128b657600080fd5b505af11580156128ca573d6000803e3d6000fd5b50505050505050505050505050565b6006546040516001600160a01b039091169063907dff97906128ff908490602001614c25565b604051602081830303815290604052600260405161291c90614b44565b604051809103902061292d876134af565b6000806040518763ffffffff1660e01b815260040161295196959493929190614cf8565b600060405180830381600087803b15801561296b57600080fd5b505af11580156115bb573d6000803e3d6000fd5b6000610b3d6001600460009054906101000a90046001600160a01b03166001600160a01b031663cded0cea6040518163ffffffff1660e01b815260040160206040518083038186803b1580156129d457600080fd5b505afa1580156129e8573d6000803e3d6000fd5b505050506040513d601f19601f8201168201806040525061114691908101906141fa565b6006546040516001600160a01b039091169063907dff9790612a3e908a908a908a908a908a908a908a90602001614ea5565b6040516020818303038152906040526003604051612a5b90614b2e565b6040519081900390208d612a6e8e6134af565b60006040518763ffffffff1660e01b815260040161289c96959493929190614d32565b60006111ec8268736b65775363616c6560b81b612b19565b6000828201818312801590612abe5750838112155b80612ad35750600083128015612ad357508381125b61250f5760405162461bcd60e51b815260040161047c90614de7565b6000670de0b6b3a7640000612b0a848463ffffffff61320116565b81612b1157fe5b059392505050565b6000612b236131e4565b6001600160a01b03166323257c2b60008051602061506f8339815191528585604051602001612b53929190614add565b604051602081830303815290604052805190602001206040518363ffffffff1660e01b8152600401612b86929190614c41565b60206040518083038186803b158015612b9e57600080fd5b505afa158015612bb2573d6000803e3d6000fd5b505050506040513d601f19601f8201168201806040525061250f91908101906141fa565b612bde613fb5565b81516000908190612bf8575083915060009050600a612eb7565b612c068585602001516134bb565b15612c1a5750839150600090506004612eb7565b600080612c256134f9565b915091508015612c42575085935060009250600c9150612eb79050565b612c4c8683613596565b9350600080612c6389896040015188600003613341565b91509150612c7081613790565b15612c8757889650600095509350612eb792505050565b612c8f613fb5565b6040518060a001604052808b600001516001600160401b03168152602001612cb561297f565b6001600160401b03168152602001846001600160801b031681526020018a604001516001600160801b03168152602001612d038b600001518d60800151600f0b612aa990919063ffffffff16565b600f0b81525090506000612d258b60800151600f0b8360800151600f0b61346c565b8015612d4e5750612d3c8b60800151600f0b612540565b612d4c8360800151600f0b612540565b105b905080612d9857612d5d61254b565b6040830151612d7b906001600160801b03168a63ffffffff6125c816565b1015612d9857508997506000965060089550612eb7945050505050565b6000612daf8360800151600f0b8c602001516133bc565b90506000612dcc8261278b8660800151600f0b8f60200151613422565b9050808611612ded57509198506000975060049650612eb795505050505050565b6000612e20612e02888d63ffffffff6125c816565b61116e8f604001518860800151600f0b612aef90919063ffffffff16565b9050612e2b81612540565b612e41662386f26fc1000061278b6111416119ce565b1015612e6157508c9a506000995060079850612eb7975050505050505050565b50612e8a612e75612e706119ce565b6137a7565b8e60800151600f0b8660800151600f0b6137c4565b15612ea857508b99506000985060069750612eb79650505050505050565b50919850600096505050505050505b9250925092565b612ec781613790565b15610972576005600082600f811115610b5857fe5b6000612efc60008313612ef157838510612ef5565b8385115b600d610b42565b509192915050565b6000818303818312801590612f195750838113155b80612f2e5750600083128015612f2e57508381135b61250f5760405162461bcd60e51b815260040161047c90614e57565b6006546040516001600160a01b039091169063907dff9790612f76908790879087908790602001614c4f565b6040516020818303038152906040526002604051612f9390614b39565b6040519081900381206001600160e01b031960e086901b168252612fc29392918b906000908190600401614cf8565b600060405180830381600087803b158015612fdc57600080fd5b505af1158015612ff0573d6000803e3d6000fd5b505050505050505050565b6000613006836139ae565b90506000613013836139ae565b6004805460408051631169848560e11b815290519394506001600160a01b039091169263104d46f79261306d928692611cf292899288926322d3090a92828101926020929190829003018186803b158015611cab57600080fd5b6040518263ffffffff1660e01b81526004016123b29190614d87565b6000610b3d6201518061116e600460009054906101000a90046001600160a01b03166001600160a01b03166327b9a2366040518163ffffffff1660e01b815260040160206040518083038186803b1580156130e357600080fd5b505afa1580156130f7573d6000803e3d6000fd5b505050506040513d601f19601f8201168201806040525061311b91908101906143a9565b63ffffffff16426124d590919063ffffffff16565b60008061314361313e6119ce565b613a8b565b905061315181612291613aac565b91505090565b600080613162612279565b905060006131c36012600a0a60020261116e84600460009054906101000a90046001600160a01b03166001600160a01b031663e44c84c26040518163ffffffff1660e01b815260040160206040518083038186803b158015611cab57600080fd5b6000039050612607846122916131d7613089565b849063ffffffff612aef16565b6000610b3d6e466c657869626c6553746f7261676560881b612197565b600082613210575060006111ec565b826000191480156132245750600160ff1b82145b156132415760405162461bcd60e51b815260040161047c90614e47565b8282028284828161324e57fe5b051461250f5760405162461bcd60e51b815260040161047c90614e47565b60008161328b5760405162461bcd60e51b815260040161047c90614e87565b8160001914801561329f5750600160ff1b83145b156132bc5760405162461bcd60e51b815260040161047c90614e17565b60008284816132c757fe5b05949350505050565b60008082126132df57816111ec565b5060000390565b6000806132f38484613b6c565b9050612607816133206133068787613bbc565b60408801516001600160801b03169063ffffffff612aa916565b9063ffffffff612aa916565b600081831261333b578261250f565b50919050565b60008060006133548461332088886132e6565b9050600081121561336d575060009150600890506133b4565b60808601518190600f0b60006133838289613422565b905081158015906133945750808311155b156133a95782600495509550505050506133b4565b509093506000925050505b935093915050565b6000826133cb575060006111ec565b60006133da61117a85856124fd565b90506126076133ef6133ea6119ce565b613bfa565b6134168361341661340161192a6119ce565b61340a8a612540565b9063ffffffff613c2616565b9063ffffffff613c5016565b6000806134456134386134336119ce565b613c7a565b6134168561341688612540565b9050612607613452613c9f565b61278b61345f8787613cfb565b849063ffffffff6125c816565b6000821580613479575081155b8061250f575050600090811291131490565b60008161349a5750600061250f565b6126078261116e8660800151600f0b866124fd565b6001600160a01b031690565b60008260800151600f0b600014156134d5575060006111ec565b6134e68360800151600f0b83613422565b6134f08484613d4d565b11159392505050565b600080613504613d6e565b6001600160a01b031663c39def0b631a1554d160e21b61352261220f565b6040518363ffffffff1660e01b815260040161353f929190614c41565b604080518083038186803b15801561355657600080fd5b505afa15801561356a573d6000803e3d6000fd5b505050506040513d601f19601f8201168201806040525061358e9190810190614336565b915091509091565b6004805460408051632b58ecef60e01b8152905160009384936001600160a01b031692632b58ecef9281830192602092829003018186803b1580156135da57600080fd5b505afa1580156135ee573d6000803e3d6000fd5b505050506040513d601f19601f820116820180604052506136129190810190614218565b600f0b9050600061363485604001518660000151612aef90919063ffffffff16565b905060006136458561341684612540565b9050613657866000015184018461346c565b156137265760006136f083600460009054906101000a90046001600160a01b03166001600160a01b0316632b58ecef6040518163ffffffff1660e01b815260040160206040518083038186803b1580156136b057600080fd5b505afa1580156136c4573d6000803e3d6000fd5b505050506040513d601f19601f820116820180604052506136e89190810190614218565b600f0b61346c565b6136fe578660a00151613704565b86608001515b905061371961117a848363ffffffff612aef16565b82019450505050506111ec565b85516000906137429061117a908681019063ffffffff61251616565b90506000816012600a0a039050600061376689608001516134168561341689612540565b9050600061377f8a60a00151613416856134168a612540565b919094010198975050505050505050565b60008082600f81111561379f57fe5b141592915050565b60006111ec826d6d61784d61726b657456616c756560901b612b19565b60006137d0838361346c565b80156137ec57506137e083612540565b6137e983612540565b11155b156137f95750600061250f565b60006138988361332086600460009054906101000a90046001600160a01b03166001600160a01b0316632b58ecef6040518163ffffffff1660e01b815260040160206040518083038186803b15801561385157600080fd5b505afa158015613865573d6000803e3d6000fd5b505050506040513d601f19601f820116820180604052506138899190810190614218565b600f0b9063ffffffff612f0416565b905060006139436138a8856132d0565b6133206138b4886132d0565b600480546040805163eb56105d60e01b815290516001600160a01b039092169263eb56105d928282019260209290829003018186803b1580156138f657600080fd5b505afa15801561390a573d6000803e3d6000fd5b505050506040513d601f19601f8201168201806040525061392e9190810190614318565b6001600160801b03169063ffffffff612f0416565b90506000846000121561396757613960828463ffffffff612aa916565b905061397a565b613977828463ffffffff612f0416565b90505b61398e61117a82600263ffffffff61326c16565b8710156139a1576001935050505061250f565b5060009695505050505050565b600480546020830151604051632088467960e11b81526000936111ec93613a7193613a5d936001600160a01b03909216926341108cf2926139f0929101614f1b565b60206040518083038186803b158015613a0857600080fd5b505afa158015613a1c573d6000803e3d6000fd5b505050506040513d601f19601f82011682018060405250613a409190810190614218565b60608601516001600160801b031690600f0b63ffffffff612aa916565b6080850151600f0b9063ffffffff612aef16565b60408401516001600160801b03169063ffffffff612f0416565b60006111ec82716d617846756e64696e6756656c6f6369747960701b612b19565b600080613b46613abd61192a6119ce565b6004805460408051632b58ecef60e01b815290516001600160a01b0390921692632b58ecef928282019260209290829003018186803b158015613aff57600080fd5b505afa158015613b13573d6000803e3d6000fd5b505050506040513d601f19601f82011682018060405250613b379190810190614218565b600f0b9063ffffffff61251616565b9050613151613b5e670de0b6b3a763ffff198361332c565b670de0b6b3a7640000613d85565b60208201516000906001600160401b031680613b8c5760009150506111ec565b6000613b988285613d9b565b6080860151909150613bb390600f0b8263ffffffff612aef16565b95945050505050565b600080613bdf84606001516001600160801b031684612f0490919063ffffffff16565b608085015190915061260790600f0b8263ffffffff612aef16565b60006111ec827f6c69717569646174696f6e5072656d69756d4d756c7469706c69657200000000612b19565b600061250f82613c4485670de0b6b3a764000063ffffffff613e2b16565b9063ffffffff613e6516565b6000670de0b6b3a7640000613c6b848463ffffffff613e2b16565b81613c7257fe5b049392505050565b60006111ec82756c69717569646174696f6e427566666572526174696f60501b612b19565b6000613ca96131e4565b6001600160a01b03166323257c2b60008051602061506f833981519152736b65657065724c69717569646174696f6e46656560601b6040518363ffffffff1660e01b81526004016125b0929190614c41565b600080613d09613438613e9a565b90506000613d15613eff565b90506000818311613d265782613d28565b815b90506000613d34613f5a565b9050808211613d4357806111e5565b5095945050505050565b6000806125fa613d648560800151600f0b856133bc565b611cf286866132e6565b6000610b3d6822bc31b430b733b2b960b91b612197565b6000818312613d94578161250f565b5090919050565b60048054604051632088467960e11b815260009261250f926001600160a01b0316916341108cf291613dcf91889101614c25565b60206040518083038186803b158015613de757600080fd5b505afa158015613dfb573d6000803e3d6000fd5b505050506040513d601f19601f82011682018060405250613e1f9190810190614218565b600f0b611cf2846122df565b600082613e3a575060006111ec565b82820282848281613e4757fe5b041461250f5760405162461bcd60e51b815260040161047c90614e37565b6000808211613e865760405162461bcd60e51b815260040161047c90614e07565b6000828481613e9157fe5b04949350505050565b6000613ea46131e4565b6001600160a01b03166323257c2b60008051602061506f8339815191527f706572707356324c69717569646174696f6e466565526174696f0000000000006040518363ffffffff1660e01b81526004016125b0929190614c41565b6000613f096131e4565b6001600160a01b03166323257c2b60008051602061506f83398151915272706572707356324d61784b656570657246656560681b6040518363ffffffff1660e01b81526004016125b0929190614c41565b6000613f646131e4565b6001600160a01b03166323257c2b60008051602061506f83398151915272706572707356324d696e4b656570657246656560681b6040518363ffffffff1660e01b81526004016125b0929190614c41565b6040805160a08101825260008082526020820181905291810182905260608101829052608081019190915290565b80356111ec81615024565b80516111ec81615024565b80516111ec81615038565b80356111ec81615041565b80516111ec81615041565b80516111ec8161504a565b6000610120828403121561403857600080fd5b614043610120614f37565b905060006140518484613ff9565b82525060206140628484830161401a565b60208301525060406140768482850161417f565b604083015250606061408a8482850161417f565b606083015250608061409e8482850161417f565b60808301525060a06140b28482850161417f565b60a08301525060c06140c68482850161400f565b60c08301525060e06140da8482850161400f565b60e0830152506101006140ef8482850161400f565b6101008301525092915050565b600060a0828403121561410e57600080fd5b61411860a0614f37565b905060006141268484614195565b825250602061413784848301614195565b602083015250604061414b8482850161417f565b604083015250606061415f8482850161417f565b60608301525060806141738482850161401a565b60808301525092915050565b80516111ec81615053565b80516111ec8161505c565b80516111ec81615065565b6000602082840312156141b257600080fd5b60006126078484613fe3565b6000602082840312156141d057600080fd5b60006126078484613fee565b6000602082840312156141ee57600080fd5b60006126078484613ff9565b60006020828403121561420c57600080fd5b6000612607848461400f565b60006020828403121561422a57600080fd5b6000612607848461401a565b60006020828403121561424857600080fd5b60006126078484614004565b6000806040838503121561426757600080fd5b60006142738585614004565b925050602061428485828601614004565b9150509250929050565b6000806000606084860312156142a357600080fd5b60006142af8686614004565b93505060206142c086828701614004565b92505060406142d186828701614004565b9150509250925092565b600061012082840312156142ee57600080fd5b60006126078484614025565b600060a0828403121561430c57600080fd5b600061260784846140fc565b60006020828403121561432a57600080fd5b6000612607848461417f565b6000806040838503121561434957600080fd5b6000614355858561400f565b925050602061428485828601613ff9565b60008060006060848603121561437b57600080fd5b6000614387868661400f565b935050602061439886828701613ff9565b92505060406142d186828701613ff9565b6000602082840312156143bb57600080fd5b6000612607848461418a565b6000602082840312156143d957600080fd5b60006126078484614195565b60006143f18383614473565b505060200190565b61440281614fb8565b82525050565b61440281614f81565b600061441c82614f6f565b6144268185614f73565b935061443183614f5d565b8060005b8381101561445f57815161444988826143e5565b975061445483614f5d565b925050600101614435565b509495945050505050565b61440281614f8c565b61440281610406565b61440261448882610406565b610406565b600061449882614f6f565b6144a28185614f73565b93506144b2818560208601614fee565b6144bb8161501a565b9093019392505050565b61440281614fbf565b61440281614f91565b61440281614fca565b61440281614fd8565b600081546001811660008114614506576001811461452c5761456b565b607f60028304166145178187614f73565b60ff198416815295505060208501925061456b565b6002820461453a8187614f73565b955061454585614f63565b60005b8281101561456457815488820152600190910190602001614548565b8701945050505b505092915050565b6000614580603583614f73565b7f596f75206d757374206265206e6f6d696e61746564206265666f726520796f7581527402063616e20616363657074206f776e65727368697605c1b602082015260400192915050565b60006145d7601483614f73565b7350656e64696e67206f726465722065786973747360601b815260200192915050565b6000614607601b83614f73565b7f536166654d6174683a206164646974696f6e206f766572666c6f770000000000815260200192915050565b6000614640602183614f73565b7f5369676e6564536166654d6174683a206164646974696f6e206f766572666c6f8152607760f81b602082015260400192915050565b6000614683601e83614f73565b7f536166654d6174683a207375627472616374696f6e206f766572666c6f770000815260200192915050565b60006146bc601a83614f73565b7f536166654d6174683a206469766973696f6e206279207a65726f000000000000815260200192915050565b60006146f5601183614f7c565b70026b4b9b9b4b7339030b2323932b9b99d1607d1b815260110192915050565b6000614722602183614f73565b7f5369676e6564536166654d6174683a206469766973696f6e206f766572666c6f8152607760f81b602082015260400192915050565b6000614765602f83614f73565b7f4f6e6c792074686520636f6e7472616374206f776e6572206d6179207065726681526e37b936903a3434b99030b1ba34b7b760891b602082015260400192915050565b60006147b6602183614f73565b7f536166654d6174683a206d756c7469706c69636174696f6e206f766572666c6f8152607760f81b602082015260400192915050565b60006147f9602783614f73565b7f5369676e6564536166654d6174683a206d756c7469706c69636174696f6e206f815266766572666c6f7760c81b602082015260400192915050565b6000614842601983614f7c565b7f5265736f6c766572206d697373696e67207461726765743a2000000000000000815260190192915050565b600061487b605683614f7c565b7f506f736974696f6e4d6f6469666965642875696e743235362c6164647265737381527f2c75696e743235362c696e743235362c696e743235362c75696e743235362c75602082015275696e743235362c75696e743235362c696e743235362960501b604082015260560192915050565b60006148f9603583614f7c565b7f5065727073547261636b696e6728627974657333322c627974657333322c627981527474657333322c696e743235362c75696e743235362960581b602082015260350192915050565b6000614950602483614f73565b7f5369676e6564536166654d6174683a207375627472616374696f6e206f766572815263666c6f7760e01b602082015260400192915050565b6000614996602183614f7c565b7f4d617267696e5472616e7366657272656428616464726573732c696e743235368152602960f81b602082015260210192915050565b60006149d9601783614f73565b7f4f6e6c79207468652070726f78792063616e2063616c6c000000000000000000815260200192915050565b6000614a12600d83614f73565b6c496e76616c696420707269636560981b815260200192915050565b6000614a3b602083614f73565b7f5369676e6564536166654d6174683a206469766973696f6e206279207a65726f815260200192915050565b6000614a74603083614f7c565b7f46756e64696e675265636f6d707574656428696e743235362c696e743235362c81526f75696e743235362c75696e743235362960801b602082015260300192915050565b61440281614f97565b61440281614fa3565b61440281614fe3565b61440281614fac565b6000614ae9828561447c565b602082019150614af9828461447c565b5060200192915050565b6000614b0e826146e8565b9150614b1a828461447c565b50602001919050565b6000614b0e82614835565b60006111ec8261486e565b60006111ec826148ec565b60006111ec82614989565b60006111ec82614a67565b602081016111ec8284614408565b602081016111ec82846143f9565b60408101614b848285614408565b61250f6020830184614408565b60408101614b9f8285614408565b61250f6020830184614473565b60c08101614bba8289614408565b614bc76020830188614ad4565b614bd46040830187614ad4565b614be16060830186614ab9565b614bee6080830185614ab9565b614bfb60a08301846144ce565b979650505050505050565b6020808252810161250f8184614411565b602081016111ec828461446a565b602081016111ec8284614473565b60408101614b848285614473565b60408101614b9f8285614473565b60808101614c5d8287614473565b614c6a6020830186614473565b614c776040830185614473565b613bb36060830184614473565b60408101614c928285614473565b8181036020830152612607818461448d565b60c08082528101614cb5818961448d565b9050614cc460208301886144e0565b614cd16040830187614473565b614cde60608301866144d7565b614ceb60808301856144d7565b614bfb60a08301846144d7565b60c08082528101614d09818961448d565b9050614d1860208301886144e0565b614d256040830187614473565b614cde6060830186614473565b60c08082528101614d43818961448d565b9050614d5260208301886144e0565b614d5f6040830187614473565b614d6c6060830186614473565b614ceb6080830185614473565b602081016111ec82846144c5565b602081016111ec82846144ce565b6020808252810161250f818461448d565b6020808252810161250f81846144e9565b602080825281016111ec81614573565b602080825281016111ec816145ca565b602080825281016111ec816145fa565b602080825281016111ec81614633565b602080825281016111ec81614676565b602080825281016111ec816146af565b602080825281016111ec81614715565b602080825281016111ec81614758565b602080825281016111ec816147a9565b602080825281016111ec816147ec565b602080825281016111ec81614943565b602080825281016111ec816149cc565b602080825281016111ec81614a05565b602080825281016111ec81614a2e565b602081016111ec8284614ab9565b60e08101614eb3828a614473565b614ec06020830189614473565b614ecd6040830188614473565b614eda6060830187614473565b614ee76080830186614473565b614ef460a0830185614473565b614f0160c0830184614473565b98975050505050505050565b602081016111ec8284614ac2565b602081016111ec8284614acb565b602081016111ec8284614ad4565b6040518181016001600160401b0381118282101715614f5557600080fd5b604052919050565b60200190565b60009081526020902090565b5190565b90815260200190565b919050565b60006111ec826134af565b151590565b600f0b90565b6001600160801b031690565b63ffffffff1690565b6001600160401b031690565b60006111ec825b60006111ec82614f81565b60006111ec61448883610406565b60006111ec82610406565b60006111ec82614fac565b60005b83811015615009578181015183820152602001614ff1565b83811115610b1e5750506000910152565b601f01601f191690565b61502d81614f81565b811461097257600080fd5b61502d81614f8c565b61502d81610406565b61502d81614f91565b61502d81614f97565b61502d81614fa3565b61502d81614fac56fe506572707356324d61726b657453657474696e67730000000000000000000000a365627a7a72315820a0e845fc6bb3e686b44d4b64f13bdd709f4e9812ed45e8de29c08290ec5c4ac86c6578706572696d656e74616cf564736f6c63430005110040",
			"opcodes": "PUSH1 0x80 PUSH1 0x40 MSTORE CALLVALUE DUP1 ISZERO PUSH3 0x11 JUMPI PUSH1 0x0 DUP1 REVERT JUMPDEST POP PUSH1 0x40 MLOAD PUSH3 0x5B09 CODESIZE SUB DUP1 PUSH3 0x5B09 DUP4 CODECOPY DUP2 ADD PUSH1 0x40 DUP2 SWAP1 MSTORE PUSH3 0x34 SWAP2 PUSH3 0x895 JUMP JUMPDEST DUP4 DUP4 DUP4 DUP4 DUP4 DUP4 DUP4 DUP4 DUP1 DUP1 DUP4 PUSH1 0x1 PUSH1 0x1 PUSH1 0xA0 SHL SUB DUP2 AND PUSH3 0x71 JUMPI PUSH1 0x40 MLOAD PUSH3 0x461BCD PUSH1 0xE5 SHL DUP2 MSTORE PUSH1 0x4 ADD PUSH3 0x68 SWAP1 PUSH3 0x9CD JUMP JUMPDEST PUSH1 0x40 MLOAD DUP1 SWAP2 SUB SWAP1 REVERT JUMPDEST PUSH1 0x0 DUP1 SLOAD PUSH1 0x1 PUSH1 0x1 PUSH1 0xA0 SHL SUB NOT AND PUSH1 0x1 PUSH1 0x1 PUSH1 0xA0 SHL SUB DUP4 AND OR DUP2 SSTORE PUSH1 0x40 MLOAD PUSH32 0xB532073B38C83145E3E5135377A08BF9AAB55BC0FD7C1179CD4FB995D2A5159C SWAP2 PUSH3 0xBE SWAP2 DUP5 SWAP1 PUSH3 0x995 JUMP JUMPDEST PUSH1 0x40 MLOAD DUP1 SWAP2 SUB SWAP1 LOG1 POP PUSH1 0x2 DUP1 SLOAD PUSH1 0x1 PUSH1 0x1 PUSH1 0xA0 SHL SUB NOT SWAP1 DUP2 AND PUSH1 0x1 PUSH1 0x1 PUSH1 0xA0 SHL SUB SWAP4 DUP5 AND OR SWAP1 SWAP2 SSTORE PUSH1 0x4 DUP1 SLOAD SWAP1 SWAP2 AND SWAP2 DUP7 AND SWAP2 SWAP1 SWAP2 OR SWAP1 SSTORE POP PUSH1 0x40 DUP1 MLOAD DUP1 DUP3 ADD SWAP1 SWAP2 MSTORE PUSH1 0xD DUP2 MSTORE PUSH13 0x496E76616C6964207072696365 PUSH1 0x98 SHL PUSH1 0x20 DUP1 DUP4 ADD SWAP2 DUP3 MSTORE PUSH1 0x1 PUSH1 0x0 MSTORE PUSH1 0x5 SWAP1 MSTORE SWAP1 MLOAD PUSH3 0x156 SWAP2 PUSH32 0x1471EB6EB2C5E789FC3DE43F8CE62938C7D1836EC861730447E2ADA8FD81017B SWAP2 PUSH3 0x7DD JUMP JUMPDEST POP PUSH1 0x40 DUP1 MLOAD DUP1 DUP3 ADD SWAP1 SWAP2 MSTORE PUSH1 0x12 DUP2 MSTORE PUSH18 0x496E76616C6964206F726465722074797065 PUSH1 0x70 SHL PUSH1 0x20 DUP1 DUP4 ADD SWAP2 DUP3 MSTORE PUSH1 0x2 PUSH1 0x0 MSTORE PUSH1 0x5 SWAP1 MSTORE SWAP1 MLOAD PUSH3 0x1BB SWAP2 PUSH32 0x89832631FB3C3307A103BA2C84AB569C64D6182A18893DCD163F0F1C2090733A SWAP2 PUSH3 0x7DD JUMP JUMPDEST POP PUSH1 0x40 DUP1 MLOAD DUP1 DUP3 ADD SWAP1 SWAP2 MSTORE PUSH1 0x1D DUP2 MSTORE PUSH32 0x5072696365206F7574206F662061636365707461626C652072616E6765000000 PUSH1 0x20 DUP1 DUP4 ADD SWAP2 DUP3 MSTORE PUSH1 0x3 PUSH1 0x0 MSTORE PUSH1 0x5 SWAP1 MSTORE SWAP1 MLOAD PUSH3 0x22B SWAP2 PUSH32 0xA9BC9A3A348C357BA16B37005D7E6B3236198C0E939F4AF8C5F19B8DEEB8EBC0 SWAP2 PUSH3 0x7DD JUMP JUMPDEST POP PUSH1 0x40 DUP1 MLOAD DUP1 DUP3 ADD SWAP1 SWAP2 MSTORE PUSH1 0x1A DUP2 MSTORE PUSH32 0x506F736974696F6E2063616E206265206C697175696461746564000000000000 PUSH1 0x20 DUP1 DUP4 ADD SWAP2 DUP3 MSTORE PUSH1 0x4 PUSH1 0x0 MSTORE PUSH1 0x5 SWAP1 MSTORE SWAP1 MLOAD PUSH3 0x29B SWAP2 PUSH32 0x3EEC716F11BA9E820C81CA75EB978FFB45831EF8B7A53E5E422C26008E1CA6D5 SWAP2 PUSH3 0x7DD JUMP JUMPDEST POP PUSH1 0x40 DUP1 MLOAD DUP1 DUP3 ADD SWAP1 SWAP2 MSTORE PUSH1 0x1D DUP2 MSTORE PUSH32 0x506F736974696F6E2063616E6E6F74206265206C697175696461746564000000 PUSH1 0x20 DUP1 DUP4 ADD SWAP2 DUP3 MSTORE PUSH1 0x5 PUSH1 0x0 DUP2 SWAP1 MSTORE SWAP1 MSTORE SWAP1 MLOAD PUSH3 0x30B SWAP2 PUSH32 0x458B30C2D72BFD2C6317304A4594ECBAFE5F729D3111B65FDC3A33BD48E5432D SWAP2 PUSH3 0x7DD JUMP JUMPDEST POP PUSH1 0x40 DUP1 MLOAD DUP1 DUP3 ADD SWAP1 SWAP2 MSTORE PUSH1 0x18 DUP2 MSTORE PUSH32 0x4D6178206D61726B65742073697A652065786365656465640000000000000000 PUSH1 0x20 DUP1 DUP4 ADD SWAP2 DUP3 MSTORE PUSH1 0x6 PUSH1 0x0 MSTORE PUSH1 0x5 SWAP1 MSTORE SWAP1 MLOAD PUSH3 0x37B SWAP2 PUSH32 0x69400F22B28C6C362558D92F66163CEC5671CBA50B61ABD2EECFCD0EAEAC518 SWAP2 PUSH3 0x7DD JUMP JUMPDEST POP PUSH1 0x40 DUP1 MLOAD DUP1 DUP3 ADD SWAP1 SWAP2 MSTORE PUSH1 0x15 DUP2 MSTORE PUSH32 0x4D6178206C657665726167652065786365656465640000000000000000000000 PUSH1 0x20 DUP1 DUP4 ADD SWAP2 DUP3 MSTORE PUSH1 0x7 PUSH1 0x0 MSTORE PUSH1 0x5 SWAP1 MSTORE SWAP1 MLOAD PUSH3 0x3EB SWAP2 PUSH32 0xEDDB6698D7C569FF62FF64F1F1492BF14A54594835BA0FAAC91F84B4F5D81460 SWAP2 PUSH3 0x7DD JUMP JUMPDEST POP PUSH1 0x40 DUP1 MLOAD DUP1 DUP3 ADD SWAP1 SWAP2 MSTORE PUSH1 0x13 DUP2 MSTORE PUSH32 0x496E73756666696369656E74206D617267696E00000000000000000000000000 PUSH1 0x20 DUP1 DUP4 ADD SWAP2 DUP3 MSTORE PUSH1 0x8 PUSH1 0x0 MSTORE PUSH1 0x5 SWAP1 MSTORE SWAP1 MLOAD PUSH3 0x45B SWAP2 PUSH32 0xFB33122AA9F93CC639EBE80A7BC4784C11E6053DDE89C6F4F7E268C6A623DA1E SWAP2 PUSH3 0x7DD JUMP JUMPDEST POP PUSH1 0x40 DUP1 MLOAD DUP1 DUP3 ADD SWAP1 SWAP2 MSTORE PUSH1 0x1D DUP2 MSTORE PUSH32 0x4E6F74207065726D697474656420627920746869732061646472657373000000 PUSH1 0x20 DUP1 DUP4 ADD SWAP2 DUP3 MSTORE PUSH1 0x9 PUSH1 0x0 MSTORE PUSH1 0x5 SWAP1 MSTORE SWAP1 MLOAD PUSH3 0x4CB SWAP2 PUSH32 0xC0A4A8BE475DFEBC377EBEF2D7C4FF47656F572A08DD92B81017EFCDBA0FEBE1 SWAP2 PUSH3 0x7DD JUMP JUMPDEST POP PUSH1 0x40 DUP1 MLOAD DUP1 DUP3 ADD SWAP1 SWAP2 MSTORE PUSH1 0x19 DUP2 MSTORE PUSH32 0x43616E6E6F74207375626D697420656D707479206F7264657200000000000000 PUSH1 0x20 DUP1 DUP4 ADD SWAP2 DUP3 MSTORE PUSH1 0xA PUSH1 0x0 MSTORE PUSH1 0x5 SWAP1 MSTORE SWAP1 MLOAD PUSH3 0x53B SWAP2 PUSH32 0xA18B128AF1C8FC61FF46F02D146E54546F34D340574CF2CEF6A753CBA6B6701D SWAP2 PUSH3 0x7DD JUMP JUMPDEST POP PUSH1 0x40 DUP1 MLOAD DUP1 DUP3 ADD SWAP1 SWAP2 MSTORE PUSH1 0x10 DUP2 MSTORE PUSH16 0x2737903837B9B4BA34B7B71037B832B7 PUSH1 0x81 SHL PUSH1 0x20 DUP1 DUP4 ADD SWAP2 DUP3 MSTORE PUSH1 0xB PUSH1 0x0 MSTORE PUSH1 0x5 SWAP1 MSTORE SWAP1 MLOAD PUSH3 0x59E SWAP2 PUSH32 0x40F28F99A40BC9F6BEEA1013AFDBC3CDCC689EB76B82C4DE06C0ACF1E1932ED5 SWAP2 PUSH3 0x7DD JUMP JUMPDEST POP PUSH1 0x40 DUP1 MLOAD DUP1 DUP3 ADD SWAP1 SWAP2 MSTORE PUSH1 0x12 DUP2 MSTORE PUSH18 0x507269636520746F6F20766F6C6174696C65 PUSH1 0x70 SHL PUSH1 0x20 DUP1 DUP4 ADD SWAP2 DUP3 MSTORE PUSH1 0xC PUSH1 0x0 MSTORE PUSH1 0x5 SWAP1 MSTORE SWAP1 MLOAD PUSH3 0x603 SWAP2 PUSH32 0xF907E7E6656FA73566B18C1215272FE9FCA2C55C552E62C923E21E000AC4B4E6 SWAP2 PUSH3 0x7DD JUMP JUMPDEST POP PUSH1 0x40 DUP1 MLOAD DUP1 DUP3 ADD SWAP1 SWAP2 MSTORE PUSH1 0x15 DUP2 MSTORE PUSH32 0x507269636520696D706163742065786365656465640000000000000000000000 PUSH1 0x20 DUP1 DUP4 ADD SWAP2 DUP3 MSTORE PUSH1 0xD PUSH1 0x0 MSTORE PUSH1 0x5 SWAP1 MSTORE SWAP1 MLOAD PUSH3 0x673 SWAP2 PUSH32 0x3145C75015E7A856ECD94C41432EF3CB669D6360AF23433588937FEFDFAC825 SWAP2 PUSH3 0x7DD JUMP JUMPDEST POP PUSH1 0x40 DUP1 MLOAD DUP1 DUP3 ADD SWAP1 SWAP2 MSTORE PUSH1 0x10 DUP2 MSTORE PUSH16 0x141BDCDA5D1A5BDB88199B1859D9D959 PUSH1 0x82 SHL PUSH1 0x20 DUP1 DUP4 ADD SWAP2 DUP3 MSTORE PUSH1 0xE PUSH1 0x0 MSTORE PUSH1 0x5 SWAP1 MSTORE SWAP1 MLOAD PUSH3 0x6D6 SWAP2 PUSH32 0x783638979E3582B3FFD6D53FC06C949AC31D1AC75A5E2C3531FBE1F91045EB53 SWAP2 PUSH3 0x7DD JUMP JUMPDEST POP PUSH1 0x40 DUP1 MLOAD DUP1 DUP3 ADD SWAP1 SWAP2 MSTORE PUSH1 0x14 DUP2 MSTORE PUSH32 0x506F736974696F6E206E6F7420666C6167676564000000000000000000000000 PUSH1 0x20 DUP1 DUP4 ADD SWAP2 DUP3 MSTORE PUSH1 0xF PUSH1 0x0 MSTORE PUSH1 0x5 SWAP1 MSTORE SWAP1 MLOAD PUSH3 0x746 SWAP2 PUSH32 0x58F00E8ECC6F5419941DD0BAFEC65A4CC188D31713FB1FE224257460930DF8AF SWAP2 PUSH3 0x7DD JUMP JUMPDEST POP POP PUSH1 0x0 SLOAD PUSH1 0x1 PUSH1 0x1 PUSH1 0xA0 SHL SUB AND ISZERO ISZERO SWAP2 POP PUSH3 0x779 SWAP1 POP JUMPI PUSH1 0x40 MLOAD PUSH3 0x461BCD PUSH1 0xE5 SHL DUP2 MSTORE PUSH1 0x4 ADD PUSH3 0x68 SWAP1 PUSH3 0x9BB JUMP JUMPDEST PUSH1 0x6 DUP1 SLOAD PUSH1 0x1 PUSH1 0x1 PUSH1 0xA0 SHL SUB NOT AND PUSH1 0x1 PUSH1 0x1 PUSH1 0xA0 SHL SUB DUP4 AND OR SWAP1 SSTORE PUSH1 0x40 MLOAD PUSH32 0xFC80377CA9C49CC11AE6982F390A42DB976D5530AF7C43889264B13FBBD7C57E SWAP1 PUSH3 0x7C6 SWAP1 DUP4 SWAP1 PUSH3 0x985 JUMP JUMPDEST PUSH1 0x40 MLOAD DUP1 SWAP2 SUB SWAP1 LOG1 POP POP POP POP POP POP POP POP POP PUSH3 0xA28 JUMP JUMPDEST DUP3 DUP1 SLOAD PUSH1 0x1 DUP2 PUSH1 0x1 AND ISZERO PUSH2 0x100 MUL SUB AND PUSH1 0x2 SWAP1 DIV SWAP1 PUSH1 0x0 MSTORE PUSH1 0x20 PUSH1 0x0 KECCAK256 SWAP1 PUSH1 0x1F ADD PUSH1 0x20 SWAP1 DIV DUP2 ADD SWAP3 DUP3 PUSH1 0x1F LT PUSH3 0x820 JUMPI DUP1 MLOAD PUSH1 0xFF NOT AND DUP4 DUP1 ADD OR DUP6 SSTORE PUSH3 0x850 JUMP JUMPDEST DUP3 DUP1 ADD PUSH1 0x1 ADD DUP6 SSTORE DUP3 ISZERO PUSH3 0x850 JUMPI SWAP2 DUP3 ADD JUMPDEST DUP3 DUP2 GT ISZERO PUSH3 0x850 JUMPI DUP3 MLOAD DUP3 SSTORE SWAP2 PUSH1 0x20 ADD SWAP2 SWAP1 PUSH1 0x1 ADD SWAP1 PUSH3 0x833 JUMP JUMPDEST POP PUSH3 0x85E SWAP3 SWAP2 POP PUSH3 0x862 JUMP JUMPDEST POP SWAP1 JUMP JUMPDEST PUSH3 0x87F SWAP2 SWAP1 JUMPDEST DUP1 DUP3 GT ISZERO PUSH3 0x85E JUMPI PUSH1 0x0 DUP2 SSTORE PUSH1 0x1 ADD PUSH3 0x869 JUMP JUMPDEST SWAP1 JUMP JUMPDEST DUP1 MLOAD PUSH3 0x88F DUP2 PUSH3 0xA0E JUMP JUMPDEST SWAP3 SWAP2 POP POP JUMP JUMPDEST PUSH1 0x0 DUP1 PUSH1 0x0 DUP1 PUSH1 0x80 DUP6 DUP8 SUB SLT ISZERO PUSH3 0x8AC JUMPI PUSH1 0x0 DUP1 REVERT JUMPDEST PUSH1 0x0 PUSH3 0x8BA DUP8 DUP8 PUSH3 0x882 JUMP JUMPDEST SWAP5 POP POP PUSH1 0x20 PUSH3 0x8CD DUP8 DUP3 DUP9 ADD PUSH3 0x882 JUMP JUMPDEST SWAP4 POP POP PUSH1 0x40 PUSH3 0x8E0 DUP8 DUP3 DUP9 ADD PUSH3 0x882 JUMP JUMPDEST SWAP3 POP POP PUSH1 0x60 PUSH3 0x8F3 DUP8 DUP3 DUP9 ADD PUSH3 0x882 JUMP JUMPDEST SWAP2 POP POP SWAP3 SWAP6 SWAP2 SWAP5 POP SWAP3 POP JUMP JUMPDEST PUSH3 0x90A DUP2 PUSH3 0x9FA JUMP JUMPDEST DUP3 MSTORE POP POP JUMP JUMPDEST PUSH3 0x90A DUP2 PUSH3 0x9E8 JUMP JUMPDEST PUSH1 0x0 PUSH3 0x92A PUSH1 0x11 DUP4 PUSH3 0x9DF JUMP JUMPDEST PUSH17 0x13DDDB995C881B5D5CDD081899481CD95D PUSH1 0x7A SHL DUP2 MSTORE PUSH1 0x20 ADD SWAP3 SWAP2 POP POP JUMP JUMPDEST PUSH1 0x0 PUSH3 0x959 PUSH1 0x19 DUP4 PUSH3 0x9DF JUMP JUMPDEST PUSH32 0x4F776E657220616464726573732063616E6E6F74206265203000000000000000 DUP2 MSTORE PUSH1 0x20 ADD SWAP3 SWAP2 POP POP JUMP JUMPDEST PUSH1 0x20 DUP2 ADD PUSH3 0x88F DUP3 DUP5 PUSH3 0x8FF JUMP JUMPDEST PUSH1 0x40 DUP2 ADD PUSH3 0x9A5 DUP3 DUP6 PUSH3 0x8FF JUMP JUMPDEST PUSH3 0x9B4 PUSH1 0x20 DUP4 ADD DUP5 PUSH3 0x910 JUMP JUMPDEST SWAP4 SWAP3 POP POP POP JUMP JUMPDEST PUSH1 0x20 DUP1 DUP3 MSTORE DUP2 ADD PUSH3 0x88F DUP2 PUSH3 0x91B JUMP JUMPDEST PUSH1 0x20 DUP1 DUP3 MSTORE DUP2 ADD PUSH3 0x88F DUP2 PUSH3 0x94A JUMP JUMPDEST SWAP1 DUP2 MSTORE PUSH1 0x20 ADD SWAP1 JUMP JUMPDEST PUSH1 0x0 PUSH1 0x1 PUSH1 0x1 PUSH1 0xA0 SHL SUB DUP3 AND PUSH3 0x88F JUMP JUMPDEST PUSH1 0x0 PUSH3 0x88F DUP3 PUSH1 0x0 PUSH3 0x88F DUP3 PUSH3 0x9E8 JUMP JUMPDEST PUSH3 0xA19 DUP2 PUSH3 0x9E8 JUMP JUMPDEST DUP2 EQ PUSH3 0xA25 JUMPI PUSH1 0x0 DUP1 REVERT JUMPDEST POP JUMP JUMPDEST PUSH2 0x50D1 DUP1 PUSH3 0xA38 PUSH1 0x0 CODECOPY PUSH1 0x0 RETURN INVALID PUSH1 0x80 PUSH1 0x40 MSTORE CALLVALUE DUP1 ISZERO PUSH2 0x10 JUMPI PUSH1 0x0 DUP1 REVERT JUMPDEST POP PUSH1 0x4 CALLDATASIZE LT PUSH2 0x12C JUMPI PUSH1 0x0 CALLDATALOAD PUSH1 0xE0 SHR DUP1 PUSH4 0x74185360 GT PUSH2 0xAD JUMPI DUP1 PUSH4 0x97107D6D GT PUSH2 0x71 JUMPI DUP1 PUSH4 0x97107D6D EQ PUSH2 0x22C JUMPI DUP1 PUSH4 0xA126D601 EQ PUSH2 0x23F JUMPI DUP1 PUSH4 0xBC67F832 EQ PUSH2 0x252 JUMPI DUP1 PUSH4 0xD67BDD25 EQ PUSH2 0x265 JUMPI DUP1 PUSH4 0xEC556889 EQ PUSH2 0x26D JUMPI PUSH2 0x12C JUMP JUMPDEST DUP1 PUSH4 0x74185360 EQ PUSH2 0x1EC JUMPI DUP1 PUSH4 0x79BA5097 EQ PUSH2 0x1F4 JUMPI DUP1 PUSH4 0x88A3C848 EQ PUSH2 0x1FC JUMPI DUP1 PUSH4 0x899FFEF4 EQ PUSH2 0x20F JUMPI DUP1 PUSH4 0x8DA5CB5B EQ PUSH2 0x224 JUMPI PUSH2 0x12C JUMP JUMPDEST DUP1 PUSH4 0x4AD4914B GT PUSH2 0xF4 JUMPI DUP1 PUSH4 0x4AD4914B EQ PUSH2 0x194 JUMPI DUP1 PUSH4 0x4EB985CC EQ PUSH2 0x1A7 JUMPI DUP1 PUSH4 0x53A47BB7 EQ PUSH2 0x1BC JUMPI DUP1 PUSH4 0x5A1CBD2B EQ PUSH2 0x1D1 JUMPI DUP1 PUSH4 0x5C8011C3 EQ PUSH2 0x1D9 JUMPI PUSH2 0x12C JUMP JUMPDEST DUP1 PUSH4 0x4F3BCEC EQ PUSH2 0x131 JUMPI DUP1 PUSH4 0x8FB1B77 EQ PUSH2 0x14F JUMPI DUP1 PUSH4 0x1627540C EQ PUSH2 0x157 JUMPI DUP1 PUSH4 0x2AF64BD3 EQ PUSH2 0x16C JUMPI DUP1 PUSH4 0x32F05103 EQ PUSH2 0x181 JUMPI JUMPDEST PUSH1 0x0 DUP1 REVERT JUMPDEST PUSH2 0x139 PUSH2 0x275 JUMP JUMPDEST PUSH1 0x40 MLOAD PUSH2 0x146 SWAP2 SWAP1 PUSH2 0x4D79 JUMP JUMPDEST PUSH1 0x40 MLOAD DUP1 SWAP2 SUB SWAP1 RETURN JUMPDEST PUSH2 0x139 PUSH2 0x284 JUMP JUMPDEST PUSH2 0x16A PUSH2 0x165 CALLDATASIZE PUSH1 0x4 PUSH2 0x41A0 JUMP JUMPDEST PUSH2 0x293 JUMP JUMPDEST STOP JUMPDEST PUSH2 0x174 PUSH2 0x2F1 JUMP JUMPDEST PUSH1 0x40 MLOAD PUSH2 0x146 SWAP2 SWAP1 PUSH2 0x4C17 JUMP JUMPDEST PUSH2 0x16A PUSH2 0x18F CALLDATASIZE PUSH1 0x4 PUSH2 0x428E JUMP JUMPDEST PUSH2 0x409 JUMP JUMPDEST PUSH2 0x16A PUSH2 0x1A2 CALLDATASIZE PUSH1 0x4 PUSH2 0x4254 JUMP JUMPDEST PUSH2 0x419 JUMP JUMPDEST PUSH2 0x1AF PUSH2 0x429 JUMP JUMPDEST PUSH1 0x40 MLOAD PUSH2 0x146 SWAP2 SWAP1 PUSH2 0x4C25 JUMP JUMPDEST PUSH2 0x1C4 PUSH2 0x495 JUMP JUMPDEST PUSH1 0x40 MLOAD PUSH2 0x146 SWAP2 SWAP1 PUSH2 0x4B5A JUMP JUMPDEST PUSH2 0x16A PUSH2 0x4A4 JUMP JUMPDEST PUSH2 0x16A PUSH2 0x1E7 CALLDATASIZE PUSH1 0x4 PUSH2 0x4254 JUMP JUMPDEST PUSH2 0x569 JUMP JUMPDEST PUSH2 0x16A PUSH2 0x573 JUMP JUMPDEST PUSH2 0x16A PUSH2 0x6C5 JUMP JUMPDEST PUSH2 0x16A PUSH2 0x20A CALLDATASIZE PUSH1 0x4 PUSH2 0x4236 JUMP JUMPDEST PUSH2 0x761 JUMP JUMPDEST PUSH2 0x217 PUSH2 0x79A JUMP JUMPDEST PUSH1 0x40 MLOAD PUSH2 0x146 SWAP2 SWAP1 PUSH2 0x4C06 JUMP JUMPDEST PUSH2 0x1C4 PUSH2 0x905 JUMP JUMPDEST PUSH2 0x16A PUSH2 0x23A CALLDATASIZE PUSH1 0x4 PUSH2 0x41A0 JUMP JUMPDEST PUSH2 0x914 JUMP JUMPDEST PUSH2 0x16A PUSH2 0x24D CALLDATASIZE PUSH1 0x4 PUSH2 0x4236 JUMP JUMPDEST PUSH2 0x967 JUMP JUMPDEST PUSH2 0x16A PUSH2 0x260 CALLDATASIZE PUSH1 0x4 PUSH2 0x41A0 JUMP JUMPDEST PUSH2 0x975 JUMP JUMPDEST PUSH2 0x1C4 PUSH2 0x99F JUMP JUMPDEST PUSH2 0x139 PUSH2 0x9AE JUMP JUMPDEST PUSH1 0x2 SLOAD PUSH1 0x1 PUSH1 0x1 PUSH1 0xA0 SHL SUB AND DUP2 JUMP JUMPDEST PUSH1 0x4 SLOAD PUSH1 0x1 PUSH1 0x1 PUSH1 0xA0 SHL SUB AND DUP2 JUMP JUMPDEST PUSH2 0x29B PUSH2 0x9BD JUMP JUMPDEST PUSH1 0x1 DUP1 SLOAD PUSH1 0x1 PUSH1 0x1 PUSH1 0xA0 SHL SUB NOT AND PUSH1 0x1 PUSH1 0x1 PUSH1 0xA0 SHL SUB DUP4 AND OR SWAP1 SSTORE PUSH1 0x40 MLOAD PUSH32 0x906A1C6BD7E3091EA86693DD029A831C19049CE77F1DCE2CE0BAB1CACBABCE22 SWAP1 PUSH2 0x2E6 SWAP1 DUP4 SWAP1 PUSH2 0x4B5A JUMP JUMPDEST PUSH1 0x40 MLOAD DUP1 SWAP2 SUB SWAP1 LOG1 POP JUMP JUMPDEST PUSH1 0x0 PUSH1 0x60 PUSH2 0x2FD PUSH2 0x79A JUMP JUMPDEST SWAP1 POP PUSH1 0x0 JUMPDEST DUP2 MLOAD DUP2 LT ISZERO PUSH2 0x3FF JUMPI PUSH1 0x0 DUP3 DUP3 DUP2 MLOAD DUP2 LT PUSH2 0x319 JUMPI INVALID JUMPDEST PUSH1 0x20 SWAP1 DUP2 MUL SWAP2 SWAP1 SWAP2 ADD DUP2 ADD MLOAD PUSH1 0x0 DUP2 DUP2 MSTORE PUSH1 0x3 SWAP1 SWAP3 MSTORE PUSH1 0x40 SWAP2 DUP3 SWAP1 KECCAK256 SLOAD PUSH1 0x2 SLOAD SWAP3 MLOAD PUSH4 0x21F8A721 PUSH1 0xE0 SHL DUP2 MSTORE SWAP2 SWAP4 POP PUSH1 0x1 PUSH1 0x1 PUSH1 0xA0 SHL SUB SWAP1 DUP2 AND SWAP3 AND SWAP1 PUSH4 0x21F8A721 SWAP1 PUSH2 0x36A SWAP1 DUP6 SWAP1 PUSH1 0x4 ADD PUSH2 0x4C25 JUMP JUMPDEST PUSH1 0x20 PUSH1 0x40 MLOAD DUP1 DUP4 SUB DUP2 DUP7 DUP1 EXTCODESIZE ISZERO DUP1 ISZERO PUSH2 0x382 JUMPI PUSH1 0x0 DUP1 REVERT JUMPDEST POP GAS STATICCALL ISZERO DUP1 ISZERO PUSH2 0x396 JUMPI RETURNDATASIZE PUSH1 0x0 DUP1 RETURNDATACOPY RETURNDATASIZE PUSH1 0x0 REVERT JUMPDEST POP POP POP POP PUSH1 0x40 MLOAD RETURNDATASIZE PUSH1 0x1F NOT PUSH1 0x1F DUP3 ADD AND DUP3 ADD DUP1 PUSH1 0x40 MSTORE POP PUSH2 0x3BA SWAP2 SWAP1 DUP2 ADD SWAP1 PUSH2 0x41BE JUMP JUMPDEST PUSH1 0x1 PUSH1 0x1 PUSH1 0xA0 SHL SUB AND EQ ISZERO DUP1 PUSH2 0x3E5 JUMPI POP PUSH1 0x0 DUP2 DUP2 MSTORE PUSH1 0x3 PUSH1 0x20 MSTORE PUSH1 0x40 SWAP1 KECCAK256 SLOAD PUSH1 0x1 PUSH1 0x1 PUSH1 0xA0 SHL SUB AND ISZERO JUMPDEST ISZERO PUSH2 0x3F6 JUMPI PUSH1 0x0 SWAP4 POP POP POP POP PUSH2 0x406 JUMP JUMPDEST POP PUSH1 0x1 ADD PUSH2 0x302 JUMP JUMPDEST POP PUSH1 0x1 SWAP2 POP POP JUMPDEST SWAP1 JUMP JUMPDEST PUSH2 0x414 DUP4 DUP4 DUP4 PUSH2 0x9E9 JUMP JUMPDEST POP POP POP JUMP JUMPDEST PUSH2 0x425 DUP3 DUP3 PUSH1 0x0 PUSH2 0x9E9 JUMP JUMPDEST POP POP JUMP JUMPDEST PUSH1 0x0 PUSH2 0x44F PUSH2 0x436 PUSH2 0xB24 JUMP JUMPDEST PUSH1 0x7 SLOAD PUSH1 0x1 PUSH1 0x1 PUSH1 0xA0 SHL SUB SWAP1 DUP2 AND SWAP2 AND EQ ISZERO PUSH1 0x9 PUSH2 0xB42 JUMP JUMPDEST PUSH1 0x0 DUP1 PUSH2 0x45A PUSH2 0xB85 JUMP JUMPDEST SWAP2 POP SWAP2 POP DUP1 ISZERO PUSH2 0x485 JUMPI PUSH1 0x40 MLOAD PUSH3 0x461BCD PUSH1 0xE5 SHL DUP2 MSTORE PUSH1 0x4 ADD PUSH2 0x47C SWAP1 PUSH2 0x4E77 JUMP JUMPDEST PUSH1 0x40 MLOAD DUP1 SWAP2 SUB SWAP1 REVERT JUMPDEST PUSH2 0x48E DUP3 PUSH2 0xCB6 JUMP JUMPDEST SWAP3 POP POP POP SWAP1 JUMP JUMPDEST PUSH1 0x1 SLOAD PUSH1 0x1 PUSH1 0x1 PUSH1 0xA0 SHL SUB AND DUP2 JUMP JUMPDEST PUSH2 0x4AC PUSH2 0xF04 JUMP JUMPDEST PUSH1 0x7 SLOAD PUSH1 0x1 PUSH1 0x1 PUSH1 0xA0 SHL SUB AND PUSH1 0x0 PUSH2 0x4C3 DUP2 PUSH2 0xF2E JUMP JUMPDEST SWAP1 POP PUSH2 0x4CE DUP2 PUSH2 0xCB6 JUMP JUMPDEST POP PUSH1 0x4 DUP1 SLOAD PUSH1 0x40 MLOAD PUSH4 0x55F5751 PUSH1 0xE4 SHL DUP2 MSTORE PUSH1 0x0 SWAP3 PUSH2 0x559 SWAP3 PUSH1 0x1 PUSH1 0x1 PUSH1 0xA0 SHL SUB AND SWAP2 PUSH4 0x55F57510 SWAP2 PUSH2 0x503 SWAP2 DUP9 SWAP2 ADD PUSH2 0x4B5A JUMP JUMPDEST PUSH1 0xA0 PUSH1 0x40 MLOAD DUP1 DUP4 SUB DUP2 DUP7 DUP1 EXTCODESIZE ISZERO DUP1 ISZERO PUSH2 0x51B JUMPI PUSH1 0x0 DUP1 REVERT JUMPDEST POP GAS STATICCALL ISZERO DUP1 ISZERO PUSH2 0x52F JUMPI RETURNDATASIZE PUSH1 0x0 DUP1 RETURNDATACOPY RETURNDATASIZE PUSH1 0x0 REVERT JUMPDEST POP POP POP POP PUSH1 0x40 MLOAD RETURNDATASIZE PUSH1 0x1F NOT PUSH1 0x1F DUP3 ADD AND DUP3 ADD DUP1 PUSH1 0x40 MSTORE POP PUSH2 0x553 SWAP2 SWAP1 DUP2 ADD SWAP1 PUSH2 0x42FA JUMP JUMPDEST DUP4 PUSH2 0x1127 JUMP JUMPDEST PUSH1 0x0 SUB SWAP1 POP PUSH2 0x414 DUP2 DUP4 DUP6 PUSH2 0x11F2 JUMP JUMPDEST PUSH2 0x425 DUP3 DUP3 PUSH2 0x15C3 JUMP JUMPDEST PUSH1 0x60 PUSH2 0x57D PUSH2 0x79A JUMP JUMPDEST SWAP1 POP PUSH1 0x0 JUMPDEST DUP2 MLOAD DUP2 LT ISZERO PUSH2 0x425 JUMPI PUSH1 0x0 DUP3 DUP3 DUP2 MLOAD DUP2 LT PUSH2 0x599 JUMPI INVALID JUMPDEST PUSH1 0x20 MUL PUSH1 0x20 ADD ADD MLOAD SWAP1 POP PUSH1 0x0 PUSH1 0x2 PUSH1 0x0 SWAP1 SLOAD SWAP1 PUSH2 0x100 EXP SWAP1 DIV PUSH1 0x1 PUSH1 0x1 PUSH1 0xA0 SHL SUB AND PUSH1 0x1 PUSH1 0x1 PUSH1 0xA0 SHL SUB AND PUSH4 0xDACB2D01 DUP4 DUP5 PUSH1 0x40 MLOAD PUSH1 0x20 ADD PUSH2 0x5DB SWAP2 SWAP1 PUSH2 0x4B23 JUMP JUMPDEST PUSH1 0x40 MLOAD PUSH1 0x20 DUP2 DUP4 SUB SUB DUP2 MSTORE SWAP1 PUSH1 0x40 MSTORE PUSH1 0x40 MLOAD DUP4 PUSH4 0xFFFFFFFF AND PUSH1 0xE0 SHL DUP2 MSTORE PUSH1 0x4 ADD PUSH2 0x607 SWAP3 SWAP2 SWAP1 PUSH2 0x4C84 JUMP JUMPDEST PUSH1 0x20 PUSH1 0x40 MLOAD DUP1 DUP4 SUB DUP2 DUP7 DUP1 EXTCODESIZE ISZERO DUP1 ISZERO PUSH2 0x61F JUMPI PUSH1 0x0 DUP1 REVERT JUMPDEST POP GAS STATICCALL ISZERO DUP1 ISZERO PUSH2 0x633 JUMPI RETURNDATASIZE PUSH1 0x0 DUP1 RETURNDATACOPY RETURNDATASIZE PUSH1 0x0 REVERT JUMPDEST POP POP POP POP PUSH1 0x40 MLOAD RETURNDATASIZE PUSH1 0x1F NOT PUSH1 0x1F DUP3 ADD AND DUP3 ADD DUP1 PUSH1 0x40 MSTORE POP PUSH2 0x657 SWAP2 SWAP1 DUP2 ADD SWAP1 PUSH2 0x41BE JUMP JUMPDEST PUSH1 0x0 DUP4 DUP2 MSTORE PUSH1 0x3 PUSH1 0x20 MSTORE PUSH1 0x40 SWAP1 DUP2 SWAP1 KECCAK256 DUP1 SLOAD PUSH1 0x1 PUSH1 0x1 PUSH1 0xA0 SHL SUB NOT AND PUSH1 0x1 PUSH1 0x1 PUSH1 0xA0 SHL SUB DUP5 AND OR SWAP1 SSTORE MLOAD SWAP1 SWAP2 POP PUSH32 0x88A93678A3692F6789D9546FC621BF7234B101DDB7D4FE479455112831B8AA68 SWAP1 PUSH2 0x6B3 SWAP1 DUP5 SWAP1 DUP5 SWAP1 PUSH2 0x4C33 JUMP JUMPDEST PUSH1 0x40 MLOAD DUP1 SWAP2 SUB SWAP1 LOG1 POP POP PUSH1 0x1 ADD PUSH2 0x582 JUMP JUMPDEST PUSH1 0x1 SLOAD PUSH1 0x1 PUSH1 0x1 PUSH1 0xA0 SHL SUB AND CALLER EQ PUSH2 0x6EF JUMPI PUSH1 0x40 MLOAD PUSH3 0x461BCD PUSH1 0xE5 SHL DUP2 MSTORE PUSH1 0x4 ADD PUSH2 0x47C SWAP1 PUSH2 0x4DB7 JUMP JUMPDEST PUSH1 0x0 SLOAD PUSH1 0x1 SLOAD PUSH1 0x40 MLOAD PUSH32 0xB532073B38C83145E3E5135377A08BF9AAB55BC0FD7C1179CD4FB995D2A5159C SWAP3 PUSH2 0x732 SWAP3 PUSH1 0x1 PUSH1 0x1 PUSH1 0xA0 SHL SUB SWAP2 DUP3 AND SWAP3 SWAP2 AND SWAP1 PUSH2 0x4B76 JUMP JUMPDEST PUSH1 0x40 MLOAD DUP1 SWAP2 SUB SWAP1 LOG1 PUSH1 0x1 DUP1 SLOAD PUSH1 0x0 DUP1 SLOAD PUSH1 0x1 PUSH1 0x1 PUSH1 0xA0 SHL SUB NOT SWAP1 DUP2 AND PUSH1 0x1 PUSH1 0x1 PUSH1 0xA0 SHL SUB DUP5 AND OR SWAP1 SWAP2 SSTORE AND SWAP1 SSTORE JUMP JUMPDEST PUSH2 0x769 PUSH2 0xF04 JUMP JUMPDEST PUSH1 0x0 PUSH2 0x775 PUSH1 0x0 PUSH2 0xF2E JUMP JUMPDEST SWAP1 POP PUSH2 0x780 DUP2 PUSH2 0xCB6 JUMP JUMPDEST POP PUSH1 0x7 SLOAD PUSH2 0x425 SWAP1 DUP4 SWAP1 DUP4 SWAP1 PUSH1 0x1 PUSH1 0x1 PUSH1 0xA0 SHL SUB AND PUSH2 0x11F2 JUMP JUMPDEST PUSH1 0x60 DUP1 PUSH2 0x7A5 PUSH2 0x178F JUMP JUMPDEST PUSH1 0x40 DUP1 MLOAD PUSH1 0x7 DUP1 DUP3 MSTORE PUSH2 0x100 DUP3 ADD SWAP1 SWAP3 MSTORE SWAP2 SWAP3 POP PUSH1 0x60 SWAP2 SWAP1 PUSH1 0x20 DUP3 ADD PUSH1 0xE0 DUP1 CODESIZE DUP4 CODECOPY ADD SWAP1 POP POP SWAP1 POP PUSH9 0x22BC31B430B733B2B9 PUSH1 0xB9 SHL DUP2 PUSH1 0x0 DUP2 MLOAD DUP2 LT PUSH2 0x7E7 JUMPI INVALID JUMPDEST PUSH1 0x20 MUL PUSH1 0x20 ADD ADD DUP2 DUP2 MSTORE POP POP PUSH13 0x45786368616E67655261746573 PUSH1 0x98 SHL DUP2 PUSH1 0x1 DUP2 MLOAD DUP2 LT PUSH2 0x811 JUMPI INVALID JUMPDEST PUSH1 0x20 MUL PUSH1 0x20 ADD ADD DUP2 DUP2 MSTORE POP POP PUSH12 0x53797374656D537461747573 PUSH1 0xA0 SHL DUP2 PUSH1 0x2 DUP2 MLOAD DUP2 LT PUSH2 0x83A JUMPI INVALID JUMPDEST PUSH1 0x20 MUL PUSH1 0x20 ADD ADD DUP2 DUP2 MSTORE POP POP PUSH20 0x233ABA3AB932B9A6B0B935B2BA26B0B730B3B2B9 PUSH1 0x61 SHL DUP2 PUSH1 0x3 DUP2 MLOAD DUP2 LT PUSH2 0x86B JUMPI INVALID JUMPDEST PUSH1 0x20 MUL PUSH1 0x20 ADD ADD DUP2 DUP2 MSTORE POP POP PUSH1 0x0 DUP1 MLOAD PUSH1 0x20 PUSH2 0x506F DUP4 CODECOPY DUP2 MLOAD SWAP2 MSTORE DUP2 PUSH1 0x4 DUP2 MLOAD DUP2 LT PUSH2 0x893 JUMPI INVALID JUMPDEST PUSH1 0x20 MUL PUSH1 0x20 ADD ADD DUP2 DUP2 MSTORE POP POP PUSH19 0x5065727073563245786368616E676552617465 PUSH1 0x68 SHL DUP2 PUSH1 0x5 DUP2 MLOAD DUP2 LT PUSH2 0x8C3 JUMPI INVALID JUMPDEST PUSH1 0x20 MUL PUSH1 0x20 ADD ADD DUP2 DUP2 MSTORE POP POP PUSH15 0x466C657869626C6553746F72616765 PUSH1 0x88 SHL DUP2 PUSH1 0x6 DUP2 MLOAD DUP2 LT PUSH2 0x8EF JUMPI INVALID JUMPDEST PUSH1 0x20 MUL PUSH1 0x20 ADD ADD DUP2 DUP2 MSTORE POP POP PUSH2 0x48E DUP3 DUP3 PUSH2 0x17E0 JUMP JUMPDEST PUSH1 0x0 SLOAD PUSH1 0x1 PUSH1 0x1 PUSH1 0xA0 SHL SUB AND DUP2 JUMP JUMPDEST PUSH2 0x91C PUSH2 0x9BD JUMP JUMPDEST PUSH1 0x6 DUP1 SLOAD PUSH1 0x1 PUSH1 0x1 PUSH1 0xA0 SHL SUB NOT AND PUSH1 0x1 PUSH1 0x1 PUSH1 0xA0 SHL SUB DUP4 AND OR SWAP1 SSTORE PUSH1 0x40 MLOAD PUSH32 0xFC80377CA9C49CC11AE6982F390A42DB976D5530AF7C43889264B13FBBD7C57E SWAP1 PUSH2 0x2E6 SWAP1 DUP4 SWAP1 PUSH2 0x4B68 JUMP JUMPDEST PUSH2 0x972 DUP2 PUSH1 0x0 PUSH2 0x15C3 JUMP JUMPDEST POP JUMP JUMPDEST PUSH2 0x97D PUSH2 0xF04 JUMP JUMPDEST PUSH1 0x7 DUP1 SLOAD PUSH1 0x1 PUSH1 0x1 PUSH1 0xA0 SHL SUB NOT AND PUSH1 0x1 PUSH1 0x1 PUSH1 0xA0 SHL SUB SWAP3 SWAP1 SWAP3 AND SWAP2 SWAP1 SWAP2 OR SWAP1 SSTORE JUMP JUMPDEST PUSH1 0x7 SLOAD PUSH1 0x1 PUSH1 0x1 PUSH1 0xA0 SHL SUB AND DUP2 JUMP JUMPDEST PUSH1 0x6 SLOAD PUSH1 0x1 PUSH1 0x1 PUSH1 0xA0 SHL SUB AND DUP2 JUMP JUMPDEST PUSH1 0x0 SLOAD PUSH1 0x1 PUSH1 0x1 PUSH1 0xA0 SHL SUB AND CALLER EQ PUSH2 0x9E7 JUMPI PUSH1 0x40 MLOAD PUSH3 0x461BCD PUSH1 0xE5 SHL DUP2 MSTORE PUSH1 0x4 ADD PUSH2 0x47C SWAP1 PUSH2 0x4E27 JUMP JUMPDEST JUMP JUMPDEST PUSH2 0x9F1 PUSH2 0xF04 JUMP JUMPDEST PUSH1 0x4 DUP1 SLOAD PUSH1 0x7 SLOAD PUSH1 0x40 MLOAD PUSH4 0x645C04D5 PUSH1 0xE1 SHL DUP2 MSTORE PUSH1 0x1 PUSH1 0x1 PUSH1 0xA0 SHL SUB SWAP3 DUP4 AND SWAP4 PUSH4 0xC8B809AA SWAP4 PUSH2 0xA23 SWAP4 AND SWAP2 ADD PUSH2 0x4B5A JUMP JUMPDEST PUSH2 0x120 PUSH1 0x40 MLOAD DUP1 DUP4 SUB DUP2 DUP7 DUP1 EXTCODESIZE ISZERO DUP1 ISZERO PUSH2 0xA3C JUMPI PUSH1 0x0 DUP1 REVERT JUMPDEST POP GAS STATICCALL ISZERO DUP1 ISZERO PUSH2 0xA50 JUMPI RETURNDATASIZE PUSH1 0x0 DUP1 RETURNDATACOPY RETURNDATASIZE PUSH1 0x0 REVERT JUMPDEST POP POP POP POP PUSH1 0x40 MLOAD RETURNDATASIZE PUSH1 0x1F NOT PUSH1 0x1F DUP3 ADD AND DUP3 ADD DUP1 PUSH1 0x40 MSTORE POP PUSH2 0xA74 SWAP2 SWAP1 DUP2 ADD SWAP1 PUSH2 0x42DB JUMP JUMPDEST PUSH1 0x20 ADD MLOAD PUSH1 0xF SIGNEXTEND ISZERO PUSH2 0xA98 JUMPI PUSH1 0x40 MLOAD PUSH3 0x461BCD PUSH1 0xE5 SHL DUP2 MSTORE PUSH1 0x4 ADD PUSH2 0x47C SWAP1 PUSH2 0x4DC7 JUMP JUMPDEST PUSH1 0x0 PUSH2 0xAA4 PUSH1 0x0 PUSH2 0xF2E JUMP JUMPDEST SWAP1 POP PUSH2 0xAAF DUP2 PUSH2 0xCB6 JUMP JUMPDEST POP PUSH1 0x7 SLOAD PUSH1 0x40 DUP1 MLOAD PUSH1 0xE0 DUP2 ADD DUP3 MSTORE DUP7 DUP2 MSTORE PUSH1 0x20 DUP2 ADD DUP5 SWAP1 MSTORE PUSH2 0xB1E SWAP3 PUSH1 0x1 PUSH1 0x1 PUSH1 0xA0 SHL SUB AND SWAP2 DUP2 ADD PUSH2 0xAE1 DUP9 DUP7 PUSH2 0x189C JUMP JUMPDEST DUP2 MSTORE PUSH1 0x20 ADD DUP7 DUP2 MSTORE PUSH1 0x20 ADD PUSH2 0xAFC PUSH2 0xAF7 PUSH2 0x19CE JUMP JUMPDEST PUSH2 0x1A56 JUMP JUMPDEST DUP2 MSTORE PUSH1 0x20 ADD PUSH2 0xB11 PUSH2 0xB0C PUSH2 0x19CE JUMP JUMPDEST PUSH2 0x1A6D JUMP JUMPDEST DUP2 MSTORE PUSH1 0x20 ADD DUP6 SWAP1 MSTORE PUSH2 0x1A84 JUMP JUMPDEST POP POP POP POP JUMP JUMPDEST PUSH1 0x0 PUSH2 0xB3D PUSH1 0x0 DUP1 MLOAD PUSH1 0x20 PUSH2 0x506F DUP4 CODECOPY DUP2 MLOAD SWAP2 MSTORE PUSH2 0x2197 JUMP JUMPDEST SWAP1 POP SWAP1 JUMP JUMPDEST DUP2 ISZERO PUSH2 0x425 JUMPI PUSH1 0x5 PUSH1 0x0 DUP3 PUSH1 0xF DUP2 GT ISZERO PUSH2 0xB58 JUMPI INVALID JUMPDEST PUSH1 0xFF AND PUSH1 0xFF AND DUP2 MSTORE PUSH1 0x20 ADD SWAP1 DUP2 MSTORE PUSH1 0x20 ADD PUSH1 0x0 KECCAK256 PUSH1 0x40 MLOAD PUSH3 0x461BCD PUSH1 0xE5 SHL DUP2 MSTORE PUSH1 0x4 ADD PUSH2 0x47C SWAP2 SWAP1 PUSH2 0x4DA6 JUMP JUMPDEST PUSH1 0x0 DUP1 PUSH2 0xB90 PUSH2 0x21F4 JUMP JUMPDEST PUSH1 0x1 PUSH1 0x1 PUSH1 0xA0 SHL SUB AND PUSH4 0xC71CD23 PUSH2 0xBA6 PUSH2 0x220F JUMP JUMPDEST PUSH1 0x40 MLOAD DUP3 PUSH4 0xFFFFFFFF AND PUSH1 0xE0 SHL DUP2 MSTORE PUSH1 0x4 ADD PUSH2 0xBC2 SWAP2 SWAP1 PUSH2 0x4C25 JUMP JUMPDEST PUSH1 0x40 DUP1 MLOAD DUP1 DUP4 SUB DUP2 DUP7 DUP1 EXTCODESIZE ISZERO DUP1 ISZERO PUSH2 0xBD9 JUMPI PUSH1 0x0 DUP1 REVERT JUMPDEST POP GAS STATICCALL ISZERO DUP1 ISZERO PUSH2 0xBED JUMPI RETURNDATASIZE PUSH1 0x0 DUP1 RETURNDATACOPY RETURNDATASIZE PUSH1 0x0 REVERT JUMPDEST POP POP POP POP PUSH1 0x40 MLOAD RETURNDATASIZE PUSH1 0x1F NOT PUSH1 0x1F DUP3 ADD AND DUP3 ADD DUP1 PUSH1 0x40 MSTORE POP PUSH2 0xC11 SWAP2 SWAP1 DUP2 ADD SWAP1 PUSH2 0x4336 JUMP JUMPDEST SWAP1 SWAP3 POP SWAP1 POP DUP1 DUP1 PUSH2 0xC20 JUMPI POP DUP2 ISZERO JUMPDEST DUP1 PUSH2 0xCB0 JUMPI POP PUSH2 0xC2E PUSH2 0x225F JUMP JUMPDEST PUSH1 0x1 PUSH1 0x1 PUSH1 0xA0 SHL SUB AND PUSH4 0x2ED0AB44 PUSH2 0xC44 PUSH2 0x220F JUMP JUMPDEST PUSH1 0x40 MLOAD DUP3 PUSH4 0xFFFFFFFF AND PUSH1 0xE0 SHL DUP2 MSTORE PUSH1 0x4 ADD PUSH2 0xC60 SWAP2 SWAP1 PUSH2 0x4C25 JUMP JUMPDEST PUSH1 0x20 PUSH1 0x40 MLOAD DUP1 DUP4 SUB DUP2 DUP7 DUP1 EXTCODESIZE ISZERO DUP1 ISZERO PUSH2 0xC78 JUMPI PUSH1 0x0 DUP1 REVERT JUMPDEST POP GAS STATICCALL ISZERO DUP1 ISZERO PUSH2 0xC8C JUMPI RETURNDATASIZE PUSH1 0x0 DUP1 RETURNDATACOPY RETURNDATASIZE PUSH1 0x0 REVERT JUMPDEST POP POP POP POP PUSH1 0x40 MLOAD RETURNDATASIZE PUSH1 0x1F NOT PUSH1 0x1F DUP3 ADD AND DUP3 ADD DUP1 PUSH1 0x40 MSTORE POP PUSH2 0xCB0 SWAP2 SWAP1 DUP2 ADD SWAP1 PUSH2 0x41DC JUMP JUMPDEST SWAP1 POP SWAP1 SWAP2 JUMP JUMPDEST PUSH1 0x4 DUP1 SLOAD PUSH1 0x40 DUP1 MLOAD PUSH4 0x66F68675 PUSH1 0xE1 SHL DUP2 MSTORE SWAP1 MLOAD PUSH1 0x0 SWAP4 DUP5 SWAP4 PUSH1 0x1 PUSH1 0x1 PUSH1 0xA0 SHL SUB AND SWAP3 PUSH4 0xCDED0CEA SWAP3 DUP2 DUP4 ADD SWAP3 PUSH1 0x20 SWAP3 DUP3 SWAP1 SUB ADD DUP2 DUP7 DUP1 EXTCODESIZE ISZERO DUP1 ISZERO PUSH2 0xCFA JUMPI PUSH1 0x0 DUP1 REVERT JUMPDEST POP GAS STATICCALL ISZERO DUP1 ISZERO PUSH2 0xD0E JUMPI RETURNDATASIZE PUSH1 0x0 DUP1 RETURNDATACOPY RETURNDATASIZE PUSH1 0x0 REVERT JUMPDEST POP POP POP POP PUSH1 0x40 MLOAD RETURNDATASIZE PUSH1 0x1F NOT PUSH1 0x1F DUP3 ADD AND DUP3 ADD DUP1 PUSH1 0x40 MSTORE POP PUSH2 0xD32 SWAP2 SWAP1 DUP2 ADD SWAP1 PUSH2 0x41FA JUMP JUMPDEST SWAP1 POP PUSH1 0x0 PUSH2 0xD3E PUSH2 0x2279 JUMP JUMPDEST SWAP1 POP PUSH1 0x0 PUSH2 0xD4B DUP6 PUSH2 0x22DF JUMP JUMPDEST PUSH1 0x4 DUP1 SLOAD PUSH1 0x40 MLOAD PUSH4 0x7E35D8F9 PUSH1 0xE1 SHL DUP2 MSTORE SWAP3 SWAP4 POP PUSH1 0x1 PUSH1 0x1 PUSH1 0xA0 SHL SUB AND SWAP2 PUSH4 0xFC6BB1F2 SWAP2 PUSH2 0xD7B SWAP2 DUP6 SWAP2 ADD PUSH2 0x4D87 JUMP JUMPDEST PUSH1 0x0 PUSH1 0x40 MLOAD DUP1 DUP4 SUB DUP2 PUSH1 0x0 DUP8 DUP1 EXTCODESIZE ISZERO DUP1 ISZERO PUSH2 0xD95 JUMPI PUSH1 0x0 DUP1 REVERT JUMPDEST POP GAS CALL ISZERO DUP1 ISZERO PUSH2 0xDA9 JUMPI RETURNDATASIZE PUSH1 0x0 DUP1 RETURNDATACOPY RETURNDATASIZE PUSH1 0x0 REVERT JUMPDEST POP POP PUSH1 0x4 DUP1 SLOAD PUSH1 0x40 MLOAD PUSH4 0x4AF3B2B1 PUSH1 0xE1 SHL DUP2 MSTORE PUSH1 0x1 PUSH1 0x1 PUSH1 0xA0 SHL SUB SWAP1 SWAP2 AND SWAP4 POP PUSH4 0x95E76562 SWAP3 POP PUSH2 0xDDC SWAP2 TIMESTAMP SWAP2 ADD PUSH2 0x4F0D JUMP JUMPDEST PUSH1 0x0 PUSH1 0x40 MLOAD DUP1 DUP4 SUB DUP2 PUSH1 0x0 DUP8 DUP1 EXTCODESIZE ISZERO DUP1 ISZERO PUSH2 0xDF6 JUMPI PUSH1 0x0 DUP1 REVERT JUMPDEST POP GAS CALL ISZERO DUP1 ISZERO PUSH2 0xE0A JUMPI RETURNDATASIZE PUSH1 0x0 DUP1 RETURNDATACOPY RETURNDATASIZE PUSH1 0x0 REVERT JUMPDEST POP POP PUSH1 0x4 DUP1 SLOAD PUSH1 0x40 MLOAD PUSH4 0x15E88F91 PUSH1 0xE1 SHL DUP2 MSTORE PUSH1 0x1 PUSH1 0x1 PUSH1 0xA0 SHL SUB SWAP1 SWAP2 AND SWAP4 POP PUSH4 0x2BD11F22 SWAP3 POP PUSH2 0xE3D SWAP2 DUP7 SWAP2 ADD PUSH2 0x4D87 JUMP JUMPDEST PUSH1 0x0 PUSH1 0x40 MLOAD DUP1 DUP4 SUB DUP2 PUSH1 0x0 DUP8 DUP1 EXTCODESIZE ISZERO DUP1 ISZERO PUSH2 0xE57 JUMPI PUSH1 0x0 DUP1 REVERT JUMPDEST POP GAS CALL ISZERO DUP1 ISZERO PUSH2 0xE6B JUMPI RETURNDATASIZE PUSH1 0x0 DUP1 RETURNDATACOPY RETURNDATASIZE PUSH1 0x0 REVERT JUMPDEST POP POP PUSH1 0x4 DUP1 SLOAD PUSH1 0x40 DUP1 MLOAD PUSH4 0x13DCD11B PUSH1 0xE1 SHL DUP2 MSTORE SWAP1 MLOAD PUSH2 0xEFB SWAP6 POP DUP7 SWAP5 POP DUP8 SWAP4 DUP10 SWAP4 PUSH1 0x1 PUSH1 0x1 PUSH1 0xA0 SHL SUB AND SWAP3 PUSH4 0x27B9A236 SWAP3 DUP2 DUP4 ADD SWAP3 PUSH1 0x20 SWAP3 DUP3 SWAP1 SUB ADD DUP2 DUP7 DUP1 EXTCODESIZE ISZERO DUP1 ISZERO PUSH2 0xEB8 JUMPI PUSH1 0x0 DUP1 REVERT JUMPDEST POP GAS STATICCALL ISZERO DUP1 ISZERO PUSH2 0xECC JUMPI RETURNDATASIZE PUSH1 0x0 DUP1 RETURNDATACOPY RETURNDATASIZE PUSH1 0x0 REVERT JUMPDEST POP POP POP POP PUSH1 0x40 MLOAD RETURNDATASIZE PUSH1 0x1F NOT PUSH1 0x1F DUP3 ADD AND DUP3 ADD DUP1 PUSH1 0x40 MSTORE POP PUSH2 0xEF0 SWAP2 SWAP1 DUP2 ADD SWAP1 PUSH2 0x43A9 JUMP JUMPDEST PUSH4 0xFFFFFFFF AND PUSH2 0x233A JUMP JUMPDEST POP SWAP1 SWAP4 SWAP3 POP POP POP JUMP JUMPDEST PUSH1 0x6 SLOAD PUSH1 0x1 PUSH1 0x1 PUSH1 0xA0 SHL SUB AND CALLER EQ PUSH2 0x9E7 JUMPI PUSH1 0x40 MLOAD PUSH3 0x461BCD PUSH1 0xE5 SHL DUP2 MSTORE PUSH1 0x4 ADD PUSH2 0x47C SWAP1 PUSH2 0x4E67 JUMP JUMPDEST PUSH1 0x0 PUSH2 0xF38 PUSH2 0x225F JUMP JUMPDEST PUSH1 0x1 PUSH1 0x1 PUSH1 0xA0 SHL SUB AND PUSH4 0x856AAE6C PUSH2 0xF4E PUSH2 0x19CE JUMP JUMPDEST PUSH1 0x40 MLOAD DUP3 PUSH4 0xFFFFFFFF AND PUSH1 0xE0 SHL DUP2 MSTORE PUSH1 0x4 ADD PUSH2 0xF6A SWAP2 SWAP1 PUSH2 0x4C25 JUMP JUMPDEST PUSH1 0x0 PUSH1 0x40 MLOAD DUP1 DUP4 SUB DUP2 DUP7 DUP1 EXTCODESIZE ISZERO DUP1 ISZERO PUSH2 0xF82 JUMPI PUSH1 0x0 DUP1 REVERT JUMPDEST POP GAS STATICCALL ISZERO DUP1 ISZERO PUSH2 0xF96 JUMPI RETURNDATASIZE PUSH1 0x0 DUP1 RETURNDATACOPY RETURNDATASIZE PUSH1 0x0 REVERT JUMPDEST POP POP POP POP PUSH2 0xFA2 PUSH2 0x225F JUMP JUMPDEST PUSH1 0x1 PUSH1 0x1 PUSH1 0xA0 SHL SUB AND PUSH4 0x25CEAF66 PUSH2 0xFB8 PUSH2 0x220F JUMP JUMPDEST PUSH1 0x40 MLOAD DUP3 PUSH4 0xFFFFFFFF AND PUSH1 0xE0 SHL DUP2 MSTORE PUSH1 0x4 ADD PUSH2 0xFD4 SWAP2 SWAP1 PUSH2 0x4C25 JUMP JUMPDEST PUSH1 0x0 PUSH1 0x40 MLOAD DUP1 DUP4 SUB DUP2 DUP7 DUP1 EXTCODESIZE ISZERO DUP1 ISZERO PUSH2 0xFEC JUMPI PUSH1 0x0 DUP1 REVERT JUMPDEST POP GAS STATICCALL ISZERO DUP1 ISZERO PUSH2 0x1000 JUMPI RETURNDATASIZE PUSH1 0x0 DUP1 RETURNDATACOPY RETURNDATASIZE PUSH1 0x0 REVERT JUMPDEST POP POP POP POP DUP2 ISZERO PUSH2 0x107D JUMPI PUSH2 0x1012 PUSH2 0x225F JUMP JUMPDEST PUSH1 0x1 PUSH1 0x1 PUSH1 0xA0 SHL SUB AND PUSH4 0x856AAE6C PUSH2 0x1030 PUSH2 0x102B PUSH2 0x19CE JUMP JUMPDEST PUSH2 0x23EA JUMP JUMPDEST PUSH1 0x40 MLOAD DUP3 PUSH4 0xFFFFFFFF AND PUSH1 0xE0 SHL DUP2 MSTORE PUSH1 0x4 ADD PUSH2 0x104C SWAP2 SWAP1 PUSH2 0x4C25 JUMP JUMPDEST PUSH1 0x0 PUSH1 0x40 MLOAD DUP1 DUP4 SUB DUP2 DUP7 DUP1 EXTCODESIZE ISZERO DUP1 ISZERO PUSH2 0x1064 JUMPI PUSH1 0x0 DUP1 REVERT JUMPDEST POP GAS STATICCALL ISZERO DUP1 ISZERO PUSH2 0x1078 JUMPI RETURNDATASIZE PUSH1 0x0 DUP1 RETURNDATACOPY RETURNDATASIZE PUSH1 0x0 REVERT JUMPDEST POP POP POP POP JUMPDEST PUSH1 0x0 DUP1 PUSH1 0x0 PUSH2 0x108A PUSH2 0x21F4 JUMP JUMPDEST PUSH1 0x1 PUSH1 0x1 PUSH1 0xA0 SHL SUB AND PUSH4 0x45056F8 PUSH2 0x10A0 PUSH2 0x220F JUMP JUMPDEST PUSH1 0x40 MLOAD DUP3 PUSH4 0xFFFFFFFF AND PUSH1 0xE0 SHL DUP2 MSTORE PUSH1 0x4 ADD PUSH2 0x10BC SWAP2 SWAP1 PUSH2 0x4C25 JUMP JUMPDEST PUSH1 0x60 PUSH1 0x40 MLOAD DUP1 DUP4 SUB DUP2 PUSH1 0x0 DUP8 DUP1 EXTCODESIZE ISZERO DUP1 ISZERO PUSH2 0x10D6 JUMPI PUSH1 0x0 DUP1 REVERT JUMPDEST POP GAS CALL ISZERO DUP1 ISZERO PUSH2 0x10EA JUMPI RETURNDATASIZE PUSH1 0x0 DUP1 RETURNDATACOPY RETURNDATASIZE PUSH1 0x0 REVERT JUMPDEST POP POP POP POP PUSH1 0x40 MLOAD RETURNDATASIZE PUSH1 0x1F NOT PUSH1 0x1F DUP3 ADD AND DUP3 ADD DUP1 PUSH1 0x40 MSTORE POP PUSH2 0x110E SWAP2 SWAP1 DUP2 ADD SWAP1 PUSH2 0x4366 JUMP JUMPDEST SWAP3 POP SWAP3 POP SWAP3 POP PUSH2 0xEFB DUP3 DUP1 PUSH2 0x1120 JUMPI POP DUP2 JUMPDEST PUSH1 0x1 PUSH2 0xB42 JUMP JUMPDEST PUSH1 0x0 PUSH7 0x38D7EA4C68000 DUP2 PUSH2 0x1152 DUP3 PUSH2 0x1146 PUSH2 0x1141 PUSH2 0x19CE JUMP JUMPDEST PUSH2 0x24BB JUMP JUMPDEST SWAP1 PUSH4 0xFFFFFFFF PUSH2 0x24D5 AND JUMP JUMPDEST SWAP1 POP PUSH1 0x0 PUSH2 0x117F PUSH2 0x117A DUP4 PUSH2 0x116E DUP10 PUSH1 0x80 ADD MLOAD PUSH1 0xF SIGNEXTEND DUP10 PUSH2 0x24FD JUMP JUMPDEST SWAP1 PUSH4 0xFFFFFFFF PUSH2 0x2516 AND JUMP JUMPDEST PUSH2 0x2540 JUMP JUMPDEST SWAP1 POP DUP1 ISZERO PUSH2 0x11B3 JUMPI PUSH1 0x0 PUSH2 0x1191 PUSH2 0x254B JUMP JUMPDEST SWAP1 POP DUP1 DUP3 LT ISZERO PUSH2 0x119F JUMPI DUP1 SWAP2 POP JUMPDEST PUSH2 0x11AF DUP3 DUP6 PUSH4 0xFFFFFFFF PUSH2 0x25C8 AND JUMP JUMPDEST SWAP2 POP POP JUMPDEST PUSH1 0x0 PUSH2 0x11BF DUP8 DUP8 PUSH2 0x25ED JUMP JUMPDEST SWAP1 POP DUP2 DUP2 GT PUSH2 0x11D5 JUMPI PUSH1 0x0 SWAP5 POP POP POP POP POP PUSH2 0x11EC JUMP JUMPDEST PUSH2 0x11E5 DUP2 DUP4 PUSH4 0xFFFFFFFF PUSH2 0x24D5 AND JUMP JUMPDEST SWAP5 POP POP POP POP POP JUMPDEST SWAP3 SWAP2 POP POP JUMP JUMPDEST PUSH1 0x4 DUP1 SLOAD PUSH1 0x40 MLOAD PUSH4 0xFEF48A99 PUSH1 0xE0 SHL DUP2 MSTORE DUP4 SWAP3 PUSH1 0x1 PUSH1 0x1 PUSH1 0xA0 SHL SUB SWAP1 SWAP3 AND SWAP2 PUSH4 0xFEF48A99 SWAP2 PUSH2 0x1223 SWAP2 DUP6 SWAP2 ADD PUSH2 0x4B5A JUMP JUMPDEST PUSH1 0x20 PUSH1 0x40 MLOAD DUP1 DUP4 SUB DUP2 DUP7 DUP1 EXTCODESIZE ISZERO DUP1 ISZERO PUSH2 0x123B JUMPI PUSH1 0x0 DUP1 REVERT JUMPDEST POP GAS STATICCALL ISZERO DUP1 ISZERO PUSH2 0x124F JUMPI RETURNDATASIZE PUSH1 0x0 DUP1 RETURNDATACOPY RETURNDATASIZE PUSH1 0x0 REVERT JUMPDEST POP POP POP POP PUSH1 0x40 MLOAD RETURNDATASIZE PUSH1 0x1F NOT PUSH1 0x1F DUP3 ADD AND DUP3 ADD DUP1 PUSH1 0x40 MSTORE POP PUSH2 0x1273 SWAP2 SWAP1 DUP2 ADD SWAP1 PUSH2 0x41DC JUMP JUMPDEST ISZERO PUSH2 0x1283 JUMPI PUSH1 0x5 PUSH1 0x0 PUSH1 0xE PUSH2 0xB58 JUMP JUMPDEST PUSH1 0x4 DUP1 SLOAD PUSH1 0x7 SLOAD PUSH1 0x40 MLOAD PUSH4 0x645C04D5 PUSH1 0xE1 SHL DUP2 MSTORE PUSH1 0x1 PUSH1 0x1 PUSH1 0xA0 SHL SUB SWAP3 DUP4 AND SWAP4 PUSH4 0xC8B809AA SWAP4 PUSH2 0x12B5 SWAP4 AND SWAP2 ADD PUSH2 0x4B5A JUMP JUMPDEST PUSH2 0x120 PUSH1 0x40 MLOAD DUP1 DUP4 SUB DUP2 DUP7 DUP1 EXTCODESIZE ISZERO DUP1 ISZERO PUSH2 0x12CE JUMPI PUSH1 0x0 DUP1 REVERT JUMPDEST POP GAS STATICCALL ISZERO DUP1 ISZERO PUSH2 0x12E2 JUMPI RETURNDATASIZE PUSH1 0x0 DUP1 RETURNDATACOPY RETURNDATASIZE PUSH1 0x0 REVERT JUMPDEST POP POP POP POP PUSH1 0x40 MLOAD RETURNDATASIZE PUSH1 0x1F NOT PUSH1 0x1F DUP3 ADD AND DUP3 ADD DUP1 PUSH1 0x40 MSTORE POP PUSH2 0x1306 SWAP2 SWAP1 DUP2 ADD SWAP1 PUSH2 0x42DB JUMP JUMPDEST PUSH1 0x20 ADD MLOAD PUSH1 0xF SIGNEXTEND ISZERO PUSH2 0x132A JUMPI PUSH1 0x40 MLOAD PUSH3 0x461BCD PUSH1 0xE5 SHL DUP2 MSTORE PUSH1 0x4 ADD PUSH2 0x47C SWAP1 PUSH2 0x4DC7 JUMP JUMPDEST PUSH1 0x0 PUSH2 0x1335 DUP6 PUSH2 0x2540 JUMP JUMPDEST SWAP1 POP PUSH1 0x0 DUP6 SGT ISZERO PUSH2 0x13DC JUMPI PUSH1 0x0 PUSH2 0x134A PUSH2 0x260F JUMP JUMPDEST PUSH1 0x1 PUSH1 0x1 PUSH1 0xA0 SHL SUB AND PUSH4 0xD5B8935B DUP6 DUP5 PUSH1 0x40 MLOAD DUP4 PUSH4 0xFFFFFFFF AND PUSH1 0xE0 SHL DUP2 MSTORE PUSH1 0x4 ADD PUSH2 0x1377 SWAP3 SWAP2 SWAP1 PUSH2 0x4B91 JUMP JUMPDEST PUSH1 0x20 PUSH1 0x40 MLOAD DUP1 DUP4 SUB DUP2 PUSH1 0x0 DUP8 DUP1 EXTCODESIZE ISZERO DUP1 ISZERO PUSH2 0x1391 JUMPI PUSH1 0x0 DUP1 REVERT JUMPDEST POP GAS CALL ISZERO DUP1 ISZERO PUSH2 0x13A5 JUMPI RETURNDATASIZE PUSH1 0x0 DUP1 RETURNDATACOPY RETURNDATASIZE PUSH1 0x0 REVERT JUMPDEST POP POP POP POP PUSH1 0x40 MLOAD RETURNDATASIZE PUSH1 0x1F NOT PUSH1 0x1F DUP3 ADD AND DUP3 ADD DUP1 PUSH1 0x40 MSTORE POP PUSH2 0x13C9 SWAP2 SWAP1 DUP2 ADD SWAP1 PUSH2 0x41FA JUMP JUMPDEST SWAP1 POP DUP2 DUP2 EQ PUSH2 0x13D6 JUMPI DUP1 SWAP6 POP JUMPDEST POP PUSH2 0x1457 JUMP JUMPDEST PUSH1 0x0 DUP6 SLT ISZERO PUSH2 0x1451 JUMPI PUSH2 0x13ED PUSH2 0x260F JUMP JUMPDEST PUSH1 0x1 PUSH1 0x1 PUSH1 0xA0 SHL SUB AND PUSH4 0x689DB7A DUP5 DUP4 PUSH1 0x40 MLOAD DUP4 PUSH4 0xFFFFFFFF AND PUSH1 0xE0 SHL DUP2 MSTORE PUSH1 0x4 ADD PUSH2 0x141A SWAP3 SWAP2 SWAP1 PUSH2 0x4B91 JUMP JUMPDEST PUSH1 0x0 PUSH1 0x40 MLOAD DUP1 DUP4 SUB DUP2 PUSH1 0x0 DUP8 DUP1 EXTCODESIZE ISZERO DUP1 ISZERO PUSH2 0x1434 JUMPI PUSH1 0x0 DUP1 REVERT JUMPDEST POP GAS CALL ISZERO DUP1 ISZERO PUSH2 0x1448 JUMPI RETURNDATASIZE PUSH1 0x0 DUP1 RETURNDATACOPY RETURNDATASIZE PUSH1 0x0 REVERT JUMPDEST POP POP POP POP PUSH2 0x1457 JUMP JUMPDEST POP PUSH2 0xB1E JUMP JUMPDEST PUSH2 0x145F PUSH2 0x3FB5 JUMP JUMPDEST PUSH1 0x4 DUP1 SLOAD PUSH1 0x40 MLOAD PUSH4 0x55F5751 PUSH1 0xE4 SHL DUP2 MSTORE PUSH1 0x1 PUSH1 0x1 PUSH1 0xA0 SHL SUB SWAP1 SWAP2 AND SWAP2 PUSH4 0x55F57510 SWAP2 PUSH2 0x148E SWAP2 DUP9 SWAP2 ADD PUSH2 0x4B5A JUMP JUMPDEST PUSH1 0xA0 PUSH1 0x40 MLOAD DUP1 DUP4 SUB DUP2 DUP7 DUP1 EXTCODESIZE ISZERO DUP1 ISZERO PUSH2 0x14A6 JUMPI PUSH1 0x0 DUP1 REVERT JUMPDEST POP GAS STATICCALL ISZERO DUP1 ISZERO PUSH2 0x14BA JUMPI RETURNDATASIZE PUSH1 0x0 DUP1 RETURNDATACOPY RETURNDATASIZE PUSH1 0x0 REVERT JUMPDEST POP POP POP POP PUSH1 0x40 MLOAD RETURNDATASIZE PUSH1 0x1F NOT PUSH1 0x1F DUP3 ADD AND DUP3 ADD DUP1 PUSH1 0x40 MSTORE POP PUSH2 0x14DE SWAP2 SWAP1 DUP2 ADD SWAP1 PUSH2 0x42FA JUMP JUMPDEST SWAP1 POP PUSH2 0x14EE DUP5 DUP3 PUSH1 0x0 DUP9 DUP11 PUSH2 0x2631 JUMP JUMPDEST PUSH2 0x14F8 DUP5 DUP8 PUSH2 0x28D9 JUMP JUMPDEST PUSH2 0x15BB DUP2 PUSH1 0x0 ADD MLOAD PUSH1 0x1 PUSH1 0x1 PUSH1 0x40 SHL SUB AND DUP6 DUP4 PUSH1 0x40 ADD MLOAD PUSH1 0x1 PUSH1 0x1 PUSH1 0x80 SHL SUB AND DUP5 PUSH1 0x80 ADD MLOAD PUSH1 0xF SIGNEXTEND PUSH1 0x0 DUP11 PUSH2 0x152B PUSH2 0x297F JUMP JUMPDEST PUSH1 0x0 PUSH1 0x4 PUSH1 0x0 SWAP1 SLOAD SWAP1 PUSH2 0x100 EXP SWAP1 DIV PUSH1 0x1 PUSH1 0x1 PUSH1 0xA0 SHL SUB AND PUSH1 0x1 PUSH1 0x1 PUSH1 0xA0 SHL SUB AND PUSH4 0x2B58ECEF PUSH1 0x40 MLOAD DUP2 PUSH4 0xFFFFFFFF AND PUSH1 0xE0 SHL DUP2 MSTORE PUSH1 0x4 ADD PUSH1 0x20 PUSH1 0x40 MLOAD DUP1 DUP4 SUB DUP2 DUP7 DUP1 EXTCODESIZE ISZERO DUP1 ISZERO PUSH2 0x157B JUMPI PUSH1 0x0 DUP1 REVERT JUMPDEST POP GAS STATICCALL ISZERO DUP1 ISZERO PUSH2 0x158F JUMPI RETURNDATASIZE PUSH1 0x0 DUP1 RETURNDATACOPY RETURNDATASIZE PUSH1 0x0 REVERT JUMPDEST POP POP POP POP PUSH1 0x40 MLOAD RETURNDATASIZE PUSH1 0x1F NOT PUSH1 0x1F DUP3 ADD AND DUP3 ADD DUP1 PUSH1 0x40 MSTORE POP PUSH2 0x15B3 SWAP2 SWAP1 DUP2 ADD SWAP1 PUSH2 0x4218 JUMP JUMPDEST PUSH1 0xF SIGNEXTEND PUSH2 0x2A0C JUMP JUMPDEST POP POP POP POP POP POP JUMP JUMPDEST PUSH2 0x15CB PUSH2 0xF04 JUMP JUMPDEST PUSH1 0x4 DUP1 SLOAD PUSH1 0x7 SLOAD PUSH1 0x40 MLOAD PUSH4 0x645C04D5 PUSH1 0xE1 SHL DUP2 MSTORE PUSH1 0x1 PUSH1 0x1 PUSH1 0xA0 SHL SUB SWAP3 DUP4 AND SWAP4 PUSH4 0xC8B809AA SWAP4 PUSH2 0x15FD SWAP4 AND SWAP2 ADD PUSH2 0x4B5A JUMP JUMPDEST PUSH2 0x120 PUSH1 0x40 MLOAD DUP1 DUP4 SUB DUP2 DUP7 DUP1 EXTCODESIZE ISZERO DUP1 ISZERO PUSH2 0x1616 JUMPI PUSH1 0x0 DUP1 REVERT JUMPDEST POP GAS STATICCALL ISZERO DUP1 ISZERO PUSH2 0x162A JUMPI RETURNDATASIZE PUSH1 0x0 DUP1 RETURNDATACOPY RETURNDATASIZE PUSH1 0x0 REVERT JUMPDEST POP POP POP POP PUSH1 0x40 MLOAD RETURNDATASIZE PUSH1 0x1F NOT PUSH1 0x1F DUP3 ADD AND DUP3 ADD DUP1 PUSH1 0x40 MSTORE POP PUSH2 0x164E SWAP2 SWAP1 DUP2 ADD SWAP1 PUSH2 0x42DB JUMP JUMPDEST PUSH1 0x20 ADD MLOAD PUSH1 0xF SIGNEXTEND ISZERO PUSH2 0x1672 JUMPI PUSH1 0x40 MLOAD PUSH3 0x461BCD PUSH1 0xE5 SHL DUP2 MSTORE PUSH1 0x4 ADD PUSH2 0x47C SWAP1 PUSH2 0x4DC7 JUMP JUMPDEST PUSH1 0x4 DUP1 SLOAD PUSH1 0x7 SLOAD PUSH1 0x40 MLOAD PUSH4 0x55F5751 PUSH1 0xE4 SHL DUP2 MSTORE PUSH1 0x0 SWAP4 PUSH1 0x1 PUSH1 0x1 PUSH1 0xA0 SHL SUB SWAP4 DUP5 AND SWAP4 PUSH4 0x55F57510 SWAP4 PUSH2 0x16A8 SWAP4 SWAP2 AND SWAP2 ADD PUSH2 0x4B5A JUMP JUMPDEST PUSH1 0xA0 PUSH1 0x40 MLOAD DUP1 DUP4 SUB DUP2 DUP7 DUP1 EXTCODESIZE ISZERO DUP1 ISZERO PUSH2 0x16C0 JUMPI PUSH1 0x0 DUP1 REVERT JUMPDEST POP GAS STATICCALL ISZERO DUP1 ISZERO PUSH2 0x16D4 JUMPI RETURNDATASIZE PUSH1 0x0 DUP1 RETURNDATACOPY RETURNDATASIZE PUSH1 0x0 REVERT JUMPDEST POP POP POP POP PUSH1 0x40 MLOAD RETURNDATASIZE PUSH1 0x1F NOT PUSH1 0x1F DUP3 ADD AND DUP3 ADD DUP1 PUSH1 0x40 MSTORE POP PUSH2 0x16F8 SWAP2 SWAP1 DUP2 ADD SWAP1 PUSH2 0x42FA JUMP JUMPDEST PUSH1 0x80 ADD MLOAD PUSH1 0xF SIGNEXTEND SWAP1 POP PUSH2 0x170D DUP2 ISZERO PUSH1 0xB PUSH2 0xB42 JUMP JUMPDEST PUSH1 0x0 PUSH2 0x1719 PUSH1 0x0 PUSH2 0xF2E JUMP JUMPDEST SWAP1 POP PUSH2 0x1724 DUP2 PUSH2 0xCB6 JUMP JUMPDEST POP PUSH1 0x7 SLOAD PUSH1 0x40 DUP1 MLOAD PUSH1 0xE0 DUP2 ADD DUP3 MSTORE PUSH1 0x0 DUP6 SWAP1 SUB DUP1 DUP3 MSTORE PUSH1 0x20 DUP3 ADD DUP6 SWAP1 MSTORE PUSH2 0xB1E SWAP4 PUSH1 0x1 PUSH1 0x1 PUSH1 0xA0 SHL SUB AND SWAP3 DUP3 ADD SWAP1 PUSH2 0x175C SWAP1 DUP7 PUSH2 0x189C JUMP JUMPDEST DUP2 MSTORE PUSH1 0x20 ADD DUP8 DUP2 MSTORE PUSH1 0x20 ADD PUSH2 0x1772 PUSH2 0xAF7 PUSH2 0x19CE JUMP JUMPDEST DUP2 MSTORE PUSH1 0x20 ADD PUSH2 0x1782 PUSH2 0xB0C PUSH2 0x19CE JUMP JUMPDEST DUP2 MSTORE PUSH1 0x20 ADD DUP7 SWAP1 MSTORE PUSH2 0x1A84 JUMP JUMPDEST PUSH1 0x40 DUP1 MLOAD PUSH1 0x1 DUP1 DUP3 MSTORE DUP2 DUP4 ADD SWAP1 SWAP3 MSTORE PUSH1 0x60 SWAP2 PUSH1 0x20 DUP1 DUP4 ADD SWAP1 DUP1 CODESIZE DUP4 CODECOPY ADD SWAP1 POP POP SWAP1 POP PUSH15 0x466C657869626C6553746F72616765 PUSH1 0x88 SHL DUP2 PUSH1 0x0 DUP2 MLOAD DUP2 LT PUSH2 0x17D1 JUMPI INVALID JUMPDEST PUSH1 0x20 MUL PUSH1 0x20 ADD ADD DUP2 DUP2 MSTORE POP POP SWAP1 JUMP JUMPDEST PUSH1 0x60 DUP2 MLOAD DUP4 MLOAD ADD PUSH1 0x40 MLOAD SWAP1 DUP1 DUP3 MSTORE DUP1 PUSH1 0x20 MUL PUSH1 0x20 ADD DUP3 ADD PUSH1 0x40 MSTORE DUP1 ISZERO PUSH2 0x1810 JUMPI DUP2 PUSH1 0x20 ADD PUSH1 0x20 DUP3 MUL DUP1 CODESIZE DUP4 CODECOPY ADD SWAP1 POP JUMPDEST POP SWAP1 POP PUSH1 0x0 JUMPDEST DUP4 MLOAD DUP2 LT ISZERO PUSH2 0x1852 JUMPI DUP4 DUP2 DUP2 MLOAD DUP2 LT PUSH2 0x182B JUMPI INVALID JUMPDEST PUSH1 0x20 MUL PUSH1 0x20 ADD ADD MLOAD DUP3 DUP3 DUP2 MLOAD DUP2 LT PUSH2 0x183F JUMPI INVALID JUMPDEST PUSH1 0x20 SWAP1 DUP2 MUL SWAP2 SWAP1 SWAP2 ADD ADD MSTORE PUSH1 0x1 ADD PUSH2 0x1816 JUMP JUMPDEST POP PUSH1 0x0 JUMPDEST DUP3 MLOAD DUP2 LT ISZERO PUSH2 0x1895 JUMPI DUP3 DUP2 DUP2 MLOAD DUP2 LT PUSH2 0x186B JUMPI INVALID JUMPDEST PUSH1 0x20 MUL PUSH1 0x20 ADD ADD MLOAD DUP3 DUP3 DUP7 MLOAD ADD DUP2 MLOAD DUP2 LT PUSH2 0x1882 JUMPI INVALID JUMPDEST PUSH1 0x20 SWAP1 DUP2 MUL SWAP2 SWAP1 SWAP2 ADD ADD MSTORE PUSH1 0x1 ADD PUSH2 0x1856 JUMP JUMPDEST POP SWAP3 SWAP2 POP POP JUMP JUMPDEST PUSH1 0x4 DUP1 SLOAD PUSH1 0x40 DUP1 MLOAD PUSH4 0x2B58ECEF PUSH1 0xE0 SHL DUP2 MSTORE SWAP1 MLOAD PUSH1 0x0 SWAP4 DUP5 SWAP4 PUSH1 0x1 PUSH1 0x1 PUSH1 0xA0 SHL SUB AND SWAP3 PUSH4 0x2B58ECEF SWAP3 DUP2 DUP4 ADD SWAP3 PUSH1 0x20 SWAP3 DUP3 SWAP1 SUB ADD DUP2 DUP7 DUP1 EXTCODESIZE ISZERO DUP1 ISZERO PUSH2 0x18E0 JUMPI PUSH1 0x0 DUP1 REVERT JUMPDEST POP GAS STATICCALL ISZERO DUP1 ISZERO PUSH2 0x18F4 JUMPI RETURNDATASIZE PUSH1 0x0 DUP1 RETURNDATACOPY RETURNDATASIZE PUSH1 0x0 REVERT JUMPDEST POP POP POP POP PUSH1 0x40 MLOAD RETURNDATASIZE PUSH1 0x1F NOT PUSH1 0x1F DUP3 ADD AND DUP3 ADD DUP1 PUSH1 0x40 MSTORE POP PUSH2 0x1918 SWAP2 SWAP1 DUP2 ADD SWAP1 PUSH2 0x4218 JUMP JUMPDEST PUSH1 0xF SIGNEXTEND SWAP1 POP PUSH1 0x0 PUSH2 0x192F PUSH2 0x192A PUSH2 0x19CE JUMP JUMPDEST PUSH2 0x2A91 JUMP JUMPDEST SWAP1 POP PUSH1 0x0 PUSH2 0x1943 DUP4 DUP4 PUSH4 0xFFFFFFFF PUSH2 0x2516 AND JUMP JUMPDEST SWAP1 POP PUSH1 0x0 PUSH2 0x195B DUP4 PUSH2 0x116E DUP7 DUP11 PUSH4 0xFFFFFFFF PUSH2 0x2AA9 AND JUMP JUMPDEST SWAP1 POP PUSH1 0x0 PUSH2 0x197F PUSH2 0x1972 DUP9 DUP6 PUSH4 0xFFFFFFFF PUSH2 0x2AEF AND JUMP JUMPDEST DUP9 SWAP1 PUSH4 0xFFFFFFFF PUSH2 0x2AA9 AND JUMP JUMPDEST SWAP1 POP PUSH1 0x0 PUSH2 0x19A3 PUSH2 0x1996 DUP10 DUP6 PUSH4 0xFFFFFFFF PUSH2 0x2AEF AND JUMP JUMPDEST DUP10 SWAP1 PUSH4 0xFFFFFFFF PUSH2 0x2AA9 AND JUMP JUMPDEST SWAP1 POP PUSH2 0x19C1 PUSH8 0x1BC16D674EC80000 PUSH2 0x116E DUP5 DUP5 PUSH4 0xFFFFFFFF PUSH2 0x2AA9 AND JUMP JUMPDEST SWAP10 SWAP9 POP POP POP POP POP POP POP POP POP JUMP JUMPDEST PUSH1 0x0 PUSH1 0x4 PUSH1 0x0 SWAP1 SLOAD SWAP1 PUSH2 0x100 EXP SWAP1 DIV PUSH1 0x1 PUSH1 0x1 PUSH1 0xA0 SHL SUB AND PUSH1 0x1 PUSH1 0x1 PUSH1 0xA0 SHL SUB AND PUSH4 0xD7103A46 PUSH1 0x40 MLOAD DUP2 PUSH4 0xFFFFFFFF AND PUSH1 0xE0 SHL DUP2 MSTORE PUSH1 0x4 ADD PUSH1 0x20 PUSH1 0x40 MLOAD DUP1 DUP4 SUB DUP2 DUP7 DUP1 EXTCODESIZE ISZERO DUP1 ISZERO PUSH2 0x1A1E JUMPI PUSH1 0x0 DUP1 REVERT JUMPDEST POP GAS STATICCALL ISZERO DUP1 ISZERO PUSH2 0x1A32 JUMPI RETURNDATASIZE PUSH1 0x0 DUP1 RETURNDATACOPY RETURNDATASIZE PUSH1 0x0 REVERT JUMPDEST POP POP POP POP PUSH1 0x40 MLOAD RETURNDATASIZE PUSH1 0x1F NOT PUSH1 0x1F DUP3 ADD AND DUP3 ADD DUP1 PUSH1 0x40 MSTORE POP PUSH2 0xB3D SWAP2 SWAP1 DUP2 ADD SWAP1 PUSH2 0x41FA JUMP JUMPDEST PUSH1 0x0 PUSH2 0x11EC DUP3 PUSH8 0x74616B6572466565 PUSH1 0xC0 SHL PUSH2 0x2B19 JUMP JUMPDEST PUSH1 0x0 PUSH2 0x11EC DUP3 PUSH8 0x6D616B6572466565 PUSH1 0xC0 SHL PUSH2 0x2B19 JUMP JUMPDEST PUSH1 0x4 DUP1 SLOAD PUSH1 0x40 MLOAD PUSH4 0xFEF48A99 PUSH1 0xE0 SHL DUP2 MSTORE DUP5 SWAP3 PUSH1 0x1 PUSH1 0x1 PUSH1 0xA0 SHL SUB SWAP1 SWAP3 AND SWAP2 PUSH4 0xFEF48A99 SWAP2 PUSH2 0x1AB5 SWAP2 DUP6 SWAP2 ADD PUSH2 0x4B5A JUMP JUMPDEST PUSH1 0x20 PUSH1 0x40 MLOAD DUP1 DUP4 SUB DUP2 DUP7 DUP1 EXTCODESIZE ISZERO DUP1 ISZERO PUSH2 0x1ACD JUMPI PUSH1 0x0 DUP1 REVERT JUMPDEST POP GAS STATICCALL ISZERO DUP1 ISZERO PUSH2 0x1AE1 JUMPI RETURNDATASIZE PUSH1 0x0 DUP1 RETURNDATACOPY RETURNDATASIZE PUSH1 0x0 REVERT JUMPDEST POP POP POP POP PUSH1 0x40 MLOAD RETURNDATASIZE PUSH1 0x1F NOT PUSH1 0x1F DUP3 ADD AND DUP3 ADD DUP1 PUSH1 0x40 MSTORE POP PUSH2 0x1B05 SWAP2 SWAP1 DUP2 ADD SWAP1 PUSH2 0x41DC JUMP JUMPDEST ISZERO PUSH2 0x1B15 JUMPI PUSH1 0x5 PUSH1 0x0 PUSH1 0xE PUSH2 0xB58 JUMP JUMPDEST PUSH2 0x1B1D PUSH2 0x3FB5 JUMP JUMPDEST PUSH1 0x4 DUP1 SLOAD PUSH1 0x40 MLOAD PUSH4 0x55F5751 PUSH1 0xE4 SHL DUP2 MSTORE PUSH1 0x1 PUSH1 0x1 PUSH1 0xA0 SHL SUB SWAP1 SWAP2 AND SWAP2 PUSH4 0x55F57510 SWAP2 PUSH2 0x1B4C SWAP2 DUP9 SWAP2 ADD PUSH2 0x4B5A JUMP JUMPDEST PUSH1 0xA0 PUSH1 0x40 MLOAD DUP1 DUP4 SUB DUP2 DUP7 DUP1 EXTCODESIZE ISZERO DUP1 ISZERO PUSH2 0x1B64 JUMPI PUSH1 0x0 DUP1 REVERT JUMPDEST POP GAS STATICCALL ISZERO DUP1 ISZERO PUSH2 0x1B78 JUMPI RETURNDATASIZE PUSH1 0x0 DUP1 RETURNDATACOPY RETURNDATASIZE PUSH1 0x0 REVERT JUMPDEST POP POP POP POP PUSH1 0x40 MLOAD RETURNDATASIZE PUSH1 0x1F NOT PUSH1 0x1F DUP3 ADD AND DUP3 ADD DUP1 PUSH1 0x40 MSTORE POP PUSH2 0x1B9C SWAP2 SWAP1 DUP2 ADD SWAP1 PUSH2 0x42FA JUMP JUMPDEST SWAP1 POP PUSH2 0x1BA6 PUSH2 0x3FB5 JUMP JUMPDEST PUSH1 0x40 MLOAD DUP1 PUSH1 0xA0 ADD PUSH1 0x40 MSTORE DUP1 DUP4 PUSH1 0x0 ADD MLOAD PUSH1 0x1 PUSH1 0x1 PUSH1 0x40 SHL SUB AND DUP2 MSTORE PUSH1 0x20 ADD DUP4 PUSH1 0x20 ADD MLOAD PUSH1 0x1 PUSH1 0x1 PUSH1 0x40 SHL SUB AND DUP2 MSTORE PUSH1 0x20 ADD DUP4 PUSH1 0x40 ADD MLOAD PUSH1 0x1 PUSH1 0x1 PUSH1 0x80 SHL SUB AND DUP2 MSTORE PUSH1 0x20 ADD DUP4 PUSH1 0x60 ADD MLOAD PUSH1 0x1 PUSH1 0x1 PUSH1 0x80 SHL SUB AND DUP2 MSTORE PUSH1 0x20 ADD DUP4 PUSH1 0x80 ADD MLOAD PUSH1 0xF SIGNEXTEND DUP2 MSTORE POP SWAP1 POP PUSH2 0x1C12 PUSH2 0x3FB5 JUMP JUMPDEST PUSH1 0x0 DUP1 PUSH2 0x1C1F DUP5 DUP9 PUSH2 0x2BD6 JUMP JUMPDEST SWAP3 POP SWAP3 POP SWAP3 POP PUSH2 0x1C2E DUP2 PUSH2 0x2EBE JUMP JUMPDEST PUSH2 0x1C45 DUP8 PUSH1 0x40 ADD MLOAD DUP9 PUSH1 0x60 ADD MLOAD DUP10 PUSH1 0x0 ADD MLOAD PUSH2 0x2EDC JUMP JUMPDEST POP PUSH1 0x4 DUP1 SLOAD PUSH1 0x80 DUP1 DUP8 ADD MLOAD SWAP1 DUP7 ADD MLOAD PUSH1 0x40 DUP1 MLOAD PUSH4 0x2B58ECEF PUSH1 0xE0 SHL DUP2 MSTORE SWAP1 MLOAD PUSH1 0x1 PUSH1 0x1 PUSH1 0xA0 SHL SUB SWAP1 SWAP5 AND SWAP5 PUSH4 0xB545F712 SWAP5 PUSH2 0x1CFE SWAP5 PUSH1 0xF SWAP1 DUP2 SIGNEXTEND SWAP5 PUSH2 0x1CF2 SWAP5 SWAP2 SIGNEXTEND SWAP3 DUP9 SWAP3 PUSH4 0x2B58ECEF SWAP3 DUP1 DUP4 ADD SWAP3 PUSH1 0x20 SWAP3 SWAP2 DUP3 SWAP1 SUB ADD DUP2 DUP7 DUP1 EXTCODESIZE ISZERO DUP1 ISZERO PUSH2 0x1CAB JUMPI PUSH1 0x0 DUP1 REVERT JUMPDEST POP GAS STATICCALL ISZERO DUP1 ISZERO PUSH2 0x1CBF JUMPI RETURNDATASIZE PUSH1 0x0 DUP1 RETURNDATACOPY RETURNDATASIZE PUSH1 0x0 REVERT JUMPDEST POP POP POP POP PUSH1 0x40 MLOAD RETURNDATASIZE PUSH1 0x1F NOT PUSH1 0x1F DUP3 ADD AND DUP3 ADD DUP1 PUSH1 0x40 MSTORE POP PUSH2 0x1CE3 SWAP2 SWAP1 DUP2 ADD SWAP1 PUSH2 0x4218 JUMP JUMPDEST PUSH1 0xF SIGNEXTEND SWAP1 PUSH4 0xFFFFFFFF PUSH2 0x2AA9 AND JUMP JUMPDEST SWAP1 PUSH4 0xFFFFFFFF PUSH2 0x2F04 AND JUMP JUMPDEST PUSH1 0x40 MLOAD DUP3 PUSH4 0xFFFFFFFF AND PUSH1 0xE0 SHL DUP2 MSTORE PUSH1 0x4 ADD PUSH2 0x1D1A SWAP2 SWAP1 PUSH2 0x4D87 JUMP JUMPDEST PUSH1 0x0 PUSH1 0x40 MLOAD DUP1 DUP4 SUB DUP2 PUSH1 0x0 DUP8 DUP1 EXTCODESIZE ISZERO DUP1 ISZERO PUSH2 0x1D34 JUMPI PUSH1 0x0 DUP1 REVERT JUMPDEST POP GAS CALL ISZERO DUP1 ISZERO PUSH2 0x1D48 JUMPI RETURNDATASIZE PUSH1 0x0 DUP1 RETURNDATACOPY RETURNDATASIZE PUSH1 0x0 REVERT JUMPDEST POP POP PUSH1 0x4 SLOAD PUSH1 0x80 DUP8 ADD MLOAD PUSH1 0x1 PUSH1 0x1 PUSH1 0xA0 SHL SUB SWAP1 SWAP2 AND SWAP3 POP PUSH4 0x460AF7A6 SWAP2 POP PUSH2 0x1E18 SWAP1 PUSH2 0x1D76 SWAP1 PUSH1 0xF SIGNEXTEND PUSH2 0x2540 JUMP JUMPDEST PUSH2 0x1146 PUSH2 0x1D89 DUP9 PUSH1 0x80 ADD MLOAD PUSH1 0xF SIGNEXTEND PUSH2 0x2540 JUMP JUMPDEST PUSH1 0x4 DUP1 SLOAD PUSH1 0x40 DUP1 MLOAD PUSH4 0xEB56105D PUSH1 0xE0 SHL DUP2 MSTORE SWAP1 MLOAD PUSH1 0x1 PUSH1 0x1 PUSH1 0xA0 SHL SUB SWAP1 SWAP3 AND SWAP3 PUSH4 0xEB56105D SWAP3 DUP3 DUP3 ADD SWAP3 PUSH1 0x20 SWAP3 SWAP1 DUP3 SWAP1 SUB ADD DUP2 DUP7 DUP1 EXTCODESIZE ISZERO DUP1 ISZERO PUSH2 0x1DCB JUMPI PUSH1 0x0 DUP1 REVERT JUMPDEST POP GAS STATICCALL ISZERO DUP1 ISZERO PUSH2 0x1DDF JUMPI RETURNDATASIZE PUSH1 0x0 DUP1 RETURNDATACOPY RETURNDATASIZE PUSH1 0x0 REVERT JUMPDEST POP POP POP POP PUSH1 0x40 MLOAD RETURNDATASIZE PUSH1 0x1F NOT PUSH1 0x1F DUP3 ADD AND DUP3 ADD DUP1 PUSH1 0x40 MSTORE POP PUSH2 0x1E03 SWAP2 SWAP1 DUP2 ADD SWAP1 PUSH2 0x4318 JUMP JUMPDEST PUSH1 0x1 PUSH1 0x1 PUSH1 0x80 SHL SUB AND SWAP1 PUSH4 0xFFFFFFFF PUSH2 0x25C8 AND JUMP JUMPDEST PUSH1 0x40 MLOAD DUP3 PUSH4 0xFFFFFFFF AND PUSH1 0xE0 SHL DUP2 MSTORE PUSH1 0x4 ADD PUSH2 0x1E34 SWAP2 SWAP1 PUSH2 0x4E97 JUMP JUMPDEST PUSH1 0x0 PUSH1 0x40 MLOAD DUP1 DUP4 SUB DUP2 PUSH1 0x0 DUP8 DUP1 EXTCODESIZE ISZERO DUP1 ISZERO PUSH2 0x1E4E JUMPI PUSH1 0x0 DUP1 REVERT JUMPDEST POP GAS CALL ISZERO DUP1 ISZERO PUSH2 0x1E62 JUMPI RETURNDATASIZE PUSH1 0x0 DUP1 RETURNDATACOPY RETURNDATASIZE PUSH1 0x0 REVERT JUMPDEST POP POP POP POP DUP2 PUSH1 0x0 LT ISZERO PUSH2 0x1ED5 JUMPI PUSH2 0x1E77 PUSH2 0x260F JUMP JUMPDEST PUSH1 0x1 PUSH1 0x1 PUSH1 0xA0 SHL SUB AND PUSH4 0xD289ADE2 DUP4 PUSH1 0x40 MLOAD DUP3 PUSH4 0xFFFFFFFF AND PUSH1 0xE0 SHL DUP2 MSTORE PUSH1 0x4 ADD PUSH2 0x1EA2 SWAP2 SWAP1 PUSH2 0x4C25 JUMP JUMPDEST PUSH1 0x0 PUSH1 0x40 MLOAD DUP1 DUP4 SUB DUP2 PUSH1 0x0 DUP8 DUP1 EXTCODESIZE ISZERO DUP1 ISZERO PUSH2 0x1EBC JUMPI PUSH1 0x0 DUP1 REVERT JUMPDEST POP GAS CALL ISZERO DUP1 ISZERO PUSH2 0x1ED0 JUMPI RETURNDATASIZE PUSH1 0x0 DUP1 RETURNDATACOPY RETURNDATASIZE PUSH1 0x0 REVERT JUMPDEST POP POP POP POP JUMPDEST PUSH1 0xC0 DUP8 ADD MLOAD ISZERO PUSH2 0x1EFF JUMPI PUSH2 0x1EFF DUP8 PUSH1 0xC0 ADD MLOAD PUSH2 0x1EEF PUSH2 0x220F JUMP JUMPDEST PUSH2 0x1EF7 PUSH2 0x19CE JUMP JUMPDEST DUP11 MLOAD DUP7 PUSH2 0x2F4A JUMP JUMPDEST PUSH1 0x40 DUP1 DUP5 ADD MLOAD PUSH1 0x1 PUSH1 0x1 PUSH1 0x80 SHL SUB AND SWAP1 DUP7 ADD MSTORE PUSH2 0x1F1C DUP4 DUP6 PUSH2 0x2FFB JUMP JUMPDEST DUP4 MLOAD PUSH1 0x0 PUSH2 0x1F28 PUSH2 0x297F JUMP JUMPDEST SWAP1 POP DUP5 PUSH1 0x80 ADD MLOAD PUSH1 0xF SIGNEXTEND PUSH1 0x0 EQ ISZERO PUSH2 0x1F57 JUMPI PUSH1 0x0 DUP1 DUP9 MSTORE PUSH1 0x80 DUP9 ADD DUP2 SWAP1 MSTORE PUSH1 0x60 DUP9 ADD DUP2 SWAP1 MSTORE PUSH1 0x20 DUP9 ADD MSTORE PUSH2 0x207C JUMP JUMPDEST PUSH1 0x80 DUP7 ADD MLOAD PUSH1 0xF SIGNEXTEND PUSH2 0x2043 JUMPI PUSH1 0x4 DUP1 SLOAD PUSH1 0x40 DUP1 MLOAD PUSH4 0x899346C7 PUSH1 0xE0 SHL DUP2 MSTORE SWAP1 MLOAD PUSH1 0x1 PUSH1 0x1 PUSH1 0xA0 SHL SUB SWAP1 SWAP3 AND SWAP3 PUSH4 0x899346C7 SWAP3 DUP3 DUP3 ADD SWAP3 PUSH1 0x20 SWAP3 SWAP1 DUP3 SWAP1 SUB ADD DUP2 DUP7 DUP1 EXTCODESIZE ISZERO DUP1 ISZERO PUSH2 0x1FA5 JUMPI PUSH1 0x0 DUP1 REVERT JUMPDEST POP GAS STATICCALL ISZERO DUP1 ISZERO PUSH2 0x1FB9 JUMPI RETURNDATASIZE PUSH1 0x0 DUP1 RETURNDATACOPY RETURNDATASIZE PUSH1 0x0 REVERT JUMPDEST POP POP POP POP PUSH1 0x40 MLOAD RETURNDATASIZE PUSH1 0x1F NOT PUSH1 0x1F DUP3 ADD AND DUP3 ADD DUP1 PUSH1 0x40 MSTORE POP PUSH2 0x1FDD SWAP2 SWAP1 DUP2 ADD SWAP1 PUSH2 0x43C7 JUMP JUMPDEST PUSH1 0x4 DUP1 SLOAD PUSH1 0x40 MLOAD PUSH4 0x1DBAD551 PUSH1 0xE3 SHL DUP2 MSTORE SWAP3 SWAP5 POP PUSH1 0x1 PUSH1 0x1 PUSH1 0xA0 SHL SUB AND SWAP2 PUSH4 0xEDD6AA88 SWAP2 PUSH2 0x2010 SWAP2 PUSH1 0x1 DUP8 ADD SWAP2 ADD PUSH2 0x4F29 JUMP JUMPDEST PUSH1 0x0 PUSH1 0x40 MLOAD DUP1 DUP4 SUB DUP2 PUSH1 0x0 DUP8 DUP1 EXTCODESIZE ISZERO DUP1 ISZERO PUSH2 0x202A JUMPI PUSH1 0x0 DUP1 REVERT JUMPDEST POP GAS CALL ISZERO DUP1 ISZERO PUSH2 0x203E JUMPI RETURNDATASIZE PUSH1 0x0 DUP1 RETURNDATACOPY RETURNDATASIZE PUSH1 0x0 REVERT JUMPDEST POP POP POP POP JUMPDEST PUSH1 0x1 PUSH1 0x1 PUSH1 0x40 SHL SUB DUP1 DUP4 AND DUP9 MSTORE PUSH1 0x80 DUP1 DUP8 ADD MLOAD PUSH1 0xF SWAP1 DUP2 SIGNEXTEND SWAP1 SIGNEXTEND SWAP1 DUP10 ADD MSTORE PUSH1 0x40 DUP11 ADD MLOAD PUSH1 0x1 PUSH1 0x1 PUSH1 0x80 SHL SUB AND PUSH1 0x60 DUP10 ADD MSTORE DUP2 AND PUSH1 0x20 DUP9 ADD MSTORE JUMPDEST PUSH1 0x4 PUSH1 0x0 SWAP1 SLOAD SWAP1 PUSH2 0x100 EXP SWAP1 DIV PUSH1 0x1 PUSH1 0x1 PUSH1 0xA0 SHL SUB AND PUSH1 0x1 PUSH1 0x1 PUSH1 0xA0 SHL SUB AND PUSH4 0x5AF0D81F DUP12 DUP10 PUSH1 0x0 ADD MLOAD DUP11 PUSH1 0x20 ADD MLOAD DUP12 PUSH1 0x40 ADD MLOAD DUP13 PUSH1 0x60 ADD MLOAD DUP14 PUSH1 0x80 ADD MLOAD PUSH1 0x40 MLOAD DUP8 PUSH4 0xFFFFFFFF AND PUSH1 0xE0 SHL DUP2 MSTORE PUSH1 0x4 ADD PUSH2 0x20DB SWAP7 SWAP6 SWAP5 SWAP4 SWAP3 SWAP2 SWAP1 PUSH2 0x4BAC JUMP JUMPDEST PUSH1 0x0 PUSH1 0x40 MLOAD DUP1 DUP4 SUB DUP2 PUSH1 0x0 DUP8 DUP1 EXTCODESIZE ISZERO DUP1 ISZERO PUSH2 0x20F5 JUMPI PUSH1 0x0 DUP1 REVERT JUMPDEST POP GAS CALL ISZERO DUP1 ISZERO PUSH2 0x2109 JUMPI RETURNDATASIZE PUSH1 0x0 DUP1 RETURNDATACOPY RETURNDATASIZE PUSH1 0x0 REVERT JUMPDEST POP POP POP POP PUSH2 0x218B DUP3 PUSH1 0x1 PUSH1 0x1 PUSH1 0x40 SHL SUB AND DUP12 DUP8 PUSH1 0x40 ADD MLOAD PUSH1 0x1 PUSH1 0x1 PUSH1 0x80 SHL SUB AND DUP9 PUSH1 0x80 ADD MLOAD PUSH1 0xF SIGNEXTEND DUP14 PUSH1 0x0 ADD MLOAD DUP15 PUSH1 0x40 ADD MLOAD DUP8 DUP12 PUSH1 0x4 PUSH1 0x0 SWAP1 SLOAD SWAP1 PUSH2 0x100 EXP SWAP1 DIV PUSH1 0x1 PUSH1 0x1 PUSH1 0xA0 SHL SUB AND PUSH1 0x1 PUSH1 0x1 PUSH1 0xA0 SHL SUB AND PUSH4 0x2B58ECEF PUSH1 0x40 MLOAD DUP2 PUSH4 0xFFFFFFFF AND PUSH1 0xE0 SHL DUP2 MSTORE PUSH1 0x4 ADD PUSH1 0x20 PUSH1 0x40 MLOAD DUP1 DUP4 SUB DUP2 DUP7 DUP1 EXTCODESIZE ISZERO DUP1 ISZERO PUSH2 0x157B JUMPI PUSH1 0x0 DUP1 REVERT JUMPDEST POP POP POP POP POP POP POP POP POP POP JUMP JUMPDEST PUSH1 0x0 DUP2 DUP2 MSTORE PUSH1 0x3 PUSH1 0x20 SWAP1 DUP2 MSTORE PUSH1 0x40 DUP1 DUP4 KECCAK256 SLOAD SWAP1 MLOAD PUSH1 0x1 PUSH1 0x1 PUSH1 0xA0 SHL SUB SWAP1 SWAP2 AND SWAP2 DUP3 ISZERO ISZERO SWAP2 PUSH2 0x21C7 SWAP2 DUP7 SWAP2 ADD PUSH2 0x4B03 JUMP JUMPDEST PUSH1 0x40 MLOAD PUSH1 0x20 DUP2 DUP4 SUB SUB DUP2 MSTORE SWAP1 PUSH1 0x40 MSTORE SWAP1 PUSH2 0x1895 JUMPI PUSH1 0x40 MLOAD PUSH3 0x461BCD PUSH1 0xE5 SHL DUP2 MSTORE PUSH1 0x4 ADD PUSH2 0x47C SWAP2 SWAP1 PUSH2 0x4D95 JUMP JUMPDEST PUSH1 0x0 PUSH2 0xB3D PUSH13 0x45786368616E67655261746573 PUSH1 0x98 SHL PUSH2 0x2197 JUMP JUMPDEST PUSH1 0x0 PUSH1 0x4 PUSH1 0x0 SWAP1 SLOAD SWAP1 PUSH2 0x100 EXP SWAP1 DIV PUSH1 0x1 PUSH1 0x1 PUSH1 0xA0 SHL SUB AND PUSH1 0x1 PUSH1 0x1 PUSH1 0xA0 SHL SUB AND PUSH4 0xCDF456E1 PUSH1 0x40 MLOAD DUP2 PUSH4 0xFFFFFFFF AND PUSH1 0xE0 SHL DUP2 MSTORE PUSH1 0x4 ADD PUSH1 0x20 PUSH1 0x40 MLOAD DUP1 DUP4 SUB DUP2 DUP7 DUP1 EXTCODESIZE ISZERO DUP1 ISZERO PUSH2 0x1A1E JUMPI PUSH1 0x0 DUP1 REVERT JUMPDEST PUSH1 0x0 PUSH2 0xB3D PUSH12 0x53797374656D537461747573 PUSH1 0xA0 SHL PUSH2 0x2197 JUMP JUMPDEST PUSH1 0x0 PUSH2 0xB3D PUSH2 0x229D PUSH2 0x2289 PUSH2 0x3089 JUMP JUMPDEST PUSH2 0x2291 PUSH2 0x3130 JUMP JUMPDEST SWAP1 PUSH4 0xFFFFFFFF PUSH2 0x2AEF AND JUMP JUMPDEST PUSH1 0x4 DUP1 SLOAD PUSH1 0x40 DUP1 MLOAD PUSH4 0x72264261 PUSH1 0xE1 SHL DUP2 MSTORE SWAP1 MLOAD PUSH1 0x1 PUSH1 0x1 PUSH1 0xA0 SHL SUB SWAP1 SWAP3 AND SWAP3 PUSH4 0xE44C84C2 SWAP3 DUP3 DUP3 ADD SWAP3 PUSH1 0x20 SWAP3 SWAP1 DUP3 SWAP1 SUB ADD DUP2 DUP7 DUP1 EXTCODESIZE ISZERO DUP1 ISZERO PUSH2 0x1CAB JUMPI PUSH1 0x0 DUP1 REVERT JUMPDEST PUSH1 0x0 PUSH2 0x11EC PUSH2 0x22ED DUP4 PUSH2 0x3157 JUMP JUMPDEST PUSH1 0x4 SLOAD PUSH1 0x1 PUSH1 0x1 PUSH1 0xA0 SHL SUB AND PUSH4 0x41108CF2 PUSH2 0x2306 PUSH2 0x297F JUMP JUMPDEST PUSH1 0x40 MLOAD DUP3 PUSH4 0xFFFFFFFF AND PUSH1 0xE0 SHL DUP2 MSTORE PUSH1 0x4 ADD PUSH2 0x2322 SWAP2 SWAP1 PUSH2 0x4C25 JUMP JUMPDEST PUSH1 0x20 PUSH1 0x40 MLOAD DUP1 DUP4 SUB DUP2 DUP7 DUP1 EXTCODESIZE ISZERO DUP1 ISZERO PUSH2 0x1CAB JUMPI PUSH1 0x0 DUP1 REVERT JUMPDEST PUSH1 0x6 SLOAD PUSH1 0x40 MLOAD PUSH1 0x1 PUSH1 0x1 PUSH1 0xA0 SHL SUB SWAP1 SWAP2 AND SWAP1 PUSH4 0x907DFF97 SWAP1 PUSH2 0x2366 SWAP1 DUP8 SWAP1 DUP8 SWAP1 DUP8 SWAP1 DUP8 SWAP1 PUSH1 0x20 ADD PUSH2 0x4C4F JUMP JUMPDEST PUSH1 0x40 MLOAD PUSH1 0x20 DUP2 DUP4 SUB SUB DUP2 MSTORE SWAP1 PUSH1 0x40 MSTORE PUSH1 0x1 PUSH1 0x40 MLOAD PUSH2 0x2383 SWAP1 PUSH2 0x4B4F JUMP JUMPDEST PUSH1 0x40 MLOAD SWAP1 DUP2 SWAP1 SUB DUP2 KECCAK256 PUSH1 0x1 PUSH1 0x1 PUSH1 0xE0 SHL SUB NOT PUSH1 0xE0 DUP7 SWAP1 SHL AND DUP3 MSTORE PUSH2 0x23B2 SWAP4 SWAP3 SWAP2 PUSH1 0x0 SWAP1 DUP2 SWAP1 DUP2 SWAP1 PUSH1 0x4 ADD PUSH2 0x4CA4 JUMP JUMPDEST PUSH1 0x0 PUSH1 0x40 MLOAD DUP1 DUP4 SUB DUP2 PUSH1 0x0 DUP8 DUP1 EXTCODESIZE ISZERO DUP1 ISZERO PUSH2 0x23CC JUMPI PUSH1 0x0 DUP1 REVERT JUMPDEST POP GAS CALL ISZERO DUP1 ISZERO PUSH2 0x23E0 JUMPI RETURNDATASIZE PUSH1 0x0 DUP1 RETURNDATACOPY RETURNDATASIZE PUSH1 0x0 REVERT JUMPDEST POP POP POP POP POP POP POP POP JUMP JUMPDEST PUSH1 0x0 PUSH2 0x23F4 PUSH2 0x31E4 JUMP JUMPDEST PUSH1 0x1 PUSH1 0x1 PUSH1 0xA0 SHL SUB AND PUSH4 0xF7833C5D PUSH1 0x0 DUP1 MLOAD PUSH1 0x20 PUSH2 0x506F DUP4 CODECOPY DUP2 MLOAD SWAP2 MSTORE DUP5 PUSH17 0x6F6666636861696E4D61726B65744B6579 PUSH1 0x78 SHL PUSH1 0x40 MLOAD PUSH1 0x20 ADD PUSH2 0x2438 SWAP3 SWAP2 SWAP1 PUSH2 0x4ADD JUMP JUMPDEST PUSH1 0x40 MLOAD PUSH1 0x20 DUP2 DUP4 SUB SUB DUP2 MSTORE SWAP1 PUSH1 0x40 MSTORE DUP1 MLOAD SWAP1 PUSH1 0x20 ADD KECCAK256 PUSH1 0x40 MLOAD DUP4 PUSH4 0xFFFFFFFF AND PUSH1 0xE0 SHL DUP2 MSTORE PUSH1 0x4 ADD PUSH2 0x246B SWAP3 SWAP2 SWAP1 PUSH2 0x4C41 JUMP JUMPDEST PUSH1 0x20 PUSH1 0x40 MLOAD DUP1 DUP4 SUB DUP2 DUP7 DUP1 EXTCODESIZE ISZERO DUP1 ISZERO PUSH2 0x2483 JUMPI PUSH1 0x0 DUP1 REVERT JUMPDEST POP GAS STATICCALL ISZERO DUP1 ISZERO PUSH2 0x2497 JUMPI RETURNDATASIZE PUSH1 0x0 DUP1 RETURNDATACOPY RETURNDATASIZE PUSH1 0x0 REVERT JUMPDEST POP POP POP POP PUSH1 0x40 MLOAD RETURNDATASIZE PUSH1 0x1F NOT PUSH1 0x1F DUP3 ADD AND DUP3 ADD DUP1 PUSH1 0x40 MSTORE POP PUSH2 0x11EC SWAP2 SWAP1 DUP2 ADD SWAP1 PUSH2 0x41FA JUMP JUMPDEST PUSH1 0x0 PUSH2 0x11EC DUP3 PUSH11 0x6D61784C65766572616765 PUSH1 0xA8 SHL PUSH2 0x2B19 JUMP JUMPDEST PUSH1 0x0 DUP3 DUP3 GT ISZERO PUSH2 0x24F7 JUMPI PUSH1 0x40 MLOAD PUSH3 0x461BCD PUSH1 0xE5 SHL DUP2 MSTORE PUSH1 0x4 ADD PUSH2 0x47C SWAP1 PUSH2 0x4DF7 JUMP JUMPDEST POP SWAP1 SUB SWAP1 JUMP JUMPDEST PUSH1 0x0 PUSH2 0x250F DUP4 DUP4 PUSH4 0xFFFFFFFF PUSH2 0x2AEF AND JUMP JUMPDEST SWAP4 SWAP3 POP POP POP JUMP JUMPDEST PUSH1 0x0 PUSH2 0x250F DUP3 PUSH2 0x2534 DUP6 PUSH8 0xDE0B6B3A7640000 PUSH4 0xFFFFFFFF PUSH2 0x3201 AND JUMP JUMPDEST SWAP1 PUSH4 0xFFFFFFFF PUSH2 0x326C AND JUMP JUMPDEST PUSH1 0x0 PUSH2 0x11EC DUP3 PUSH2 0x32D0 JUMP JUMPDEST PUSH1 0x0 PUSH2 0x2555 PUSH2 0x31E4 JUMP JUMPDEST PUSH1 0x1 PUSH1 0x1 PUSH1 0xA0 SHL SUB AND PUSH4 0x23257C2B PUSH1 0x0 DUP1 MLOAD PUSH1 0x20 PUSH2 0x506F DUP4 CODECOPY DUP2 MLOAD SWAP2 MSTORE PUSH32 0x706572707356324D696E496E697469616C4D617267696E000000000000000000 PUSH1 0x40 MLOAD DUP4 PUSH4 0xFFFFFFFF AND PUSH1 0xE0 SHL DUP2 MSTORE PUSH1 0x4 ADD PUSH2 0x25B0 SWAP3 SWAP2 SWAP1 PUSH2 0x4C41 JUMP JUMPDEST PUSH1 0x20 PUSH1 0x40 MLOAD DUP1 DUP4 SUB DUP2 DUP7 DUP1 EXTCODESIZE ISZERO DUP1 ISZERO PUSH2 0x1A1E JUMPI PUSH1 0x0 DUP1 REVERT JUMPDEST PUSH1 0x0 DUP3 DUP3 ADD DUP4 DUP2 LT ISZERO PUSH2 0x250F JUMPI PUSH1 0x40 MLOAD PUSH3 0x461BCD PUSH1 0xE5 SHL DUP2 MSTORE PUSH1 0x4 ADD PUSH2 0x47C SWAP1 PUSH2 0x4DD7 JUMP JUMPDEST PUSH1 0x0 DUP1 PUSH2 0x25FA DUP5 DUP5 PUSH2 0x32E6 JUMP JUMPDEST SWAP1 POP PUSH2 0x2607 PUSH1 0x0 DUP3 PUSH2 0x332C JUMP JUMPDEST SWAP5 SWAP4 POP POP POP POP JUMP JUMPDEST PUSH1 0x0 PUSH2 0xB3D PUSH20 0x233ABA3AB932B9A6B0B935B2BA26B0B730B3B2B9 PUSH1 0x61 SHL PUSH2 0x2197 JUMP JUMPDEST PUSH2 0x2639 PUSH2 0x3FB5 JUMP JUMPDEST POP DUP4 PUSH1 0x0 DUP1 PUSH2 0x2649 DUP4 DUP7 DUP7 PUSH2 0x3341 JUMP JUMPDEST SWAP2 POP SWAP2 POP PUSH2 0x2656 DUP2 PUSH2 0x2EBE JUMP JUMPDEST PUSH1 0x0 PUSH2 0x2660 PUSH2 0x297F JUMP JUMPDEST SWAP1 POP PUSH2 0x271C PUSH1 0x40 MLOAD DUP1 PUSH1 0xA0 ADD PUSH1 0x40 MSTORE DUP1 PUSH1 0x0 PUSH1 0x1 PUSH1 0x1 PUSH1 0x40 SHL SUB AND DUP2 MSTORE PUSH1 0x20 ADD DUP4 PUSH1 0x1 PUSH1 0x1 PUSH1 0x40 SHL SUB AND DUP2 MSTORE PUSH1 0x20 ADD DUP6 PUSH1 0x1 PUSH1 0x1 PUSH1 0x80 SHL SUB AND DUP2 MSTORE PUSH1 0x20 ADD DUP9 PUSH1 0x1 PUSH1 0x1 PUSH1 0x80 SHL SUB AND DUP2 MSTORE PUSH1 0x20 ADD DUP11 PUSH1 0x80 ADD MLOAD PUSH1 0xF SIGNEXTEND DUP2 MSTORE POP PUSH1 0x40 MLOAD DUP1 PUSH1 0xA0 ADD PUSH1 0x40 MSTORE DUP1 PUSH1 0x0 PUSH1 0x1 PUSH1 0x1 PUSH1 0x40 SHL SUB AND DUP2 MSTORE PUSH1 0x20 ADD DUP12 PUSH1 0x20 ADD MLOAD PUSH1 0x1 PUSH1 0x1 PUSH1 0x40 SHL SUB AND DUP2 MSTORE PUSH1 0x20 ADD DUP12 PUSH1 0x40 ADD MLOAD PUSH1 0x1 PUSH1 0x1 PUSH1 0x80 SHL SUB AND DUP2 MSTORE PUSH1 0x20 ADD DUP12 PUSH1 0x60 ADD MLOAD PUSH1 0x1 PUSH1 0x1 PUSH1 0x80 SHL SUB AND DUP2 MSTORE PUSH1 0x20 ADD DUP12 PUSH1 0x80 ADD MLOAD PUSH1 0xF SIGNEXTEND DUP2 MSTORE POP PUSH2 0x2FFB JUMP JUMPDEST PUSH1 0x1 PUSH1 0x1 PUSH1 0x80 SHL SUB DUP4 AND PUSH1 0x40 DUP10 ADD MSTORE PUSH1 0x80 DUP9 ADD MLOAD PUSH1 0xF SIGNEXTEND ISZERO PUSH2 0x283D JUMPI PUSH1 0x1 PUSH1 0x1 PUSH1 0x80 SHL SUB DUP7 AND PUSH1 0x60 DUP10 ADD MSTORE PUSH1 0x1 PUSH1 0x1 PUSH1 0x40 SHL SUB DUP2 AND PUSH1 0x20 DUP10 ADD MSTORE PUSH1 0x0 DUP6 SLT ISZERO PUSH2 0x283D JUMPI PUSH1 0x0 PUSH2 0x2772 DUP10 PUSH1 0x80 ADD MLOAD PUSH1 0xF SIGNEXTEND DUP9 PUSH2 0x33BC JUMP JUMPDEST SWAP1 POP PUSH1 0x0 PUSH2 0x2797 DUP3 PUSH2 0x278B DUP13 PUSH1 0x80 ADD MLOAD PUSH1 0xF SIGNEXTEND DUP12 PUSH2 0x3422 JUMP JUMPDEST SWAP1 PUSH4 0xFFFFFFFF PUSH2 0x25C8 AND JUMP JUMPDEST SWAP1 POP PUSH2 0x27A7 DUP2 DUP7 GT ISZERO PUSH1 0x8 PUSH2 0xB42 JUMP JUMPDEST PUSH1 0x80 DUP11 ADD MLOAD PUSH1 0x0 SWAP1 PUSH2 0x27C2 SWAP1 PUSH1 0xF SIGNEXTEND DUP12 PUSH4 0xFFFFFFFF PUSH2 0x2AA9 AND JUMP JUMPDEST SWAP1 POP PUSH1 0x0 PUSH2 0x27D7 DUP13 PUSH1 0x80 ADD MLOAD PUSH1 0xF SIGNEXTEND DUP4 PUSH2 0x346C JUMP JUMPDEST DUP1 ISZERO PUSH2 0x27F9 JUMPI POP PUSH2 0x27EE DUP13 PUSH1 0x80 ADD MLOAD PUSH1 0xF SIGNEXTEND PUSH2 0x2540 JUMP JUMPDEST PUSH2 0x27F7 DUP4 PUSH2 0x2540 JUMP JUMPDEST LT JUMPDEST SWAP1 POP DUP1 PUSH2 0x2838 JUMPI PUSH2 0x2824 PUSH2 0x2811 PUSH2 0x117A DUP15 DUP14 DUP12 PUSH2 0x348B JUMP JUMPDEST PUSH2 0x281C PUSH2 0x1141 PUSH2 0x19CE JUMP JUMPDEST LT PUSH1 0x7 PUSH2 0xB42 JUMP JUMPDEST PUSH2 0x2838 PUSH2 0x282F PUSH2 0x254B JUMP JUMPDEST DUP9 LT PUSH1 0x8 PUSH2 0xB42 JUMP JUMPDEST POP POP POP POP JUMPDEST PUSH1 0x4 PUSH1 0x0 SWAP1 SLOAD SWAP1 PUSH2 0x100 EXP SWAP1 DIV PUSH1 0x1 PUSH1 0x1 PUSH1 0xA0 SHL SUB AND PUSH1 0x1 PUSH1 0x1 PUSH1 0xA0 SHL SUB AND PUSH4 0x5AF0D81F DUP11 DUP11 PUSH1 0x0 ADD MLOAD DUP12 PUSH1 0x20 ADD MLOAD DUP13 PUSH1 0x40 ADD MLOAD DUP14 PUSH1 0x60 ADD MLOAD DUP15 PUSH1 0x80 ADD MLOAD PUSH1 0x40 MLOAD DUP8 PUSH4 0xFFFFFFFF AND PUSH1 0xE0 SHL DUP2 MSTORE PUSH1 0x4 ADD PUSH2 0x289C SWAP7 SWAP6 SWAP5 SWAP4 SWAP3 SWAP2 SWAP1 PUSH2 0x4BAC JUMP JUMPDEST PUSH1 0x0 PUSH1 0x40 MLOAD DUP1 DUP4 SUB DUP2 PUSH1 0x0 DUP8 DUP1 EXTCODESIZE ISZERO DUP1 ISZERO PUSH2 0x28B6 JUMPI PUSH1 0x0 DUP1 REVERT JUMPDEST POP GAS CALL ISZERO DUP1 ISZERO PUSH2 0x28CA JUMPI RETURNDATASIZE PUSH1 0x0 DUP1 RETURNDATACOPY RETURNDATASIZE PUSH1 0x0 REVERT JUMPDEST POP POP POP POP POP POP POP POP POP POP POP POP POP JUMP JUMPDEST PUSH1 0x6 SLOAD PUSH1 0x40 MLOAD PUSH1 0x1 PUSH1 0x1 PUSH1 0xA0 SHL SUB SWAP1 SWAP2 AND SWAP1 PUSH4 0x907DFF97 SWAP1 PUSH2 0x28FF SWAP1 DUP5 SWAP1 PUSH1 0x20 ADD PUSH2 0x4C25 JUMP JUMPDEST PUSH1 0x40 MLOAD PUSH1 0x20 DUP2 DUP4 SUB SUB DUP2 MSTORE SWAP1 PUSH1 0x40 MSTORE PUSH1 0x2 PUSH1 0x40 MLOAD PUSH2 0x291C SWAP1 PUSH2 0x4B44 JUMP JUMPDEST PUSH1 0x40 MLOAD DUP1 SWAP2 SUB SWAP1 KECCAK256 PUSH2 0x292D DUP8 PUSH2 0x34AF JUMP JUMPDEST PUSH1 0x0 DUP1 PUSH1 0x40 MLOAD DUP8 PUSH4 0xFFFFFFFF AND PUSH1 0xE0 SHL DUP2 MSTORE PUSH1 0x4 ADD PUSH2 0x2951 SWAP7 SWAP6 SWAP5 SWAP4 SWAP3 SWAP2 SWAP1 PUSH2 0x4CF8 JUMP JUMPDEST PUSH1 0x0 PUSH1 0x40 MLOAD DUP1 DUP4 SUB DUP2 PUSH1 0x0 DUP8 DUP1 EXTCODESIZE ISZERO DUP1 ISZERO PUSH2 0x296B JUMPI PUSH1 0x0 DUP1 REVERT JUMPDEST POP GAS CALL ISZERO DUP1 ISZERO PUSH2 0x15BB JUMPI RETURNDATASIZE PUSH1 0x0 DUP1 RETURNDATACOPY RETURNDATASIZE PUSH1 0x0 REVERT JUMPDEST PUSH1 0x0 PUSH2 0xB3D PUSH1 0x1 PUSH1 0x4 PUSH1 0x0 SWAP1 SLOAD SWAP1 PUSH2 0x100 EXP SWAP1 DIV PUSH1 0x1 PUSH1 0x1 PUSH1 0xA0 SHL SUB AND PUSH1 0x1 PUSH1 0x1 PUSH1 0xA0 SHL SUB AND PUSH4 0xCDED0CEA PUSH1 0x40 MLOAD DUP2 PUSH4 0xFFFFFFFF AND PUSH1 0xE0 SHL DUP2 MSTORE PUSH1 0x4 ADD PUSH1 0x20 PUSH1 0x40 MLOAD DUP1 DUP4 SUB DUP2 DUP7 DUP1 EXTCODESIZE ISZERO DUP1 ISZERO PUSH2 0x29D4 JUMPI PUSH1 0x0 DUP1 REVERT JUMPDEST POP GAS STATICCALL ISZERO DUP1 ISZERO PUSH2 0x29E8 JUMPI RETURNDATASIZE PUSH1 0x0 DUP1 RETURNDATACOPY RETURNDATASIZE PUSH1 0x0 REVERT JUMPDEST POP POP POP POP PUSH1 0x40 MLOAD RETURNDATASIZE PUSH1 0x1F NOT PUSH1 0x1F DUP3 ADD AND DUP3 ADD DUP1 PUSH1 0x40 MSTORE POP PUSH2 0x1146 SWAP2 SWAP1 DUP2 ADD SWAP1 PUSH2 0x41FA JUMP JUMPDEST PUSH1 0x6 SLOAD PUSH1 0x40 MLOAD PUSH1 0x1 PUSH1 0x1 PUSH1 0xA0 SHL SUB SWAP1 SWAP2 AND SWAP1 PUSH4 0x907DFF97 SWAP1 PUSH2 0x2A3E SWAP1 DUP11 SWAP1 DUP11 SWAP1 DUP11 SWAP1 DUP11 SWAP1 DUP11 SWAP1 DUP11 SWAP1 DUP11 SWAP1 PUSH1 0x20 ADD PUSH2 0x4EA5 JUMP JUMPDEST PUSH1 0x40 MLOAD PUSH1 0x20 DUP2 DUP4 SUB SUB DUP2 MSTORE SWAP1 PUSH1 0x40 MSTORE PUSH1 0x3 PUSH1 0x40 MLOAD PUSH2 0x2A5B SWAP1 PUSH2 0x4B2E JUMP JUMPDEST PUSH1 0x40 MLOAD SWAP1 DUP2 SWAP1 SUB SWAP1 KECCAK256 DUP14 PUSH2 0x2A6E DUP15 PUSH2 0x34AF JUMP JUMPDEST PUSH1 0x0 PUSH1 0x40 MLOAD DUP8 PUSH4 0xFFFFFFFF AND PUSH1 0xE0 SHL DUP2 MSTORE PUSH1 0x4 ADD PUSH2 0x289C SWAP7 SWAP6 SWAP5 SWAP4 SWAP3 SWAP2 SWAP1 PUSH2 0x4D32 JUMP JUMPDEST PUSH1 0x0 PUSH2 0x11EC DUP3 PUSH9 0x736B65775363616C65 PUSH1 0xB8 SHL PUSH2 0x2B19 JUMP JUMPDEST PUSH1 0x0 DUP3 DUP3 ADD DUP2 DUP4 SLT DUP1 ISZERO SWAP1 PUSH2 0x2ABE JUMPI POP DUP4 DUP2 SLT ISZERO JUMPDEST DUP1 PUSH2 0x2AD3 JUMPI POP PUSH1 0x0 DUP4 SLT DUP1 ISZERO PUSH2 0x2AD3 JUMPI POP DUP4 DUP2 SLT JUMPDEST PUSH2 0x250F JUMPI PUSH1 0x40 MLOAD PUSH3 0x461BCD PUSH1 0xE5 SHL DUP2 MSTORE PUSH1 0x4 ADD PUSH2 0x47C SWAP1 PUSH2 0x4DE7 JUMP JUMPDEST PUSH1 0x0 PUSH8 0xDE0B6B3A7640000 PUSH2 0x2B0A DUP5 DUP5 PUSH4 0xFFFFFFFF PUSH2 0x3201 AND JUMP JUMPDEST DUP2 PUSH2 0x2B11 JUMPI INVALID JUMPDEST SDIV SWAP4 SWAP3 POP POP POP JUMP JUMPDEST PUSH1 0x0 PUSH2 0x2B23 PUSH2 0x31E4 JUMP JUMPDEST PUSH1 0x1 PUSH1 0x1 PUSH1 0xA0 SHL SUB AND PUSH4 0x23257C2B PUSH1 0x0 DUP1 MLOAD PUSH1 0x20 PUSH2 0x506F DUP4 CODECOPY DUP2 MLOAD SWAP2 MSTORE DUP6 DUP6 PUSH1 0x40 MLOAD PUSH1 0x20 ADD PUSH2 0x2B53 SWAP3 SWAP2 SWAP1 PUSH2 0x4ADD JUMP JUMPDEST PUSH1 0x40 MLOAD PUSH1 0x20 DUP2 DUP4 SUB SUB DUP2 MSTORE SWAP1 PUSH1 0x40 MSTORE DUP1 MLOAD SWAP1 PUSH1 0x20 ADD KECCAK256 PUSH1 0x40 MLOAD DUP4 PUSH4 0xFFFFFFFF AND PUSH1 0xE0 SHL DUP2 MSTORE PUSH1 0x4 ADD PUSH2 0x2B86 SWAP3 SWAP2 SWAP1 PUSH2 0x4C41 JUMP JUMPDEST PUSH1 0x20 PUSH1 0x40 MLOAD DUP1 DUP4 SUB DUP2 DUP7 DUP1 EXTCODESIZE ISZERO DUP1 ISZERO PUSH2 0x2B9E JUMPI PUSH1 0x0 DUP1 REVERT JUMPDEST POP GAS STATICCALL ISZERO DUP1 ISZERO PUSH2 0x2BB2 JUMPI RETURNDATASIZE PUSH1 0x0 DUP1 RETURNDATACOPY RETURNDATASIZE PUSH1 0x0 REVERT JUMPDEST POP POP POP POP PUSH1 0x40 MLOAD RETURNDATASIZE PUSH1 0x1F NOT PUSH1 0x1F DUP3 ADD AND DUP3 ADD DUP1 PUSH1 0x40 MSTORE POP PUSH2 0x250F SWAP2 SWAP1 DUP2 ADD SWAP1 PUSH2 0x41FA JUMP JUMPDEST PUSH2 0x2BDE PUSH2 0x3FB5 JUMP JUMPDEST DUP2 MLOAD PUSH1 0x0 SWAP1 DUP2 SWAP1 PUSH2 0x2BF8 JUMPI POP DUP4 SWAP2 POP PUSH1 0x0 SWAP1 POP PUSH1 0xA PUSH2 0x2EB7 JUMP JUMPDEST PUSH2 0x2C06 DUP6 DUP6 PUSH1 0x20 ADD MLOAD PUSH2 0x34BB JUMP JUMPDEST ISZERO PUSH2 0x2C1A JUMPI POP DUP4 SWAP2 POP PUSH1 0x0 SWAP1 POP PUSH1 0x4 PUSH2 0x2EB7 JUMP JUMPDEST PUSH1 0x0 DUP1 PUSH2 0x2C25 PUSH2 0x34F9 JUMP JUMPDEST SWAP2 POP SWAP2 POP DUP1 ISZERO PUSH2 0x2C42 JUMPI POP DUP6 SWAP4 POP PUSH1 0x0 SWAP3 POP PUSH1 0xC SWAP2 POP PUSH2 0x2EB7 SWAP1 POP JUMP JUMPDEST PUSH2 0x2C4C DUP7 DUP4 PUSH2 0x3596 JUMP JUMPDEST SWAP4 POP PUSH1 0x0 DUP1 PUSH2 0x2C63 DUP10 DUP10 PUSH1 0x40 ADD MLOAD DUP9 PUSH1 0x0 SUB PUSH2 0x3341 JUMP JUMPDEST SWAP2 POP SWAP2 POP PUSH2 0x2C70 DUP2 PUSH2 0x3790 JUMP JUMPDEST ISZERO PUSH2 0x2C87 JUMPI DUP9 SWAP7 POP PUSH1 0x0 SWAP6 POP SWAP4 POP PUSH2 0x2EB7 SWAP3 POP POP POP JUMP JUMPDEST PUSH2 0x2C8F PUSH2 0x3FB5 JUMP JUMPDEST PUSH1 0x40 MLOAD DUP1 PUSH1 0xA0 ADD PUSH1 0x40 MSTORE DUP1 DUP12 PUSH1 0x0 ADD MLOAD PUSH1 0x1 PUSH1 0x1 PUSH1 0x40 SHL SUB AND DUP2 MSTORE PUSH1 0x20 ADD PUSH2 0x2CB5 PUSH2 0x297F JUMP JUMPDEST PUSH1 0x1 PUSH1 0x1 PUSH1 0x40 SHL SUB AND DUP2 MSTORE PUSH1 0x20 ADD DUP5 PUSH1 0x1 PUSH1 0x1 PUSH1 0x80 SHL SUB AND DUP2 MSTORE PUSH1 0x20 ADD DUP11 PUSH1 0x40 ADD MLOAD PUSH1 0x1 PUSH1 0x1 PUSH1 0x80 SHL SUB AND DUP2 MSTORE PUSH1 0x20 ADD PUSH2 0x2D03 DUP12 PUSH1 0x0 ADD MLOAD DUP14 PUSH1 0x80 ADD MLOAD PUSH1 0xF SIGNEXTEND PUSH2 0x2AA9 SWAP1 SWAP2 SWAP1 PUSH4 0xFFFFFFFF AND JUMP JUMPDEST PUSH1 0xF SIGNEXTEND DUP2 MSTORE POP SWAP1 POP PUSH1 0x0 PUSH2 0x2D25 DUP12 PUSH1 0x80 ADD MLOAD PUSH1 0xF SIGNEXTEND DUP4 PUSH1 0x80 ADD MLOAD PUSH1 0xF SIGNEXTEND PUSH2 0x346C JUMP JUMPDEST DUP1 ISZERO PUSH2 0x2D4E JUMPI POP PUSH2 0x2D3C DUP12 PUSH1 0x80 ADD MLOAD PUSH1 0xF SIGNEXTEND PUSH2 0x2540 JUMP JUMPDEST PUSH2 0x2D4C DUP4 PUSH1 0x80 ADD MLOAD PUSH1 0xF SIGNEXTEND PUSH2 0x2540 JUMP JUMPDEST LT JUMPDEST SWAP1 POP DUP1 PUSH2 0x2D98 JUMPI PUSH2 0x2D5D PUSH2 0x254B JUMP JUMPDEST PUSH1 0x40 DUP4 ADD MLOAD PUSH2 0x2D7B SWAP1 PUSH1 0x1 PUSH1 0x1 PUSH1 0x80 SHL SUB AND DUP11 PUSH4 0xFFFFFFFF PUSH2 0x25C8 AND JUMP JUMPDEST LT ISZERO PUSH2 0x2D98 JUMPI POP DUP10 SWAP8 POP PUSH1 0x0 SWAP7 POP PUSH1 0x8 SWAP6 POP PUSH2 0x2EB7 SWAP5 POP POP POP POP POP JUMP JUMPDEST PUSH1 0x0 PUSH2 0x2DAF DUP4 PUSH1 0x80 ADD MLOAD PUSH1 0xF SIGNEXTEND DUP13 PUSH1 0x20 ADD MLOAD PUSH2 0x33BC JUMP JUMPDEST SWAP1 POP PUSH1 0x0 PUSH2 0x2DCC DUP3 PUSH2 0x278B DUP7 PUSH1 0x80 ADD MLOAD PUSH1 0xF SIGNEXTEND DUP16 PUSH1 0x20 ADD MLOAD PUSH2 0x3422 JUMP JUMPDEST SWAP1 POP DUP1 DUP7 GT PUSH2 0x2DED JUMPI POP SWAP2 SWAP9 POP PUSH1 0x0 SWAP8 POP PUSH1 0x4 SWAP7 POP PUSH2 0x2EB7 SWAP6 POP POP POP POP POP POP JUMP JUMPDEST PUSH1 0x0 PUSH2 0x2E20 PUSH2 0x2E02 DUP9 DUP14 PUSH4 0xFFFFFFFF PUSH2 0x25C8 AND JUMP JUMPDEST PUSH2 0x116E DUP16 PUSH1 0x40 ADD MLOAD DUP9 PUSH1 0x80 ADD MLOAD PUSH1 0xF SIGNEXTEND PUSH2 0x2AEF SWAP1 SWAP2 SWAP1 PUSH4 0xFFFFFFFF AND JUMP JUMPDEST SWAP1 POP PUSH2 0x2E2B DUP2 PUSH2 0x2540 JUMP JUMPDEST PUSH2 0x2E41 PUSH7 0x2386F26FC10000 PUSH2 0x278B PUSH2 0x1141 PUSH2 0x19CE JUMP JUMPDEST LT ISZERO PUSH2 0x2E61 JUMPI POP DUP13 SWAP11 POP PUSH1 0x0 SWAP10 POP PUSH1 0x7 SWAP9 POP PUSH2 0x2EB7 SWAP8 POP POP POP POP POP POP POP POP JUMP JUMPDEST POP PUSH2 0x2E8A PUSH2 0x2E75 PUSH2 0x2E70 PUSH2 0x19CE JUMP JUMPDEST PUSH2 0x37A7 JUMP JUMPDEST DUP15 PUSH1 0x80 ADD MLOAD PUSH1 0xF SIGNEXTEND DUP7 PUSH1 0x80 ADD MLOAD PUSH1 0xF SIGNEXTEND PUSH2 0x37C4 JUMP JUMPDEST ISZERO PUSH2 0x2EA8 JUMPI POP DUP12 SWAP10 POP PUSH1 0x0 SWAP9 POP PUSH1 0x6 SWAP8 POP PUSH2 0x2EB7 SWAP7 POP POP POP POP POP POP POP JUMP JUMPDEST POP SWAP2 SWAP9 POP PUSH1 0x0 SWAP7 POP POP POP POP POP POP POP JUMPDEST SWAP3 POP SWAP3 POP SWAP3 JUMP JUMPDEST PUSH2 0x2EC7 DUP2 PUSH2 0x3790 JUMP JUMPDEST ISZERO PUSH2 0x972 JUMPI PUSH1 0x5 PUSH1 0x0 DUP3 PUSH1 0xF DUP2 GT ISZERO PUSH2 0xB58 JUMPI INVALID JUMPDEST PUSH1 0x0 PUSH2 0x2EFC PUSH1 0x0 DUP4 SGT PUSH2 0x2EF1 JUMPI DUP4 DUP6 LT PUSH2 0x2EF5 JUMP JUMPDEST DUP4 DUP6 GT JUMPDEST PUSH1 0xD PUSH2 0xB42 JUMP JUMPDEST POP SWAP2 SWAP3 SWAP2 POP POP JUMP JUMPDEST PUSH1 0x0 DUP2 DUP4 SUB DUP2 DUP4 SLT DUP1 ISZERO SWAP1 PUSH2 0x2F19 JUMPI POP DUP4 DUP2 SGT ISZERO JUMPDEST DUP1 PUSH2 0x2F2E JUMPI POP PUSH1 0x0 DUP4 SLT DUP1 ISZERO PUSH2 0x2F2E JUMPI POP DUP4 DUP2 SGT JUMPDEST PUSH2 0x250F JUMPI PUSH1 0x40 MLOAD PUSH3 0x461BCD PUSH1 0xE5 SHL DUP2 MSTORE PUSH1 0x4 ADD PUSH2 0x47C SWAP1 PUSH2 0x4E57 JUMP JUMPDEST PUSH1 0x6 SLOAD PUSH1 0x40 MLOAD PUSH1 0x1 PUSH1 0x1 PUSH1 0xA0 SHL SUB SWAP1 SWAP2 AND SWAP1 PUSH4 0x907DFF97 SWAP1 PUSH2 0x2F76 SWAP1 DUP8 SWAP1 DUP8 SWAP1 DUP8 SWAP1 DUP8 SWAP1 PUSH1 0x20 ADD PUSH2 0x4C4F JUMP JUMPDEST PUSH1 0x40 MLOAD PUSH1 0x20 DUP2 DUP4 SUB SUB DUP2 MSTORE SWAP1 PUSH1 0x40 MSTORE PUSH1 0x2 PUSH1 0x40 MLOAD PUSH2 0x2F93 SWAP1 PUSH2 0x4B39 JUMP JUMPDEST PUSH1 0x40 MLOAD SWAP1 DUP2 SWAP1 SUB DUP2 KECCAK256 PUSH1 0x1 PUSH1 0x1 PUSH1 0xE0 SHL SUB NOT PUSH1 0xE0 DUP7 SWAP1 SHL AND DUP3 MSTORE PUSH2 0x2FC2 SWAP4 SWAP3 SWAP2 DUP12 SWAP1 PUSH1 0x0 SWAP1 DUP2 SWAP1 PUSH1 0x4 ADD PUSH2 0x4CF8 JUMP JUMPDEST PUSH1 0x0 PUSH1 0x40 MLOAD DUP1 DUP4 SUB DUP2 PUSH1 0x0 DUP8 DUP1 EXTCODESIZE ISZERO DUP1 ISZERO PUSH2 0x2FDC JUMPI PUSH1 0x0 DUP1 REVERT JUMPDEST POP GAS CALL ISZERO DUP1 ISZERO PUSH2 0x2FF0 JUMPI RETURNDATASIZE PUSH1 0x0 DUP1 RETURNDATACOPY RETURNDATASIZE PUSH1 0x0 REVERT JUMPDEST POP POP POP POP POP POP POP POP POP JUMP JUMPDEST PUSH1 0x0 PUSH2 0x3006 DUP4 PUSH2 0x39AE JUMP JUMPDEST SWAP1 POP PUSH1 0x0 PUSH2 0x3013 DUP4 PUSH2 0x39AE JUMP JUMPDEST PUSH1 0x4 DUP1 SLOAD PUSH1 0x40 DUP1 MLOAD PUSH4 0x11698485 PUSH1 0xE1 SHL DUP2 MSTORE SWAP1 MLOAD SWAP4 SWAP5 POP PUSH1 0x1 PUSH1 0x1 PUSH1 0xA0 SHL SUB SWAP1 SWAP2 AND SWAP3 PUSH4 0x104D46F7 SWAP3 PUSH2 0x306D SWAP3 DUP7 SWAP3 PUSH2 0x1CF2 SWAP3 DUP10 SWAP3 DUP9 SWAP3 PUSH4 0x22D3090A SWAP3 DUP3 DUP2 ADD SWAP3 PUSH1 0x20 SWAP3 SWAP2 SWAP1 DUP3 SWAP1 SUB ADD DUP2 DUP7 DUP1 EXTCODESIZE ISZERO DUP1 ISZERO PUSH2 0x1CAB JUMPI PUSH1 0x0 DUP1 REVERT JUMPDEST PUSH1 0x40 MLOAD DUP3 PUSH4 0xFFFFFFFF AND PUSH1 0xE0 SHL DUP2 MSTORE PUSH1 0x4 ADD PUSH2 0x23B2 SWAP2 SWAP1 PUSH2 0x4D87 JUMP JUMPDEST PUSH1 0x0 PUSH2 0xB3D PUSH3 0x15180 PUSH2 0x116E PUSH1 0x4 PUSH1 0x0 SWAP1 SLOAD SWAP1 PUSH2 0x100 EXP SWAP1 DIV PUSH1 0x1 PUSH1 0x1 PUSH1 0xA0 SHL SUB AND PUSH1 0x1 PUSH1 0x1 PUSH1 0xA0 SHL SUB AND PUSH4 0x27B9A236 PUSH1 0x40 MLOAD DUP2 PUSH4 0xFFFFFFFF AND PUSH1 0xE0 SHL DUP2 MSTORE PUSH1 0x4 ADD PUSH1 0x20 PUSH1 0x40 MLOAD DUP1 DUP4 SUB DUP2 DUP7 DUP1 EXTCODESIZE ISZERO DUP1 ISZERO PUSH2 0x30E3 JUMPI PUSH1 0x0 DUP1 REVERT JUMPDEST POP GAS STATICCALL ISZERO DUP1 ISZERO PUSH2 0x30F7 JUMPI RETURNDATASIZE PUSH1 0x0 DUP1 RETURNDATACOPY RETURNDATASIZE PUSH1 0x0 REVERT JUMPDEST POP POP POP POP PUSH1 0x40 MLOAD RETURNDATASIZE PUSH1 0x1F NOT PUSH1 0x1F DUP3 ADD AND DUP3 ADD DUP1 PUSH1 0x40 MSTORE POP PUSH2 0x311B SWAP2 SWAP1 DUP2 ADD SWAP1 PUSH2 0x43A9 JUMP JUMPDEST PUSH4 0xFFFFFFFF AND TIMESTAMP PUSH2 0x24D5 SWAP1 SWAP2 SWAP1 PUSH4 0xFFFFFFFF AND JUMP JUMPDEST PUSH1 0x0 DUP1 PUSH2 0x3143 PUSH2 0x313E PUSH2 0x19CE JUMP JUMPDEST PUSH2 0x3A8B JUMP JUMPDEST SWAP1 POP PUSH2 0x3151 DUP2 PUSH2 0x2291 PUSH2 0x3AAC JUMP JUMPDEST SWAP2 POP POP SWAP1 JUMP JUMPDEST PUSH1 0x0 DUP1 PUSH2 0x3162 PUSH2 0x2279 JUMP JUMPDEST SWAP1 POP PUSH1 0x0 PUSH2 0x31C3 PUSH1 0x12 PUSH1 0xA EXP PUSH1 0x2 MUL PUSH2 0x116E DUP5 PUSH1 0x4 PUSH1 0x0 SWAP1 SLOAD SWAP1 PUSH2 0x100 EXP SWAP1 DIV PUSH1 0x1 PUSH1 0x1 PUSH1 0xA0 SHL SUB AND PUSH1 0x1 PUSH1 0x1 PUSH1 0xA0 SHL SUB AND PUSH4 0xE44C84C2 PUSH1 0x40 MLOAD DUP2 PUSH4 0xFFFFFFFF AND PUSH1 0xE0 SHL DUP2 MSTORE PUSH1 0x4 ADD PUSH1 0x20 PUSH1 0x40 MLOAD DUP1 DUP4 SUB DUP2 DUP7 DUP1 EXTCODESIZE ISZERO DUP1 ISZERO PUSH2 0x1CAB JUMPI PUSH1 0x0 DUP1 REVERT JUMPDEST PUSH1 0x0 SUB SWAP1 POP PUSH2 0x2607 DUP5 PUSH2 0x2291 PUSH2 0x31D7 PUSH2 0x3089 JUMP JUMPDEST DUP5 SWAP1 PUSH4 0xFFFFFFFF PUSH2 0x2AEF AND JUMP JUMPDEST PUSH1 0x0 PUSH2 0xB3D PUSH15 0x466C657869626C6553746F72616765 PUSH1 0x88 SHL PUSH2 0x2197 JUMP JUMPDEST PUSH1 0x0 DUP3 PUSH2 0x3210 JUMPI POP PUSH1 0x0 PUSH2 0x11EC JUMP JUMPDEST DUP3 PUSH1 0x0 NOT EQ DUP1 ISZERO PUSH2 0x3224 JUMPI POP PUSH1 0x1 PUSH1 0xFF SHL DUP3 EQ JUMPDEST ISZERO PUSH2 0x3241 JUMPI PUSH1 0x40 MLOAD PUSH3 0x461BCD PUSH1 0xE5 SHL DUP2 MSTORE PUSH1 0x4 ADD PUSH2 0x47C SWAP1 PUSH2 0x4E47 JUMP JUMPDEST DUP3 DUP3 MUL DUP3 DUP5 DUP3 DUP2 PUSH2 0x324E JUMPI INVALID JUMPDEST SDIV EQ PUSH2 0x250F JUMPI PUSH1 0x40 MLOAD PUSH3 0x461BCD PUSH1 0xE5 SHL DUP2 MSTORE PUSH1 0x4 ADD PUSH2 0x47C SWAP1 PUSH2 0x4E47 JUMP JUMPDEST PUSH1 0x0 DUP2 PUSH2 0x328B JUMPI PUSH1 0x40 MLOAD PUSH3 0x461BCD PUSH1 0xE5 SHL DUP2 MSTORE PUSH1 0x4 ADD PUSH2 0x47C SWAP1 PUSH2 0x4E87 JUMP JUMPDEST DUP2 PUSH1 0x0 NOT EQ DUP1 ISZERO PUSH2 0x329F JUMPI POP PUSH1 0x1 PUSH1 0xFF SHL DUP4 EQ JUMPDEST ISZERO PUSH2 0x32BC JUMPI PUSH1 0x40 MLOAD PUSH3 0x461BCD PUSH1 0xE5 SHL DUP2 MSTORE PUSH1 0x4 ADD PUSH2 0x47C SWAP1 PUSH2 0x4E17 JUMP JUMPDEST PUSH1 0x0 DUP3 DUP5 DUP2 PUSH2 0x32C7 JUMPI INVALID JUMPDEST SDIV SWAP5 SWAP4 POP POP POP POP JUMP JUMPDEST PUSH1 0x0 DUP1 DUP3 SLT PUSH2 0x32DF JUMPI DUP2 PUSH2 0x11EC JUMP JUMPDEST POP PUSH1 0x0 SUB SWAP1 JUMP JUMPDEST PUSH1 0x0 DUP1 PUSH2 0x32F3 DUP5 DUP5 PUSH2 0x3B6C JUMP JUMPDEST SWAP1 POP PUSH2 0x2607 DUP2 PUSH2 0x3320 PUSH2 0x3306 DUP8 DUP8 PUSH2 0x3BBC JUMP JUMPDEST PUSH1 0x40 DUP9 ADD MLOAD PUSH1 0x1 PUSH1 0x1 PUSH1 0x80 SHL SUB AND SWAP1 PUSH4 0xFFFFFFFF PUSH2 0x2AA9 AND JUMP JUMPDEST SWAP1 PUSH4 0xFFFFFFFF PUSH2 0x2AA9 AND JUMP JUMPDEST PUSH1 0x0 DUP2 DUP4 SLT PUSH2 0x333B JUMPI DUP3 PUSH2 0x250F JUMP JUMPDEST POP SWAP2 SWAP1 POP JUMP JUMPDEST PUSH1 0x0 DUP1 PUSH1 0x0 PUSH2 0x3354 DUP5 PUSH2 0x3320 DUP9 DUP9 PUSH2 0x32E6 JUMP JUMPDEST SWAP1 POP PUSH1 0x0 DUP2 SLT ISZERO PUSH2 0x336D JUMPI POP PUSH1 0x0 SWAP2 POP PUSH1 0x8 SWAP1 POP PUSH2 0x33B4 JUMP JUMPDEST PUSH1 0x80 DUP7 ADD MLOAD DUP2 SWAP1 PUSH1 0xF SIGNEXTEND PUSH1 0x0 PUSH2 0x3383 DUP3 DUP10 PUSH2 0x3422 JUMP JUMPDEST SWAP1 POP DUP2 ISZERO DUP1 ISZERO SWAP1 PUSH2 0x3394 JUMPI POP DUP1 DUP4 GT ISZERO JUMPDEST ISZERO PUSH2 0x33A9 JUMPI DUP3 PUSH1 0x4 SWAP6 POP SWAP6 POP POP POP POP POP PUSH2 0x33B4 JUMP JUMPDEST POP SWAP1 SWAP4 POP PUSH1 0x0 SWAP3 POP POP POP JUMPDEST SWAP4 POP SWAP4 SWAP2 POP POP JUMP JUMPDEST PUSH1 0x0 DUP3 PUSH2 0x33CB JUMPI POP PUSH1 0x0 PUSH2 0x11EC JUMP JUMPDEST PUSH1 0x0 PUSH2 0x33DA PUSH2 0x117A DUP6 DUP6 PUSH2 0x24FD JUMP JUMPDEST SWAP1 POP PUSH2 0x2607 PUSH2 0x33EF PUSH2 0x33EA PUSH2 0x19CE JUMP JUMPDEST PUSH2 0x3BFA JUMP JUMPDEST PUSH2 0x3416 DUP4 PUSH2 0x3416 PUSH2 0x3401 PUSH2 0x192A PUSH2 0x19CE JUMP JUMPDEST PUSH2 0x340A DUP11 PUSH2 0x2540 JUMP JUMPDEST SWAP1 PUSH4 0xFFFFFFFF PUSH2 0x3C26 AND JUMP JUMPDEST SWAP1 PUSH4 0xFFFFFFFF PUSH2 0x3C50 AND JUMP JUMPDEST PUSH1 0x0 DUP1 PUSH2 0x3445 PUSH2 0x3438 PUSH2 0x3433 PUSH2 0x19CE JUMP JUMPDEST PUSH2 0x3C7A JUMP JUMPDEST PUSH2 0x3416 DUP6 PUSH2 0x3416 DUP9 PUSH2 0x2540 JUMP JUMPDEST SWAP1 POP PUSH2 0x2607 PUSH2 0x3452 PUSH2 0x3C9F JUMP JUMPDEST PUSH2 0x278B PUSH2 0x345F DUP8 DUP8 PUSH2 0x3CFB JUMP JUMPDEST DUP5 SWAP1 PUSH4 0xFFFFFFFF PUSH2 0x25C8 AND JUMP JUMPDEST PUSH1 0x0 DUP3 ISZERO DUP1 PUSH2 0x3479 JUMPI POP DUP2 ISZERO JUMPDEST DUP1 PUSH2 0x250F JUMPI POP POP PUSH1 0x0 SWAP1 DUP2 SLT SWAP2 SGT EQ SWAP1 JUMP JUMPDEST PUSH1 0x0 DUP2 PUSH2 0x349A JUMPI POP PUSH1 0x0 PUSH2 0x250F JUMP JUMPDEST PUSH2 0x2607 DUP3 PUSH2 0x116E DUP7 PUSH1 0x80 ADD MLOAD PUSH1 0xF SIGNEXTEND DUP7 PUSH2 0x24FD JUMP JUMPDEST PUSH1 0x1 PUSH1 0x1 PUSH1 0xA0 SHL SUB AND SWAP1 JUMP JUMPDEST PUSH1 0x0 DUP3 PUSH1 0x80 ADD MLOAD PUSH1 0xF SIGNEXTEND PUSH1 0x0 EQ ISZERO PUSH2 0x34D5 JUMPI POP PUSH1 0x0 PUSH2 0x11EC JUMP JUMPDEST PUSH2 0x34E6 DUP4 PUSH1 0x80 ADD MLOAD PUSH1 0xF SIGNEXTEND DUP4 PUSH2 0x3422 JUMP JUMPDEST PUSH2 0x34F0 DUP5 DUP5 PUSH2 0x3D4D JUMP JUMPDEST GT ISZERO SWAP4 SWAP3 POP POP POP JUMP JUMPDEST PUSH1 0x0 DUP1 PUSH2 0x3504 PUSH2 0x3D6E JUMP JUMPDEST PUSH1 0x1 PUSH1 0x1 PUSH1 0xA0 SHL SUB AND PUSH4 0xC39DEF0B PUSH4 0x1A1554D1 PUSH1 0xE2 SHL PUSH2 0x3522 PUSH2 0x220F JUMP JUMPDEST PUSH1 0x40 MLOAD DUP4 PUSH4 0xFFFFFFFF AND PUSH1 0xE0 SHL DUP2 MSTORE PUSH1 0x4 ADD PUSH2 0x353F SWAP3 SWAP2 SWAP1 PUSH2 0x4C41 JUMP JUMPDEST PUSH1 0x40 DUP1 MLOAD DUP1 DUP4 SUB DUP2 DUP7 DUP1 EXTCODESIZE ISZERO DUP1 ISZERO PUSH2 0x3556 JUMPI PUSH1 0x0 DUP1 REVERT JUMPDEST POP GAS STATICCALL ISZERO DUP1 ISZERO PUSH2 0x356A JUMPI RETURNDATASIZE PUSH1 0x0 DUP1 RETURNDATACOPY RETURNDATASIZE PUSH1 0x0 REVERT JUMPDEST POP POP POP POP PUSH1 0x40 MLOAD RETURNDATASIZE PUSH1 0x1F NOT PUSH1 0x1F DUP3 ADD AND DUP3 ADD DUP1 PUSH1 0x40 MSTORE POP PUSH2 0x358E SWAP2 SWAP1 DUP2 ADD SWAP1 PUSH2 0x4336 JUMP JUMPDEST SWAP2 POP SWAP2 POP SWAP1 SWAP2 JUMP JUMPDEST PUSH1 0x4 DUP1 SLOAD PUSH1 0x40 DUP1 MLOAD PUSH4 0x2B58ECEF PUSH1 0xE0 SHL DUP2 MSTORE SWAP1 MLOAD PUSH1 0x0 SWAP4 DUP5 SWAP4 PUSH1 0x1 PUSH1 0x1 PUSH1 0xA0 SHL SUB AND SWAP3 PUSH4 0x2B58ECEF SWAP3 DUP2 DUP4 ADD SWAP3 PUSH1 0x20 SWAP3 DUP3 SWAP1 SUB ADD DUP2 DUP7 DUP1 EXTCODESIZE ISZERO DUP1 ISZERO PUSH2 0x35DA JUMPI PUSH1 0x0 DUP1 REVERT JUMPDEST POP GAS STATICCALL ISZERO DUP1 ISZERO PUSH2 0x35EE JUMPI RETURNDATASIZE PUSH1 0x0 DUP1 RETURNDATACOPY RETURNDATASIZE PUSH1 0x0 REVERT JUMPDEST POP POP POP POP PUSH1 0x40 MLOAD RETURNDATASIZE PUSH1 0x1F NOT PUSH1 0x1F DUP3 ADD AND DUP3 ADD DUP1 PUSH1 0x40 MSTORE POP PUSH2 0x3612 SWAP2 SWAP1 DUP2 ADD SWAP1 PUSH2 0x4218 JUMP JUMPDEST PUSH1 0xF SIGNEXTEND SWAP1 POP PUSH1 0x0 PUSH2 0x3634 DUP6 PUSH1 0x40 ADD MLOAD DUP7 PUSH1 0x0 ADD MLOAD PUSH2 0x2AEF SWAP1 SWAP2 SWAP1 PUSH4 0xFFFFFFFF AND JUMP JUMPDEST SWAP1 POP PUSH1 0x0 PUSH2 0x3645 DUP6 PUSH2 0x3416 DUP5 PUSH2 0x2540 JUMP JUMPDEST SWAP1 POP PUSH2 0x3657 DUP7 PUSH1 0x0 ADD MLOAD DUP5 ADD DUP5 PUSH2 0x346C JUMP JUMPDEST ISZERO PUSH2 0x3726 JUMPI PUSH1 0x0 PUSH2 0x36F0 DUP4 PUSH1 0x4 PUSH1 0x0 SWAP1 SLOAD SWAP1 PUSH2 0x100 EXP SWAP1 DIV PUSH1 0x1 PUSH1 0x1 PUSH1 0xA0 SHL SUB AND PUSH1 0x1 PUSH1 0x1 PUSH1 0xA0 SHL SUB AND PUSH4 0x2B58ECEF PUSH1 0x40 MLOAD DUP2 PUSH4 0xFFFFFFFF AND PUSH1 0xE0 SHL DUP2 MSTORE PUSH1 0x4 ADD PUSH1 0x20 PUSH1 0x40 MLOAD DUP1 DUP4 SUB DUP2 DUP7 DUP1 EXTCODESIZE ISZERO DUP1 ISZERO PUSH2 0x36B0 JUMPI PUSH1 0x0 DUP1 REVERT JUMPDEST POP GAS STATICCALL ISZERO DUP1 ISZERO PUSH2 0x36C4 JUMPI RETURNDATASIZE PUSH1 0x0 DUP1 RETURNDATACOPY RETURNDATASIZE PUSH1 0x0 REVERT JUMPDEST POP POP POP POP PUSH1 0x40 MLOAD RETURNDATASIZE PUSH1 0x1F NOT PUSH1 0x1F DUP3 ADD AND DUP3 ADD DUP1 PUSH1 0x40 MSTORE POP PUSH2 0x36E8 SWAP2 SWAP1 DUP2 ADD SWAP1 PUSH2 0x4218 JUMP JUMPDEST PUSH1 0xF SIGNEXTEND PUSH2 0x346C JUMP JUMPDEST PUSH2 0x36FE JUMPI DUP7 PUSH1 0xA0 ADD MLOAD PUSH2 0x3704 JUMP JUMPDEST DUP7 PUSH1 0x80 ADD MLOAD JUMPDEST SWAP1 POP PUSH2 0x3719 PUSH2 0x117A DUP5 DUP4 PUSH4 0xFFFFFFFF PUSH2 0x2AEF AND JUMP JUMPDEST DUP3 ADD SWAP5 POP POP POP POP POP PUSH2 0x11EC JUMP JUMPDEST DUP6 MLOAD PUSH1 0x0 SWAP1 PUSH2 0x3742 SWAP1 PUSH2 0x117A SWAP1 DUP7 DUP2 ADD SWAP1 PUSH4 0xFFFFFFFF PUSH2 0x2516 AND JUMP JUMPDEST SWAP1 POP PUSH1 0x0 DUP2 PUSH1 0x12 PUSH1 0xA EXP SUB SWAP1 POP PUSH1 0x0 PUSH2 0x3766 DUP10 PUSH1 0x80 ADD MLOAD PUSH2 0x3416 DUP6 PUSH2 0x3416 DUP10 PUSH2 0x2540 JUMP JUMPDEST SWAP1 POP PUSH1 0x0 PUSH2 0x377F DUP11 PUSH1 0xA0 ADD MLOAD PUSH2 0x3416 DUP6 PUSH2 0x3416 DUP11 PUSH2 0x2540 JUMP JUMPDEST SWAP2 SWAP1 SWAP5 ADD ADD SWAP9 SWAP8 POP POP POP POP POP POP POP POP JUMP JUMPDEST PUSH1 0x0 DUP1 DUP3 PUSH1 0xF DUP2 GT ISZERO PUSH2 0x379F JUMPI INVALID JUMPDEST EQ ISZERO SWAP3 SWAP2 POP POP JUMP JUMPDEST PUSH1 0x0 PUSH2 0x11EC DUP3 PUSH14 0x6D61784D61726B657456616C7565 PUSH1 0x90 SHL PUSH2 0x2B19 JUMP JUMPDEST PUSH1 0x0 PUSH2 0x37D0 DUP4 DUP4 PUSH2 0x346C JUMP JUMPDEST DUP1 ISZERO PUSH2 0x37EC JUMPI POP PUSH2 0x37E0 DUP4 PUSH2 0x2540 JUMP JUMPDEST PUSH2 0x37E9 DUP4 PUSH2 0x2540 JUMP JUMPDEST GT ISZERO JUMPDEST ISZERO PUSH2 0x37F9 JUMPI POP PUSH1 0x0 PUSH2 0x250F JUMP JUMPDEST PUSH1 0x0 PUSH2 0x3898 DUP4 PUSH2 0x3320 DUP7 PUSH1 0x4 PUSH1 0x0 SWAP1 SLOAD SWAP1 PUSH2 0x100 EXP SWAP1 DIV PUSH1 0x1 PUSH1 0x1 PUSH1 0xA0 SHL SUB AND PUSH1 0x1 PUSH1 0x1 PUSH1 0xA0 SHL SUB AND PUSH4 0x2B58ECEF PUSH1 0x40 MLOAD DUP2 PUSH4 0xFFFFFFFF AND PUSH1 0xE0 SHL DUP2 MSTORE PUSH1 0x4 ADD PUSH1 0x20 PUSH1 0x40 MLOAD DUP1 DUP4 SUB DUP2 DUP7 DUP1 EXTCODESIZE ISZERO DUP1 ISZERO PUSH2 0x3851 JUMPI PUSH1 0x0 DUP1 REVERT JUMPDEST POP GAS STATICCALL ISZERO DUP1 ISZERO PUSH2 0x3865 JUMPI RETURNDATASIZE PUSH1 0x0 DUP1 RETURNDATACOPY RETURNDATASIZE PUSH1 0x0 REVERT JUMPDEST POP POP POP POP PUSH1 0x40 MLOAD RETURNDATASIZE PUSH1 0x1F NOT PUSH1 0x1F DUP3 ADD AND DUP3 ADD DUP1 PUSH1 0x40 MSTORE POP PUSH2 0x3889 SWAP2 SWAP1 DUP2 ADD SWAP1 PUSH2 0x4218 JUMP JUMPDEST PUSH1 0xF SIGNEXTEND SWAP1 PUSH4 0xFFFFFFFF PUSH2 0x2F04 AND JUMP JUMPDEST SWAP1 POP PUSH1 0x0 PUSH2 0x3943 PUSH2 0x38A8 DUP6 PUSH2 0x32D0 JUMP JUMPDEST PUSH2 0x3320 PUSH2 0x38B4 DUP9 PUSH2 0x32D0 JUMP JUMPDEST PUSH1 0x4 DUP1 SLOAD PUSH1 0x40 DUP1 MLOAD PUSH4 0xEB56105D PUSH1 0xE0 SHL DUP2 MSTORE SWAP1 MLOAD PUSH1 0x1 PUSH1 0x1 PUSH1 0xA0 SHL SUB SWAP1 SWAP3 AND SWAP3 PUSH4 0xEB56105D SWAP3 DUP3 DUP3 ADD SWAP3 PUSH1 0x20 SWAP3 SWAP1 DUP3 SWAP1 SUB ADD DUP2 DUP7 DUP1 EXTCODESIZE ISZERO DUP1 ISZERO PUSH2 0x38F6 JUMPI PUSH1 0x0 DUP1 REVERT JUMPDEST POP GAS STATICCALL ISZERO DUP1 ISZERO PUSH2 0x390A JUMPI RETURNDATASIZE PUSH1 0x0 DUP1 RETURNDATACOPY RETURNDATASIZE PUSH1 0x0 REVERT JUMPDEST POP POP POP POP PUSH1 0x40 MLOAD RETURNDATASIZE PUSH1 0x1F NOT PUSH1 0x1F DUP3 ADD AND DUP3 ADD DUP1 PUSH1 0x40 MSTORE POP PUSH2 0x392E SWAP2 SWAP1 DUP2 ADD SWAP1 PUSH2 0x4318 JUMP JUMPDEST PUSH1 0x1 PUSH1 0x1 PUSH1 0x80 SHL SUB AND SWAP1 PUSH4 0xFFFFFFFF PUSH2 0x2F04 AND JUMP JUMPDEST SWAP1 POP PUSH1 0x0 DUP5 PUSH1 0x0 SLT ISZERO PUSH2 0x3967 JUMPI PUSH2 0x3960 DUP3 DUP5 PUSH4 0xFFFFFFFF PUSH2 0x2AA9 AND JUMP JUMPDEST SWAP1 POP PUSH2 0x397A JUMP JUMPDEST PUSH2 0x3977 DUP3 DUP5 PUSH4 0xFFFFFFFF PUSH2 0x2F04 AND JUMP JUMPDEST SWAP1 POP JUMPDEST PUSH2 0x398E PUSH2 0x117A DUP3 PUSH1 0x2 PUSH4 0xFFFFFFFF PUSH2 0x326C AND JUMP JUMPDEST DUP8 LT ISZERO PUSH2 0x39A1 JUMPI PUSH1 0x1 SWAP4 POP POP POP POP PUSH2 0x250F JUMP JUMPDEST POP PUSH1 0x0 SWAP7 SWAP6 POP POP POP POP POP POP JUMP JUMPDEST PUSH1 0x4 DUP1 SLOAD PUSH1 0x20 DUP4 ADD MLOAD PUSH1 0x40 MLOAD PUSH4 0x20884679 PUSH1 0xE1 SHL DUP2 MSTORE PUSH1 0x0 SWAP4 PUSH2 0x11EC SWAP4 PUSH2 0x3A71 SWAP4 PUSH2 0x3A5D SWAP4 PUSH1 0x1 PUSH1 0x1 PUSH1 0xA0 SHL SUB SWAP1 SWAP3 AND SWAP3 PUSH4 0x41108CF2 SWAP3 PUSH2 0x39F0 SWAP3 SWAP2 ADD PUSH2 0x4F1B JUMP JUMPDEST PUSH1 0x20 PUSH1 0x40 MLOAD DUP1 DUP4 SUB DUP2 DUP7 DUP1 EXTCODESIZE ISZERO DUP1 ISZERO PUSH2 0x3A08 JUMPI PUSH1 0x0 DUP1 REVERT JUMPDEST POP GAS STATICCALL ISZERO DUP1 ISZERO PUSH2 0x3A1C JUMPI RETURNDATASIZE PUSH1 0x0 DUP1 RETURNDATACOPY RETURNDATASIZE PUSH1 0x0 REVERT JUMPDEST POP POP POP POP PUSH1 0x40 MLOAD RETURNDATASIZE PUSH1 0x1F NOT PUSH1 0x1F DUP3 ADD AND DUP3 ADD DUP1 PUSH1 0x40 MSTORE POP PUSH2 0x3A40 SWAP2 SWAP1 DUP2 ADD SWAP1 PUSH2 0x4218 JUMP JUMPDEST PUSH1 0x60 DUP7 ADD MLOAD PUSH1 0x1 PUSH1 0x1 PUSH1 0x80 SHL SUB AND SWAP1 PUSH1 0xF SIGNEXTEND PUSH4 0xFFFFFFFF PUSH2 0x2AA9 AND JUMP JUMPDEST PUSH1 0x80 DUP6 ADD MLOAD PUSH1 0xF SIGNEXTEND SWAP1 PUSH4 0xFFFFFFFF PUSH2 0x2AEF AND JUMP JUMPDEST PUSH1 0x40 DUP5 ADD MLOAD PUSH1 0x1 PUSH1 0x1 PUSH1 0x80 SHL SUB AND SWAP1 PUSH4 0xFFFFFFFF PUSH2 0x2F04 AND JUMP JUMPDEST PUSH1 0x0 PUSH2 0x11EC DUP3 PUSH18 0x6D617846756E64696E6756656C6F63697479 PUSH1 0x70 SHL PUSH2 0x2B19 JUMP JUMPDEST PUSH1 0x0 DUP1 PUSH2 0x3B46 PUSH2 0x3ABD PUSH2 0x192A PUSH2 0x19CE JUMP JUMPDEST PUSH1 0x4 DUP1 SLOAD PUSH1 0x40 DUP1 MLOAD PUSH4 0x2B58ECEF PUSH1 0xE0 SHL DUP2 MSTORE SWAP1 MLOAD PUSH1 0x1 PUSH1 0x1 PUSH1 0xA0 SHL SUB SWAP1 SWAP3 AND SWAP3 PUSH4 0x2B58ECEF SWAP3 DUP3 DUP3 ADD SWAP3 PUSH1 0x20 SWAP3 SWAP1 DUP3 SWAP1 SUB ADD DUP2 DUP7 DUP1 EXTCODESIZE ISZERO DUP1 ISZERO PUSH2 0x3AFF JUMPI PUSH1 0x0 DUP1 REVERT JUMPDEST POP GAS STATICCALL ISZERO DUP1 ISZERO PUSH2 0x3B13 JUMPI RETURNDATASIZE PUSH1 0x0 DUP1 RETURNDATACOPY RETURNDATASIZE PUSH1 0x0 REVERT JUMPDEST POP POP POP POP PUSH1 0x40 MLOAD RETURNDATASIZE PUSH1 0x1F NOT PUSH1 0x1F DUP3 ADD AND DUP3 ADD DUP1 PUSH1 0x40 MSTORE POP PUSH2 0x3B37 SWAP2 SWAP1 DUP2 ADD SWAP1 PUSH2 0x4218 JUMP JUMPDEST PUSH1 0xF SIGNEXTEND SWAP1 PUSH4 0xFFFFFFFF PUSH2 0x2516 AND JUMP JUMPDEST SWAP1 POP PUSH2 0x3151 PUSH2 0x3B5E PUSH8 0xDE0B6B3A763FFFF NOT DUP4 PUSH2 0x332C JUMP JUMPDEST PUSH8 0xDE0B6B3A7640000 PUSH2 0x3D85 JUMP JUMPDEST PUSH1 0x20 DUP3 ADD MLOAD PUSH1 0x0 SWAP1 PUSH1 0x1 PUSH1 0x1 PUSH1 0x40 SHL SUB AND DUP1 PUSH2 0x3B8C JUMPI PUSH1 0x0 SWAP2 POP POP PUSH2 0x11EC JUMP JUMPDEST PUSH1 0x0 PUSH2 0x3B98 DUP3 DUP6 PUSH2 0x3D9B JUMP JUMPDEST PUSH1 0x80 DUP7 ADD MLOAD SWAP1 SWAP2 POP PUSH2 0x3BB3 SWAP1 PUSH1 0xF SIGNEXTEND DUP3 PUSH4 0xFFFFFFFF PUSH2 0x2AEF AND JUMP JUMPDEST SWAP6 SWAP5 POP POP POP POP POP JUMP JUMPDEST PUSH1 0x0 DUP1 PUSH2 0x3BDF DUP5 PUSH1 0x60 ADD MLOAD PUSH1 0x1 PUSH1 0x1 PUSH1 0x80 SHL SUB AND DUP5 PUSH2 0x2F04 SWAP1 SWAP2 SWAP1 PUSH4 0xFFFFFFFF AND JUMP JUMPDEST PUSH1 0x80 DUP6 ADD MLOAD SWAP1 SWAP2 POP PUSH2 0x2607 SWAP1 PUSH1 0xF SIGNEXTEND DUP3 PUSH4 0xFFFFFFFF PUSH2 0x2AEF AND JUMP JUMPDEST PUSH1 0x0 PUSH2 0x11EC DUP3 PUSH32 0x6C69717569646174696F6E5072656D69756D4D756C7469706C69657200000000 PUSH2 0x2B19 JUMP JUMPDEST PUSH1 0x0 PUSH2 0x250F DUP3 PUSH2 0x3C44 DUP6 PUSH8 0xDE0B6B3A7640000 PUSH4 0xFFFFFFFF PUSH2 0x3E2B AND JUMP JUMPDEST SWAP1 PUSH4 0xFFFFFFFF PUSH2 0x3E65 AND JUMP JUMPDEST PUSH1 0x0 PUSH8 0xDE0B6B3A7640000 PUSH2 0x3C6B DUP5 DUP5 PUSH4 0xFFFFFFFF PUSH2 0x3E2B AND JUMP JUMPDEST DUP2 PUSH2 0x3C72 JUMPI INVALID JUMPDEST DIV SWAP4 SWAP3 POP POP POP JUMP JUMPDEST PUSH1 0x0 PUSH2 0x11EC DUP3 PUSH22 0x6C69717569646174696F6E427566666572526174696F PUSH1 0x50 SHL PUSH2 0x2B19 JUMP JUMPDEST PUSH1 0x0 PUSH2 0x3CA9 PUSH2 0x31E4 JUMP JUMPDEST PUSH1 0x1 PUSH1 0x1 PUSH1 0xA0 SHL SUB AND PUSH4 0x23257C2B PUSH1 0x0 DUP1 MLOAD PUSH1 0x20 PUSH2 0x506F DUP4 CODECOPY DUP2 MLOAD SWAP2 MSTORE PUSH20 0x6B65657065724C69717569646174696F6E466565 PUSH1 0x60 SHL PUSH1 0x40 MLOAD DUP4 PUSH4 0xFFFFFFFF AND PUSH1 0xE0 SHL DUP2 MSTORE PUSH1 0x4 ADD PUSH2 0x25B0 SWAP3 SWAP2 SWAP1 PUSH2 0x4C41 JUMP JUMPDEST PUSH1 0x0 DUP1 PUSH2 0x3D09 PUSH2 0x3438 PUSH2 0x3E9A JUMP JUMPDEST SWAP1 POP PUSH1 0x0 PUSH2 0x3D15 PUSH2 0x3EFF JUMP JUMPDEST SWAP1 POP PUSH1 0x0 DUP2 DUP4 GT PUSH2 0x3D26 JUMPI DUP3 PUSH2 0x3D28 JUMP JUMPDEST DUP2 JUMPDEST SWAP1 POP PUSH1 0x0 PUSH2 0x3D34 PUSH2 0x3F5A JUMP JUMPDEST SWAP1 POP DUP1 DUP3 GT PUSH2 0x3D43 JUMPI DUP1 PUSH2 0x11E5 JUMP JUMPDEST POP SWAP6 SWAP5 POP POP POP POP POP JUMP JUMPDEST PUSH1 0x0 DUP1 PUSH2 0x25FA PUSH2 0x3D64 DUP6 PUSH1 0x80 ADD MLOAD PUSH1 0xF SIGNEXTEND DUP6 PUSH2 0x33BC JUMP JUMPDEST PUSH2 0x1CF2 DUP7 DUP7 PUSH2 0x32E6 JUMP JUMPDEST PUSH1 0x0 PUSH2 0xB3D PUSH9 0x22BC31B430B733B2B9 PUSH1 0xB9 SHL PUSH2 0x2197 JUMP JUMPDEST PUSH1 0x0 DUP2 DUP4 SLT PUSH2 0x3D94 JUMPI DUP2 PUSH2 0x250F JUMP JUMPDEST POP SWAP1 SWAP2 SWAP1 POP JUMP JUMPDEST PUSH1 0x4 DUP1 SLOAD PUSH1 0x40 MLOAD PUSH4 0x20884679 PUSH1 0xE1 SHL DUP2 MSTORE PUSH1 0x0 SWAP3 PUSH2 0x250F SWAP3 PUSH1 0x1 PUSH1 0x1 PUSH1 0xA0 SHL SUB AND SWAP2 PUSH4 0x41108CF2 SWAP2 PUSH2 0x3DCF SWAP2 DUP9 SWAP2 ADD PUSH2 0x4C25 JUMP JUMPDEST PUSH1 0x20 PUSH1 0x40 MLOAD DUP1 DUP4 SUB DUP2 DUP7 DUP1 EXTCODESIZE ISZERO DUP1 ISZERO PUSH2 0x3DE7 JUMPI PUSH1 0x0 DUP1 REVERT JUMPDEST POP GAS STATICCALL ISZERO DUP1 ISZERO PUSH2 0x3DFB JUMPI RETURNDATASIZE PUSH1 0x0 DUP1 RETURNDATACOPY RETURNDATASIZE PUSH1 0x0 REVERT JUMPDEST POP POP POP POP PUSH1 0x40 MLOAD RETURNDATASIZE PUSH1 0x1F NOT PUSH1 0x1F DUP3 ADD AND DUP3 ADD DUP1 PUSH1 0x40 MSTORE POP PUSH2 0x3E1F SWAP2 SWAP1 DUP2 ADD SWAP1 PUSH2 0x4218 JUMP JUMPDEST PUSH1 0xF SIGNEXTEND PUSH2 0x1CF2 DUP5 PUSH2 0x22DF JUMP JUMPDEST PUSH1 0x0 DUP3 PUSH2 0x3E3A JUMPI POP PUSH1 0x0 PUSH2 0x11EC JUMP JUMPDEST DUP3 DUP3 MUL DUP3 DUP5 DUP3 DUP2 PUSH2 0x3E47 JUMPI INVALID JUMPDEST DIV EQ PUSH2 0x250F JUMPI PUSH1 0x40 MLOAD PUSH3 0x461BCD PUSH1 0xE5 SHL DUP2 MSTORE PUSH1 0x4 ADD PUSH2 0x47C SWAP1 PUSH2 0x4E37 JUMP JUMPDEST PUSH1 0x0 DUP1 DUP3 GT PUSH2 0x3E86 JUMPI PUSH1 0x40 MLOAD PUSH3 0x461BCD PUSH1 0xE5 SHL DUP2 MSTORE PUSH1 0x4 ADD PUSH2 0x47C SWAP1 PUSH2 0x4E07 JUMP JUMPDEST PUSH1 0x0 DUP3 DUP5 DUP2 PUSH2 0x3E91 JUMPI INVALID JUMPDEST DIV SWAP5 SWAP4 POP POP POP POP JUMP JUMPDEST PUSH1 0x0 PUSH2 0x3EA4 PUSH2 0x31E4 JUMP JUMPDEST PUSH1 0x1 PUSH1 0x1 PUSH1 0xA0 SHL SUB AND PUSH4 0x23257C2B PUSH1 0x0 DUP1 MLOAD PUSH1 0x20 PUSH2 0x506F DUP4 CODECOPY DUP2 MLOAD SWAP2 MSTORE PUSH32 0x706572707356324C69717569646174696F6E466565526174696F000000000000 PUSH1 0x40 MLOAD DUP4 PUSH4 0xFFFFFFFF AND PUSH1 0xE0 SHL DUP2 MSTORE PUSH1 0x4 ADD PUSH2 0x25B0 SWAP3 SWAP2 SWAP1 PUSH2 0x4C41 JUMP JUMPDEST PUSH1 0x0 PUSH2 0x3F09 PUSH2 0x31E4 JUMP JUMPDEST PUSH1 0x1 PUSH1 0x1 PUSH1 0xA0 SHL SUB AND PUSH4 0x23257C2B PUSH1 0x0 DUP1 MLOAD PUSH1 0x20 PUSH2 0x506F DUP4 CODECOPY DUP2 MLOAD SWAP2 MSTORE PUSH19 0x706572707356324D61784B6565706572466565 PUSH1 0x68 SHL PUSH1 0x40 MLOAD DUP4 PUSH4 0xFFFFFFFF AND PUSH1 0xE0 SHL DUP2 MSTORE PUSH1 0x4 ADD PUSH2 0x25B0 SWAP3 SWAP2 SWAP1 PUSH2 0x4C41 JUMP JUMPDEST PUSH1 0x0 PUSH2 0x3F64 PUSH2 0x31E4 JUMP JUMPDEST PUSH1 0x1 PUSH1 0x1 PUSH1 0xA0 SHL SUB AND PUSH4 0x23257C2B PUSH1 0x0 DUP1 MLOAD PUSH1 0x20 PUSH2 0x506F DUP4 CODECOPY DUP2 MLOAD SWAP2 MSTORE PUSH19 0x706572707356324D696E4B6565706572466565 PUSH1 0x68 SHL PUSH1 0x40 MLOAD DUP4 PUSH4 0xFFFFFFFF AND PUSH1 0xE0 SHL DUP2 MSTORE PUSH1 0x4 ADD PUSH2 0x25B0 SWAP3 SWAP2 SWAP1 PUSH2 0x4C41 JUMP JUMPDEST PUSH1 0x40 DUP1 MLOAD PUSH1 0xA0 DUP2 ADD DUP3 MSTORE PUSH1 0x0 DUP1 DUP3 MSTORE PUSH1 0x20 DUP3 ADD DUP2 SWAP1 MSTORE SWAP2 DUP2 ADD DUP3 SWAP1 MSTORE PUSH1 0x60 DUP2 ADD DUP3 SWAP1 MSTORE PUSH1 0x80 DUP2 ADD SWAP2 SWAP1 SWAP2 MSTORE SWAP1 JUMP JUMPDEST DUP1 CALLDATALOAD PUSH2 0x11EC DUP2 PUSH2 0x5024 JUMP JUMPDEST DUP1 MLOAD PUSH2 0x11EC DUP2 PUSH2 0x5024 JUMP JUMPDEST DUP1 MLOAD PUSH2 0x11EC DUP2 PUSH2 0x5038 JUMP JUMPDEST DUP1 CALLDATALOAD PUSH2 0x11EC DUP2 PUSH2 0x5041 JUMP JUMPDEST DUP1 MLOAD PUSH2 0x11EC DUP2 PUSH2 0x5041 JUMP JUMPDEST DUP1 MLOAD PUSH2 0x11EC DUP2 PUSH2 0x504A JUMP JUMPDEST PUSH1 0x0 PUSH2 0x120 DUP3 DUP5 SUB SLT ISZERO PUSH2 0x4038 JUMPI PUSH1 0x0 DUP1 REVERT JUMPDEST PUSH2 0x4043 PUSH2 0x120 PUSH2 0x4F37 JUMP JUMPDEST SWAP1 POP PUSH1 0x0 PUSH2 0x4051 DUP5 DUP5 PUSH2 0x3FF9 JUMP JUMPDEST DUP3 MSTORE POP PUSH1 0x20 PUSH2 0x4062 DUP5 DUP5 DUP4 ADD PUSH2 0x401A JUMP JUMPDEST PUSH1 0x20 DUP4 ADD MSTORE POP PUSH1 0x40 PUSH2 0x4076 DUP5 DUP3 DUP6 ADD PUSH2 0x417F JUMP JUMPDEST PUSH1 0x40 DUP4 ADD MSTORE POP PUSH1 0x60 PUSH2 0x408A DUP5 DUP3 DUP6 ADD PUSH2 0x417F JUMP JUMPDEST PUSH1 0x60 DUP4 ADD MSTORE POP PUSH1 0x80 PUSH2 0x409E DUP5 DUP3 DUP6 ADD PUSH2 0x417F JUMP JUMPDEST PUSH1 0x80 DUP4 ADD MSTORE POP PUSH1 0xA0 PUSH2 0x40B2 DUP5 DUP3 DUP6 ADD PUSH2 0x417F JUMP JUMPDEST PUSH1 0xA0 DUP4 ADD MSTORE POP PUSH1 0xC0 PUSH2 0x40C6 DUP5 DUP3 DUP6 ADD PUSH2 0x400F JUMP JUMPDEST PUSH1 0xC0 DUP4 ADD MSTORE POP PUSH1 0xE0 PUSH2 0x40DA DUP5 DUP3 DUP6 ADD PUSH2 0x400F JUMP JUMPDEST PUSH1 0xE0 DUP4 ADD MSTORE POP PUSH2 0x100 PUSH2 0x40EF DUP5 DUP3 DUP6 ADD PUSH2 0x400F JUMP JUMPDEST PUSH2 0x100 DUP4 ADD MSTORE POP SWAP3 SWAP2 POP POP JUMP JUMPDEST PUSH1 0x0 PUSH1 0xA0 DUP3 DUP5 SUB SLT ISZERO PUSH2 0x410E JUMPI PUSH1 0x0 DUP1 REVERT JUMPDEST PUSH2 0x4118 PUSH1 0xA0 PUSH2 0x4F37 JUMP JUMPDEST SWAP1 POP PUSH1 0x0 PUSH2 0x4126 DUP5 DUP5 PUSH2 0x4195 JUMP JUMPDEST DUP3 MSTORE POP PUSH1 0x20 PUSH2 0x4137 DUP5 DUP5 DUP4 ADD PUSH2 0x4195 JUMP JUMPDEST PUSH1 0x20 DUP4 ADD MSTORE POP PUSH1 0x40 PUSH2 0x414B DUP5 DUP3 DUP6 ADD PUSH2 0x417F JUMP JUMPDEST PUSH1 0x40 DUP4 ADD MSTORE POP PUSH1 0x60 PUSH2 0x415F DUP5 DUP3 DUP6 ADD PUSH2 0x417F JUMP JUMPDEST PUSH1 0x60 DUP4 ADD MSTORE POP PUSH1 0x80 PUSH2 0x4173 DUP5 DUP3 DUP6 ADD PUSH2 0x401A JUMP JUMPDEST PUSH1 0x80 DUP4 ADD MSTORE POP SWAP3 SWAP2 POP POP JUMP JUMPDEST DUP1 MLOAD PUSH2 0x11EC DUP2 PUSH2 0x5053 JUMP JUMPDEST DUP1 MLOAD PUSH2 0x11EC DUP2 PUSH2 0x505C JUMP JUMPDEST DUP1 MLOAD PUSH2 0x11EC DUP2 PUSH2 0x5065 JUMP JUMPDEST PUSH1 0x0 PUSH1 0x20 DUP3 DUP5 SUB SLT ISZERO PUSH2 0x41B2 JUMPI PUSH1 0x0 DUP1 REVERT JUMPDEST PUSH1 0x0 PUSH2 0x2607 DUP5 DUP5 PUSH2 0x3FE3 JUMP JUMPDEST PUSH1 0x0 PUSH1 0x20 DUP3 DUP5 SUB SLT ISZERO PUSH2 0x41D0 JUMPI PUSH1 0x0 DUP1 REVERT JUMPDEST PUSH1 0x0 PUSH2 0x2607 DUP5 DUP5 PUSH2 0x3FEE JUMP JUMPDEST PUSH1 0x0 PUSH1 0x20 DUP3 DUP5 SUB SLT ISZERO PUSH2 0x41EE JUMPI PUSH1 0x0 DUP1 REVERT JUMPDEST PUSH1 0x0 PUSH2 0x2607 DUP5 DUP5 PUSH2 0x3FF9 JUMP JUMPDEST PUSH1 0x0 PUSH1 0x20 DUP3 DUP5 SUB SLT ISZERO PUSH2 0x420C JUMPI PUSH1 0x0 DUP1 REVERT JUMPDEST PUSH1 0x0 PUSH2 0x2607 DUP5 DUP5 PUSH2 0x400F JUMP JUMPDEST PUSH1 0x0 PUSH1 0x20 DUP3 DUP5 SUB SLT ISZERO PUSH2 0x422A JUMPI PUSH1 0x0 DUP1 REVERT JUMPDEST PUSH1 0x0 PUSH2 0x2607 DUP5 DUP5 PUSH2 0x401A JUMP JUMPDEST PUSH1 0x0 PUSH1 0x20 DUP3 DUP5 SUB SLT ISZERO PUSH2 0x4248 JUMPI PUSH1 0x0 DUP1 REVERT JUMPDEST PUSH1 0x0 PUSH2 0x2607 DUP5 DUP5 PUSH2 0x4004 JUMP JUMPDEST PUSH1 0x0 DUP1 PUSH1 0x40 DUP4 DUP6 SUB SLT ISZERO PUSH2 0x4267 JUMPI PUSH1 0x0 DUP1 REVERT JUMPDEST PUSH1 0x0 PUSH2 0x4273 DUP6 DUP6 PUSH2 0x4004 JUMP JUMPDEST SWAP3 POP POP PUSH1 0x20 PUSH2 0x4284 DUP6 DUP3 DUP7 ADD PUSH2 0x4004 JUMP JUMPDEST SWAP2 POP POP SWAP3 POP SWAP3 SWAP1 POP JUMP JUMPDEST PUSH1 0x0 DUP1 PUSH1 0x0 PUSH1 0x60 DUP5 DUP7 SUB SLT ISZERO PUSH2 0x42A3 JUMPI PUSH1 0x0 DUP1 REVERT JUMPDEST PUSH1 0x0 PUSH2 0x42AF DUP7 DUP7 PUSH2 0x4004 JUMP JUMPDEST SWAP4 POP POP PUSH1 0x20 PUSH2 0x42C0 DUP7 DUP3 DUP8 ADD PUSH2 0x4004 JUMP JUMPDEST SWAP3 POP POP PUSH1 0x40 PUSH2 0x42D1 DUP7 DUP3 DUP8 ADD PUSH2 0x4004 JUMP JUMPDEST SWAP2 POP POP SWAP3 POP SWAP3 POP SWAP3 JUMP JUMPDEST PUSH1 0x0 PUSH2 0x120 DUP3 DUP5 SUB SLT ISZERO PUSH2 0x42EE JUMPI PUSH1 0x0 DUP1 REVERT JUMPDEST PUSH1 0x0 PUSH2 0x2607 DUP5 DUP5 PUSH2 0x4025 JUMP JUMPDEST PUSH1 0x0 PUSH1 0xA0 DUP3 DUP5 SUB SLT ISZERO PUSH2 0x430C JUMPI PUSH1 0x0 DUP1 REVERT JUMPDEST PUSH1 0x0 PUSH2 0x2607 DUP5 DUP5 PUSH2 0x40FC JUMP JUMPDEST PUSH1 0x0 PUSH1 0x20 DUP3 DUP5 SUB SLT ISZERO PUSH2 0x432A JUMPI PUSH1 0x0 DUP1 REVERT JUMPDEST PUSH1 0x0 PUSH2 0x2607 DUP5 DUP5 PUSH2 0x417F JUMP JUMPDEST PUSH1 0x0 DUP1 PUSH1 0x40 DUP4 DUP6 SUB SLT ISZERO PUSH2 0x4349 JUMPI PUSH1 0x0 DUP1 REVERT JUMPDEST PUSH1 0x0 PUSH2 0x4355 DUP6 DUP6 PUSH2 0x400F JUMP JUMPDEST SWAP3 POP POP PUSH1 0x20 PUSH2 0x4284 DUP6 DUP3 DUP7 ADD PUSH2 0x3FF9 JUMP JUMPDEST PUSH1 0x0 DUP1 PUSH1 0x0 PUSH1 0x60 DUP5 DUP7 SUB SLT ISZERO PUSH2 0x437B JUMPI PUSH1 0x0 DUP1 REVERT JUMPDEST PUSH1 0x0 PUSH2 0x4387 DUP7 DUP7 PUSH2 0x400F JUMP JUMPDEST SWAP4 POP POP PUSH1 0x20 PUSH2 0x4398 DUP7 DUP3 DUP8 ADD PUSH2 0x3FF9 JUMP JUMPDEST SWAP3 POP POP PUSH1 0x40 PUSH2 0x42D1 DUP7 DUP3 DUP8 ADD PUSH2 0x3FF9 JUMP JUMPDEST PUSH1 0x0 PUSH1 0x20 DUP3 DUP5 SUB SLT ISZERO PUSH2 0x43BB JUMPI PUSH1 0x0 DUP1 REVERT JUMPDEST PUSH1 0x0 PUSH2 0x2607 DUP5 DUP5 PUSH2 0x418A JUMP JUMPDEST PUSH1 0x0 PUSH1 0x20 DUP3 DUP5 SUB SLT ISZERO PUSH2 0x43D9 JUMPI PUSH1 0x0 DUP1 REVERT JUMPDEST PUSH1 0x0 PUSH2 0x2607 DUP5 DUP5 PUSH2 0x4195 JUMP JUMPDEST PUSH1 0x0 PUSH2 0x43F1 DUP4 DUP4 PUSH2 0x4473 JUMP JUMPDEST POP POP PUSH1 0x20 ADD SWAP1 JUMP JUMPDEST PUSH2 0x4402 DUP2 PUSH2 0x4FB8 JUMP JUMPDEST DUP3 MSTORE POP POP JUMP JUMPDEST PUSH2 0x4402 DUP2 PUSH2 0x4F81 JUMP JUMPDEST PUSH1 0x0 PUSH2 0x441C DUP3 PUSH2 0x4F6F JUMP JUMPDEST PUSH2 0x4426 DUP2 DUP6 PUSH2 0x4F73 JUMP JUMPDEST SWAP4 POP PUSH2 0x4431 DUP4 PUSH2 0x4F5D JUMP JUMPDEST DUP1 PUSH1 0x0 JUMPDEST DUP4 DUP2 LT ISZERO PUSH2 0x445F JUMPI DUP2 MLOAD PUSH2 0x4449 DUP9 DUP3 PUSH2 0x43E5 JUMP JUMPDEST SWAP8 POP PUSH2 0x4454 DUP4 PUSH2 0x4F5D JUMP JUMPDEST SWAP3 POP POP PUSH1 0x1 ADD PUSH2 0x4435 JUMP JUMPDEST POP SWAP5 SWAP6 SWAP5 POP POP POP POP POP JUMP JUMPDEST PUSH2 0x4402 DUP2 PUSH2 0x4F8C JUMP JUMPDEST PUSH2 0x4402 DUP2 PUSH2 0x406 JUMP JUMPDEST PUSH2 0x4402 PUSH2 0x4488 DUP3 PUSH2 0x406 JUMP JUMPDEST PUSH2 0x406 JUMP JUMPDEST PUSH1 0x0 PUSH2 0x4498 DUP3 PUSH2 0x4F6F JUMP JUMPDEST PUSH2 0x44A2 DUP2 DUP6 PUSH2 0x4F73 JUMP JUMPDEST SWAP4 POP PUSH2 0x44B2 DUP2 DUP6 PUSH1 0x20 DUP7 ADD PUSH2 0x4FEE JUMP JUMPDEST PUSH2 0x44BB DUP2 PUSH2 0x501A JUMP JUMPDEST SWAP1 SWAP4 ADD SWAP4 SWAP3 POP POP POP JUMP JUMPDEST PUSH2 0x4402 DUP2 PUSH2 0x4FBF JUMP JUMPDEST PUSH2 0x4402 DUP2 PUSH2 0x4F91 JUMP JUMPDEST PUSH2 0x4402 DUP2 PUSH2 0x4FCA JUMP JUMPDEST PUSH2 0x4402 DUP2 PUSH2 0x4FD8 JUMP JUMPDEST PUSH1 0x0 DUP2 SLOAD PUSH1 0x1 DUP2 AND PUSH1 0x0 DUP2 EQ PUSH2 0x4506 JUMPI PUSH1 0x1 DUP2 EQ PUSH2 0x452C JUMPI PUSH2 0x456B JUMP JUMPDEST PUSH1 0x7F PUSH1 0x2 DUP4 DIV AND PUSH2 0x4517 DUP2 DUP8 PUSH2 0x4F73 JUMP JUMPDEST PUSH1 0xFF NOT DUP5 AND DUP2 MSTORE SWAP6 POP POP PUSH1 0x20 DUP6 ADD SWAP3 POP PUSH2 0x456B JUMP JUMPDEST PUSH1 0x2 DUP3 DIV PUSH2 0x453A DUP2 DUP8 PUSH2 0x4F73 JUMP JUMPDEST SWAP6 POP PUSH2 0x4545 DUP6 PUSH2 0x4F63 JUMP JUMPDEST PUSH1 0x0 JUMPDEST DUP3 DUP2 LT ISZERO PUSH2 0x4564 JUMPI DUP2 SLOAD DUP9 DUP3 ADD MSTORE PUSH1 0x1 SWAP1 SWAP2 ADD SWAP1 PUSH1 0x20 ADD PUSH2 0x4548 JUMP JUMPDEST DUP8 ADD SWAP5 POP POP POP JUMPDEST POP POP SWAP3 SWAP2 POP POP JUMP JUMPDEST PUSH1 0x0 PUSH2 0x4580 PUSH1 0x35 DUP4 PUSH2 0x4F73 JUMP JUMPDEST PUSH32 0x596F75206D757374206265206E6F6D696E61746564206265666F726520796F75 DUP2 MSTORE PUSH21 0x2063616E20616363657074206F776E65727368697 PUSH1 0x5C SHL PUSH1 0x20 DUP3 ADD MSTORE PUSH1 0x40 ADD SWAP3 SWAP2 POP POP JUMP JUMPDEST PUSH1 0x0 PUSH2 0x45D7 PUSH1 0x14 DUP4 PUSH2 0x4F73 JUMP JUMPDEST PUSH20 0x50656E64696E67206F7264657220657869737473 PUSH1 0x60 SHL DUP2 MSTORE PUSH1 0x20 ADD SWAP3 SWAP2 POP POP JUMP JUMPDEST PUSH1 0x0 PUSH2 0x4607 PUSH1 0x1B DUP4 PUSH2 0x4F73 JUMP JUMPDEST PUSH32 0x536166654D6174683A206164646974696F6E206F766572666C6F770000000000 DUP2 MSTORE PUSH1 0x20 ADD SWAP3 SWAP2 POP POP JUMP JUMPDEST PUSH1 0x0 PUSH2 0x4640 PUSH1 0x21 DUP4 PUSH2 0x4F73 JUMP JUMPDEST PUSH32 0x5369676E6564536166654D6174683A206164646974696F6E206F766572666C6F DUP2 MSTORE PUSH1 0x77 PUSH1 0xF8 SHL PUSH1 0x20 DUP3 ADD MSTORE PUSH1 0x40 ADD SWAP3 SWAP2 POP POP JUMP JUMPDEST PUSH1 0x0 PUSH2 0x4683 PUSH1 0x1E DUP4 PUSH2 0x4F73 JUMP JUMPDEST PUSH32 0x536166654D6174683A207375627472616374696F6E206F766572666C6F770000 DUP2 MSTORE PUSH1 0x20 ADD SWAP3 SWAP2 POP POP JUMP JUMPDEST PUSH1 0x0 PUSH2 0x46BC PUSH1 0x1A DUP4 PUSH2 0x4F73 JUMP JUMPDEST PUSH32 0x536166654D6174683A206469766973696F6E206279207A65726F000000000000 DUP2 MSTORE PUSH1 0x20 ADD SWAP3 SWAP2 POP POP JUMP JUMPDEST PUSH1 0x0 PUSH2 0x46F5 PUSH1 0x11 DUP4 PUSH2 0x4F7C JUMP JUMPDEST PUSH17 0x26B4B9B9B4B7339030B2323932B9B99D1 PUSH1 0x7D SHL DUP2 MSTORE PUSH1 0x11 ADD SWAP3 SWAP2 POP POP JUMP JUMPDEST PUSH1 0x0 PUSH2 0x4722 PUSH1 0x21 DUP4 PUSH2 0x4F73 JUMP JUMPDEST PUSH32 0x5369676E6564536166654D6174683A206469766973696F6E206F766572666C6F DUP2 MSTORE PUSH1 0x77 PUSH1 0xF8 SHL PUSH1 0x20 DUP3 ADD MSTORE PUSH1 0x40 ADD SWAP3 SWAP2 POP POP JUMP JUMPDEST PUSH1 0x0 PUSH2 0x4765 PUSH1 0x2F DUP4 PUSH2 0x4F73 JUMP JUMPDEST PUSH32 0x4F6E6C792074686520636F6E7472616374206F776E6572206D61792070657266 DUP2 MSTORE PUSH15 0x37B936903A3434B99030B1BA34B7B7 PUSH1 0x89 SHL PUSH1 0x20 DUP3 ADD MSTORE PUSH1 0x40 ADD SWAP3 SWAP2 POP POP JUMP JUMPDEST PUSH1 0x0 PUSH2 0x47B6 PUSH1 0x21 DUP4 PUSH2 0x4F73 JUMP JUMPDEST PUSH32 0x536166654D6174683A206D756C7469706C69636174696F6E206F766572666C6F DUP2 MSTORE PUSH1 0x77 PUSH1 0xF8 SHL PUSH1 0x20 DUP3 ADD MSTORE PUSH1 0x40 ADD SWAP3 SWAP2 POP POP JUMP JUMPDEST PUSH1 0x0 PUSH2 0x47F9 PUSH1 0x27 DUP4 PUSH2 0x4F73 JUMP JUMPDEST PUSH32 0x5369676E6564536166654D6174683A206D756C7469706C69636174696F6E206F DUP2 MSTORE PUSH7 0x766572666C6F77 PUSH1 0xC8 SHL PUSH1 0x20 DUP3 ADD MSTORE PUSH1 0x40 ADD SWAP3 SWAP2 POP POP JUMP JUMPDEST PUSH1 0x0 PUSH2 0x4842 PUSH1 0x19 DUP4 PUSH2 0x4F7C JUMP JUMPDEST PUSH32 0x5265736F6C766572206D697373696E67207461726765743A2000000000000000 DUP2 MSTORE PUSH1 0x19 ADD SWAP3 SWAP2 POP POP JUMP JUMPDEST PUSH1 0x0 PUSH2 0x487B PUSH1 0x56 DUP4 PUSH2 0x4F7C JUMP JUMPDEST PUSH32 0x506F736974696F6E4D6F6469666965642875696E743235362C61646472657373 DUP2 MSTORE PUSH32 0x2C75696E743235362C696E743235362C696E743235362C75696E743235362C75 PUSH1 0x20 DUP3 ADD MSTORE PUSH22 0x696E743235362C75696E743235362C696E7432353629 PUSH1 0x50 SHL PUSH1 0x40 DUP3 ADD MSTORE PUSH1 0x56 ADD SWAP3 SWAP2 POP POP JUMP JUMPDEST PUSH1 0x0 PUSH2 0x48F9 PUSH1 0x35 DUP4 PUSH2 0x4F7C JUMP JUMPDEST PUSH32 0x5065727073547261636B696E6728627974657333322C627974657333322C6279 DUP2 MSTORE PUSH21 0x74657333322C696E743235362C75696E7432353629 PUSH1 0x58 SHL PUSH1 0x20 DUP3 ADD MSTORE PUSH1 0x35 ADD SWAP3 SWAP2 POP POP JUMP JUMPDEST PUSH1 0x0 PUSH2 0x4950 PUSH1 0x24 DUP4 PUSH2 0x4F73 JUMP JUMPDEST PUSH32 0x5369676E6564536166654D6174683A207375627472616374696F6E206F766572 DUP2 MSTORE PUSH4 0x666C6F77 PUSH1 0xE0 SHL PUSH1 0x20 DUP3 ADD MSTORE PUSH1 0x40 ADD SWAP3 SWAP2 POP POP JUMP JUMPDEST PUSH1 0x0 PUSH2 0x4996 PUSH1 0x21 DUP4 PUSH2 0x4F7C JUMP JUMPDEST PUSH32 0x4D617267696E5472616E7366657272656428616464726573732C696E74323536 DUP2 MSTORE PUSH1 0x29 PUSH1 0xF8 SHL PUSH1 0x20 DUP3 ADD MSTORE PUSH1 0x21 ADD SWAP3 SWAP2 POP POP JUMP JUMPDEST PUSH1 0x0 PUSH2 0x49D9 PUSH1 0x17 DUP4 PUSH2 0x4F73 JUMP JUMPDEST PUSH32 0x4F6E6C79207468652070726F78792063616E2063616C6C000000000000000000 DUP2 MSTORE PUSH1 0x20 ADD SWAP3 SWAP2 POP POP JUMP JUMPDEST PUSH1 0x0 PUSH2 0x4A12 PUSH1 0xD DUP4 PUSH2 0x4F73 JUMP JUMPDEST PUSH13 0x496E76616C6964207072696365 PUSH1 0x98 SHL DUP2 MSTORE PUSH1 0x20 ADD SWAP3 SWAP2 POP POP JUMP JUMPDEST PUSH1 0x0 PUSH2 0x4A3B PUSH1 0x20 DUP4 PUSH2 0x4F73 JUMP JUMPDEST PUSH32 0x5369676E6564536166654D6174683A206469766973696F6E206279207A65726F DUP2 MSTORE PUSH1 0x20 ADD SWAP3 SWAP2 POP POP JUMP JUMPDEST PUSH1 0x0 PUSH2 0x4A74 PUSH1 0x30 DUP4 PUSH2 0x4F7C JUMP JUMPDEST PUSH32 0x46756E64696E675265636F6D707574656428696E743235362C696E743235362C DUP2 MSTORE PUSH16 0x75696E743235362C75696E7432353629 PUSH1 0x80 SHL PUSH1 0x20 DUP3 ADD MSTORE PUSH1 0x30 ADD SWAP3 SWAP2 POP POP JUMP JUMPDEST PUSH2 0x4402 DUP2 PUSH2 0x4F97 JUMP JUMPDEST PUSH2 0x4402 DUP2 PUSH2 0x4FA3 JUMP JUMPDEST PUSH2 0x4402 DUP2 PUSH2 0x4FE3 JUMP JUMPDEST PUSH2 0x4402 DUP2 PUSH2 0x4FAC JUMP JUMPDEST PUSH1 0x0 PUSH2 0x4AE9 DUP3 DUP6 PUSH2 0x447C JUMP JUMPDEST PUSH1 0x20 DUP3 ADD SWAP2 POP PUSH2 0x4AF9 DUP3 DUP5 PUSH2 0x447C JUMP JUMPDEST POP PUSH1 0x20 ADD SWAP3 SWAP2 POP POP JUMP JUMPDEST PUSH1 0x0 PUSH2 0x4B0E DUP3 PUSH2 0x46E8 JUMP JUMPDEST SWAP2 POP PUSH2 0x4B1A DUP3 DUP5 PUSH2 0x447C JUMP JUMPDEST POP PUSH1 0x20 ADD SWAP2 SWAP1 POP JUMP JUMPDEST PUSH1 0x0 PUSH2 0x4B0E DUP3 PUSH2 0x4835 JUMP JUMPDEST PUSH1 0x0 PUSH2 0x11EC DUP3 PUSH2 0x486E JUMP JUMPDEST PUSH1 0x0 PUSH2 0x11EC DUP3 PUSH2 0x48EC JUMP JUMPDEST PUSH1 0x0 PUSH2 0x11EC DUP3 PUSH2 0x4989 JUMP JUMPDEST PUSH1 0x0 PUSH2 0x11EC DUP3 PUSH2 0x4A67 JUMP JUMPDEST PUSH1 0x20 DUP2 ADD PUSH2 0x11EC DUP3 DUP5 PUSH2 0x4408 JUMP JUMPDEST PUSH1 0x20 DUP2 ADD PUSH2 0x11EC DUP3 DUP5 PUSH2 0x43F9 JUMP JUMPDEST PUSH1 0x40 DUP2 ADD PUSH2 0x4B84 DUP3 DUP6 PUSH2 0x4408 JUMP JUMPDEST PUSH2 0x250F PUSH1 0x20 DUP4 ADD DUP5 PUSH2 0x4408 JUMP JUMPDEST PUSH1 0x40 DUP2 ADD PUSH2 0x4B9F DUP3 DUP6 PUSH2 0x4408 JUMP JUMPDEST PUSH2 0x250F PUSH1 0x20 DUP4 ADD DUP5 PUSH2 0x4473 JUMP JUMPDEST PUSH1 0xC0 DUP2 ADD PUSH2 0x4BBA DUP3 DUP10 PUSH2 0x4408 JUMP JUMPDEST PUSH2 0x4BC7 PUSH1 0x20 DUP4 ADD DUP9 PUSH2 0x4AD4 JUMP JUMPDEST PUSH2 0x4BD4 PUSH1 0x40 DUP4 ADD DUP8 PUSH2 0x4AD4 JUMP JUMPDEST PUSH2 0x4BE1 PUSH1 0x60 DUP4 ADD DUP7 PUSH2 0x4AB9 JUMP JUMPDEST PUSH2 0x4BEE PUSH1 0x80 DUP4 ADD DUP6 PUSH2 0x4AB9 JUMP JUMPDEST PUSH2 0x4BFB PUSH1 0xA0 DUP4 ADD DUP5 PUSH2 0x44CE JUMP JUMPDEST SWAP8 SWAP7 POP POP POP POP POP POP POP JUMP JUMPDEST PUSH1 0x20 DUP1 DUP3 MSTORE DUP2 ADD PUSH2 0x250F DUP2 DUP5 PUSH2 0x4411 JUMP JUMPDEST PUSH1 0x20 DUP2 ADD PUSH2 0x11EC DUP3 DUP5 PUSH2 0x446A JUMP JUMPDEST PUSH1 0x20 DUP2 ADD PUSH2 0x11EC DUP3 DUP5 PUSH2 0x4473 JUMP JUMPDEST PUSH1 0x40 DUP2 ADD PUSH2 0x4B84 DUP3 DUP6 PUSH2 0x4473 JUMP JUMPDEST PUSH1 0x40 DUP2 ADD PUSH2 0x4B9F DUP3 DUP6 PUSH2 0x4473 JUMP JUMPDEST PUSH1 0x80 DUP2 ADD PUSH2 0x4C5D DUP3 DUP8 PUSH2 0x4473 JUMP JUMPDEST PUSH2 0x4C6A PUSH1 0x20 DUP4 ADD DUP7 PUSH2 0x4473 JUMP JUMPDEST PUSH2 0x4C77 PUSH1 0x40 DUP4 ADD DUP6 PUSH2 0x4473 JUMP JUMPDEST PUSH2 0x3BB3 PUSH1 0x60 DUP4 ADD DUP5 PUSH2 0x4473 JUMP JUMPDEST PUSH1 0x40 DUP2 ADD PUSH2 0x4C92 DUP3 DUP6 PUSH2 0x4473 JUMP JUMPDEST DUP2 DUP2 SUB PUSH1 0x20 DUP4 ADD MSTORE PUSH2 0x2607 DUP2 DUP5 PUSH2 0x448D JUMP JUMPDEST PUSH1 0xC0 DUP1 DUP3 MSTORE DUP2 ADD PUSH2 0x4CB5 DUP2 DUP10 PUSH2 0x448D JUMP JUMPDEST SWAP1 POP PUSH2 0x4CC4 PUSH1 0x20 DUP4 ADD DUP9 PUSH2 0x44E0 JUMP JUMPDEST PUSH2 0x4CD1 PUSH1 0x40 DUP4 ADD DUP8 PUSH2 0x4473 JUMP JUMPDEST PUSH2 0x4CDE PUSH1 0x60 DUP4 ADD DUP7 PUSH2 0x44D7 JUMP JUMPDEST PUSH2 0x4CEB PUSH1 0x80 DUP4 ADD DUP6 PUSH2 0x44D7 JUMP JUMPDEST PUSH2 0x4BFB PUSH1 0xA0 DUP4 ADD DUP5 PUSH2 0x44D7 JUMP JUMPDEST PUSH1 0xC0 DUP1 DUP3 MSTORE DUP2 ADD PUSH2 0x4D09 DUP2 DUP10 PUSH2 0x448D JUMP JUMPDEST SWAP1 POP PUSH2 0x4D18 PUSH1 0x20 DUP4 ADD DUP9 PUSH2 0x44E0 JUMP JUMPDEST PUSH2 0x4D25 PUSH1 0x40 DUP4 ADD DUP8 PUSH2 0x4473 JUMP JUMPDEST PUSH2 0x4CDE PUSH1 0x60 DUP4 ADD DUP7 PUSH2 0x4473 JUMP JUMPDEST PUSH1 0xC0 DUP1 DUP3 MSTORE DUP2 ADD PUSH2 0x4D43 DUP2 DUP10 PUSH2 0x448D JUMP JUMPDEST SWAP1 POP PUSH2 0x4D52 PUSH1 0x20 DUP4 ADD DUP9 PUSH2 0x44E0 JUMP JUMPDEST PUSH2 0x4D5F PUSH1 0x40 DUP4 ADD DUP8 PUSH2 0x4473 JUMP JUMPDEST PUSH2 0x4D6C PUSH1 0x60 DUP4 ADD DUP7 PUSH2 0x4473 JUMP JUMPDEST PUSH2 0x4CEB PUSH1 0x80 DUP4 ADD DUP6 PUSH2 0x4473 JUMP JUMPDEST PUSH1 0x20 DUP2 ADD PUSH2 0x11EC DUP3 DUP5 PUSH2 0x44C5 JUMP JUMPDEST PUSH1 0x20 DUP2 ADD PUSH2 0x11EC DUP3 DUP5 PUSH2 0x44CE JUMP JUMPDEST PUSH1 0x20 DUP1 DUP3 MSTORE DUP2 ADD PUSH2 0x250F DUP2 DUP5 PUSH2 0x448D JUMP JUMPDEST PUSH1 0x20 DUP1 DUP3 MSTORE DUP2 ADD PUSH2 0x250F DUP2 DUP5 PUSH2 0x44E9 JUMP JUMPDEST PUSH1 0x20 DUP1 DUP3 MSTORE DUP2 ADD PUSH2 0x11EC DUP2 PUSH2 0x4573 JUMP JUMPDEST PUSH1 0x20 DUP1 DUP3 MSTORE DUP2 ADD PUSH2 0x11EC DUP2 PUSH2 0x45CA JUMP JUMPDEST PUSH1 0x20 DUP1 DUP3 MSTORE DUP2 ADD PUSH2 0x11EC DUP2 PUSH2 0x45FA JUMP JUMPDEST PUSH1 0x20 DUP1 DUP3 MSTORE DUP2 ADD PUSH2 0x11EC DUP2 PUSH2 0x4633 JUMP JUMPDEST PUSH1 0x20 DUP1 DUP3 MSTORE DUP2 ADD PUSH2 0x11EC DUP2 PUSH2 0x4676 JUMP JUMPDEST PUSH1 0x20 DUP1 DUP3 MSTORE DUP2 ADD PUSH2 0x11EC DUP2 PUSH2 0x46AF JUMP JUMPDEST PUSH1 0x20 DUP1 DUP3 MSTORE DUP2 ADD PUSH2 0x11EC DUP2 PUSH2 0x4715 JUMP JUMPDEST PUSH1 0x20 DUP1 DUP3 MSTORE DUP2 ADD PUSH2 0x11EC DUP2 PUSH2 0x4758 JUMP JUMPDEST PUSH1 0x20 DUP1 DUP3 MSTORE DUP2 ADD PUSH2 0x11EC DUP2 PUSH2 0x47A9 JUMP JUMPDEST PUSH1 0x20 DUP1 DUP3 MSTORE DUP2 ADD PUSH2 0x11EC DUP2 PUSH2 0x47EC JUMP JUMPDEST PUSH1 0x20 DUP1 DUP3 MSTORE DUP2 ADD PUSH2 0x11EC DUP2 PUSH2 0x4943 JUMP JUMPDEST PUSH1 0x20 DUP1 DUP3 MSTORE DUP2 ADD PUSH2 0x11EC DUP2 PUSH2 0x49CC JUMP JUMPDEST PUSH1 0x20 DUP1 DUP3 MSTORE DUP2 ADD PUSH2 0x11EC DUP2 PUSH2 0x4A05 JUMP JUMPDEST PUSH1 0x20 DUP1 DUP3 MSTORE DUP2 ADD PUSH2 0x11EC DUP2 PUSH2 0x4A2E JUMP JUMPDEST PUSH1 0x20 DUP2 ADD PUSH2 0x11EC DUP3 DUP5 PUSH2 0x4AB9 JUMP JUMPDEST PUSH1 0xE0 DUP2 ADD PUSH2 0x4EB3 DUP3 DUP11 PUSH2 0x4473 JUMP JUMPDEST PUSH2 0x4EC0 PUSH1 0x20 DUP4 ADD DUP10 PUSH2 0x4473 JUMP JUMPDEST PUSH2 0x4ECD PUSH1 0x40 DUP4 ADD DUP9 PUSH2 0x4473 JUMP JUMPDEST PUSH2 0x4EDA PUSH1 0x60 DUP4 ADD DUP8 PUSH2 0x4473 JUMP JUMPDEST PUSH2 0x4EE7 PUSH1 0x80 DUP4 ADD DUP7 PUSH2 0x4473 JUMP JUMPDEST PUSH2 0x4EF4 PUSH1 0xA0 DUP4 ADD DUP6 PUSH2 0x4473 JUMP JUMPDEST PUSH2 0x4F01 PUSH1 0xC0 DUP4 ADD DUP5 PUSH2 0x4473 JUMP JUMPDEST SWAP9 SWAP8 POP POP POP POP POP POP POP POP JUMP JUMPDEST PUSH1 0x20 DUP2 ADD PUSH2 0x11EC DUP3 DUP5 PUSH2 0x4AC2 JUMP JUMPDEST PUSH1 0x20 DUP2 ADD PUSH2 0x11EC DUP3 DUP5 PUSH2 0x4ACB JUMP JUMPDEST PUSH1 0x20 DUP2 ADD PUSH2 0x11EC DUP3 DUP5 PUSH2 0x4AD4 JUMP JUMPDEST PUSH1 0x40 MLOAD DUP2 DUP2 ADD PUSH1 0x1 PUSH1 0x1 PUSH1 0x40 SHL SUB DUP2 GT DUP3 DUP3 LT OR ISZERO PUSH2 0x4F55 JUMPI PUSH1 0x0 DUP1 REVERT JUMPDEST PUSH1 0x40 MSTORE SWAP2 SWAP1 POP JUMP JUMPDEST PUSH1 0x20 ADD SWAP1 JUMP JUMPDEST PUSH1 0x0 SWAP1 DUP2 MSTORE PUSH1 0x20 SWAP1 KECCAK256 SWAP1 JUMP JUMPDEST MLOAD SWAP1 JUMP JUMPDEST SWAP1 DUP2 MSTORE PUSH1 0x20 ADD SWAP1 JUMP JUMPDEST SWAP2 SWAP1 POP JUMP JUMPDEST PUSH1 0x0 PUSH2 0x11EC DUP3 PUSH2 0x34AF JUMP JUMPDEST ISZERO ISZERO SWAP1 JUMP JUMPDEST PUSH1 0xF SIGNEXTEND SWAP1 JUMP JUMPDEST PUSH1 0x1 PUSH1 0x1 PUSH1 0x80 SHL SUB AND SWAP1 JUMP JUMPDEST PUSH4 0xFFFFFFFF AND SWAP1 JUMP JUMPDEST PUSH1 0x1 PUSH1 0x1 PUSH1 0x40 SHL SUB AND SWAP1 JUMP JUMPDEST PUSH1 0x0 PUSH2 0x11EC DUP3 JUMPDEST PUSH1 0x0 PUSH2 0x11EC DUP3 PUSH2 0x4F81 JUMP JUMPDEST PUSH1 0x0 PUSH2 0x11EC PUSH2 0x4488 DUP4 PUSH2 0x406 JUMP JUMPDEST PUSH1 0x0 PUSH2 0x11EC DUP3 PUSH2 0x406 JUMP JUMPDEST PUSH1 0x0 PUSH2 0x11EC DUP3 PUSH2 0x4FAC JUMP JUMPDEST PUSH1 0x0 JUMPDEST DUP4 DUP2 LT ISZERO PUSH2 0x5009 JUMPI DUP2 DUP2 ADD MLOAD DUP4 DUP3 ADD MSTORE PUSH1 0x20 ADD PUSH2 0x4FF1 JUMP JUMPDEST DUP4 DUP2 GT ISZERO PUSH2 0xB1E JUMPI POP POP PUSH1 0x0 SWAP2 ADD MSTORE JUMP JUMPDEST PUSH1 0x1F ADD PUSH1 0x1F NOT AND SWAP1 JUMP JUMPDEST PUSH2 0x502D DUP2 PUSH2 0x4F81 JUMP JUMPDEST DUP2 EQ PUSH2 0x972 JUMPI PUSH1 0x0 DUP1 REVERT JUMPDEST PUSH2 0x502D DUP2 PUSH2 0x4F8C JUMP JUMPDEST PUSH2 0x502D DUP2 PUSH2 0x406 JUMP JUMPDEST PUSH2 0x502D DUP2 PUSH2 0x4F91 JUMP JUMPDEST PUSH2 0x502D DUP2 PUSH2 0x4F97 JUMP JUMPDEST PUSH2 0x502D DUP2 PUSH2 0x4FA3 JUMP JUMPDEST PUSH2 0x502D DUP2 PUSH2 0x4FAC JUMP INVALID POP PUSH6 0x72707356324D PUSH2 0x726B PUSH6 0x745365747469 PUSH15 0x67730000000000000000000000A365 PUSH3 0x7A7A72 BALANCE PC KECCAK256 LOG0 0xE8 GASLIMIT 0xFC PUSH12 0xB3E686B44D4B64F13BDD709F 0x4E SWAP9 SLT 0xED GASLIMIT 0xE8 0xDE 0x29 0xC0 DUP3 SWAP1 0xEC 0x5C 0x4A 0xC8 PUSH13 0x6578706572696D656E74616CF5 PUSH5 0x736F6C6343 STOP SDIV GT STOP BLOCKHASH "
		}
	}
}